{
	"data": {
		"bytecode": {
			"linkReferences": {
				"contracts/types/Queue.sol": {
					"Queue": [
						{
							"length": 20,
							"start": 5776
						},
						{
							"length": 20,
							"start": 7322
						},
						{
							"length": 20,
							"start": 10710
						},
						{
							"length": 20,
							"start": 11966
						},
						{
							"length": 20,
							"start": 12128
						},
						{
							"length": 20,
							"start": 12274
						},
						{
							"length": 20,
							"start": 16489
						}
					]
				}
			},
			"object": "6080604052670de0b6b3a7640000600c55670de0b6b3a7640000600d5569d3c21bcecceda1000000601355690a968163f0a57b40000060145534801561004457600080fd5b506001600081905550617f70806200005d6000396000f3fe6080604052600436106200034a5760003560e01c8063824be2f511620001b7578063c1dd047611620000f1578063e425f91711620000a3578063ea98ecac1162000079578063ea98ecac1462000b7a578063f64e62651462000ba8578063fa8d07511462000bd8578063fb995a8f1462000c1c576200034a565b8063e425f9171462000ada578063e81555921462000b08578063e97891901462000b36576200034a565b8063c1dd047614620009e2578063c63f0ad71462000a10578063c788c2551462000a40578063d4a0f5551462000a70578063d62e551d1462000aa0578063db3b157e1462000ace576200034a565b806390891f391162000169578063af14052c116200013f578063af14052c146200095e578063b2065edb1462000978578063b74fdf9e14620009a6578063c045add714620009d6576200034a565b806390891f3914620008d05780639b8799c81462000900578063a73677441462000930576200034a565b8063824be2f514620007b65780638709affc14620007e657806388b5b67d146200081657806388bb26ee14620008465780638cac6072146200087457806390252f8414620008a2576200034a565b8063471cd4ec11620002895780636040ec70116200023b5780636dcbb8fc11620002115780636dcbb8fc14620006f557806371c2706714620007255780637e82fd6f1462000755578063804a933d1462000786576200034a565b80636040ec70146200066b578063633b4bfb146200069957806368727f1d14620006c7576200034a565b8063471cd4ec14620005695780634738d6ee146200059757806352c7dbd414620005c557806354cfbfe514620005f3578063584fc5a514620006215780635f56850c146200063b576200034a565b806319acb03111620003015780632d4d89a311620002d75780632d4d89a314620004c35780632f2462df14620004dd578063422d98e6146200050d57806346d96ed4146200053b576200034a565b806319acb03114620004355780631b2df85014620004655780631dfef2a41462000495576200034a565b8063097a5c16146200034f5780630f09d6e9146200037d57806310936d2a14620003895780631459457a14620003b75780631943965414620003d757806319502be71462000405575b600080fd5b3480156200035c57600080fd5b506200037b600480360381019062000375919062004ec0565b62000c4c565b005b6200038762001001565b005b3480156200039657600080fd5b50620003b56004803603810190620003af919062004f95565b62001072565b005b620003d56004803603810190620003cf919062005036565b6200121d565b005b348015620003e457600080fd5b50620004036004803603810190620003fd9190620050be565b620016af565b005b3480156200041257600080fd5b506200041d62001849565b6040516200042c919062005116565b60405180910390f35b3480156200044257600080fd5b506200044d6200186f565b6040516200045c919062005144565b60405180910390f35b3480156200047257600080fd5b506200047d62001875565b6040516200048c919062005116565b60405180910390f35b348015620004a257600080fd5b50620004c16004803603810190620004bb919062005161565b6200189b565b005b348015620004d057600080fd5b50620004db62001b58565b005b348015620004ea57600080fd5b50620004f562001d56565b604051620005049190620051c3565b60405180910390f35b3480156200051a57600080fd5b50620005396004803603810190620005339190620051e0565b62001e37565b005b3480156200054857600080fd5b506200056760048036038101906200056191906200523c565b6200209b565b005b3480156200057657600080fd5b506200059560048036038101906200058f919062004ec0565b62002243565b005b348015620005a457600080fd5b50620005c36004803603810190620005bd9190620051e0565b620023ac565b005b348015620005d257600080fd5b50620005f16004803603810190620005eb9190620051e0565b620025f5565b005b3480156200060057600080fd5b506200061f6004803603810190620006199190620052eb565b6200283c565b005b3480156200062e57600080fd5b5062000639620028df565b005b3480156200064857600080fd5b506200065362002a95565b604051620006629190620051c3565b60405180910390f35b3480156200067857600080fd5b506200069760048036038101906200069191906200534e565b62002a9b565b005b348015620006a657600080fd5b50620006c56004803603810190620006bf9190620050be565b62002b59565b005b348015620006d457600080fd5b50620006f36004803603810190620006ed9190620051e0565b62002bca565b005b3480156200070257600080fd5b506200070d62002d8a565b6040516200071c919062005144565b60405180910390f35b3480156200073257600080fd5b506200073d62002d90565b6040516200074c919062005116565b60405180910390f35b3480156200076257600080fd5b506200076d62002db6565b6040516200077d92919062005380565b60405180910390f35b3480156200079357600080fd5b506200079e62002dc8565b604051620007ad919062005144565b60405180910390f35b348015620007c357600080fd5b50620007ce62002dcd565b604051620007dd9190620051c3565b60405180910390f35b348015620007f357600080fd5b50620007fe62002dd3565b6040516200080d919062005116565b60405180910390f35b3480156200082357600080fd5b506200082e62002e31565b6040516200083d9190620053be565b60405180910390f35b3480156200085357600080fd5b506200087260048036038101906200086c919062004ec0565b62002e44565b005b3480156200088157600080fd5b50620008a060048036038101906200089a919062005161565b62003194565b005b348015620008af57600080fd5b50620008ce6004803603810190620008c8919062004ec0565b62003205565b005b348015620008dd57600080fd5b50620008e862003295565b604051620008f7919062005144565b60405180910390f35b3480156200090d57600080fd5b50620009186200329a565b604051620009279190620053ec565b60405180910390f35b3480156200093d57600080fd5b506200095c600480360381019062000956919062005161565b620032c0565b005b3480156200096b57600080fd5b506200097662003362565b005b3480156200098557600080fd5b50620009a460048036038101906200099e9190620051e0565b6200336e565b005b348015620009b357600080fd5b50620009be6200352e565b604051620009cd919062005144565b60405180910390f35b620009e062003534565b005b348015620009ef57600080fd5b5062000a0e600480360381019062000a08919062005161565b62003882565b005b34801562000a1d57600080fd5b5062000a28620039e7565b60405162000a37919062005144565b60405180910390f35b34801562000a4d57600080fd5b5062000a58620039ed565b60405162000a67919062005144565b60405180910390f35b34801562000a7d57600080fd5b5062000a88620039f3565b60405162000a97919062005144565b60405180910390f35b34801562000aad57600080fd5b5062000acc600480360381019062000ac6919062004ec0565b62003a00565b005b62000ad862003aa4565b005b34801562000ae757600080fd5b5062000b06600480360381019062000b0091906200523c565b62003b47565b005b34801562000b1557600080fd5b5062000b34600480360381019062000b2e919062004ec0565b62003dae565b005b34801562000b4357600080fd5b5062000b62600480360381019062000b5c919062004ec0565b620041e6565b60405162000b719190620053ec565b60405180910390f35b34801562000b8757600080fd5b5062000ba6600480360381019062000ba09190620050be565b62004226565b005b34801562000bb557600080fd5b5062000bc0620042c8565b60405162000bcf919062005144565b60405180910390f35b34801562000be557600080fd5b5062000c04600480360381019062000bfe919062005409565b620042ce565b60405162000c13919062005144565b60405180910390f35b34801562000c2957600080fd5b5062000c34620042e6565b60405162000c439190620053be565b60405180910390f35b62000c5733620042f9565b62000c99576040517f08c379a000000000000000000000000000000000000000000000000000000000815260040162000c90906200549c565b60405180910390fd5b60016009805490501162000ce4576040517f08c379a000000000000000000000000000000000000000000000000000000000815260040162000cdb906200550e565b60405180910390fd5b600980549050811062000d2e576040517f08c379a000000000000000000000000000000000000000000000000000000000815260040162000d259062005580565b60405180910390fd5b60006009828154811062000d475762000d46620055a2565b5b9060005260206000200160009054906101000a900473ffffffffffffffffffffffffffffffffffffffff1690506000600560009054906101000a900473ffffffffffffffffffffffffffffffffffffffff1673ffffffffffffffffffffffffffffffffffffffff1663e6861713836040518263ffffffff1660e01b815260040162000dd3919062005116565b602060405180830381865afa15801562000df1573d6000803e3d6000fd5b505050506040513d601f19601f8201168201806040525081019062000e179190620055e8565b1462000e5a576040517f08c379a000000000000000000000000000000000000000000000000000000000815260040162000e51906200566a565b60405180910390fd5b60008173ffffffffffffffffffffffffffffffffffffffff16311462000eb7576040517f08c379a000000000000000000000000000000000000000000000000000000000815260040162000eae90620056dc565b60405180910390fd5b6000600160098054905062000ecd91906200572d565b905080831462000f79576009818154811062000eee5762000eed620055a2565b5b9060005260206000200160009054906101000a900473ffffffffffffffffffffffffffffffffffffffff166009848154811062000f305762000f2f620055a2565b5b9060005260206000200160006101000a81548173ffffffffffffffffffffffffffffffffffffffff021916908373ffffffffffffffffffffffffffffffffffffffff1602179055505b600980548062000f8e5762000f8d62005768565b5b6001900381819060005260206000200160006101000a81549073ffffffffffffffffffffffffffffffffffffffff021916905590557fdd388b2c2bc1036ac6cce81371536ab05030ff4c10f86d4b537f0b02ab2975ed8260405162000ff4919062005116565b60405180910390a1505050565b7fffffffffffffffffffffffffffffffffffffffffffffffffffffffffffffffff6200102d3362004426565b0362001070576040517f08c379a00000000000000000000000000000000000000000000000000000000081526004016200106790620057e7565b60405180910390fd5b565b6200107d33620042f9565b620010bf576040517f08c379a0000000000000000000000000000000000000000000000000000000008152600401620010b6906200549c565b60405180910390fd5b620010c9620044f4565b600980549050831062001113576040517f08c379a00000000000000000000000000000000000000000000000000000000081526004016200110a9062005580565b60405180910390fd5b6000600984815481106200112c576200112b620055a2565b5b9060005260206000200160009054906101000a900473ffffffffffffffffffffffffffffffffffffffff16905060008190507fc68be9eae8414abc66aeba507171bc24b3e21419a20a59e08684ceb4c206d0db82858560405162001193939291906200581a565b60405180910390a18073ffffffffffffffffffffffffffffffffffffffff16637258b5ef85856040518363ffffffff1660e01b8152600401620011d892919062005857565b600060405180830381600087803b158015620011f357600080fd5b505af115801562001208573d6000803e3d6000fd5b5050505050506200121862004546565b505050565b600073ffffffffffffffffffffffffffffffffffffffff168573ffffffffffffffffffffffffffffffffffffffff1614158015620012a95750600073ffffffffffffffffffffffffffffffffffffffff16600460009054906101000a900473ffffffffffffffffffffffffffffffffffffffff1673ffffffffffffffffffffffffffffffffffffffff16145b620012eb576040517f08c379a0000000000000000000000000000000000000000000000000000000008152600401620012e290620058d4565b60405180910390fd5b84600460006101000a81548173ffffffffffffffffffffffffffffffffffffffff021916908373ffffffffffffffffffffffffffffffffffffffff16021790555083600160006101000a81548173ffffffffffffffffffffffffffffffffffffffff021916908373ffffffffffffffffffffffffffffffffffffffff16021790555081600260006101000a81548173ffffffffffffffffffffffffffffffffffffffff021916908373ffffffffffffffffffffffffffffffffffffffff16021790555080600360006101000a81548173ffffffffffffffffffffffffffffffffffffffff021916908373ffffffffffffffffffffffffffffffffffffffff160217905550600160009054906101000a900473ffffffffffffffffffffffffffffffffffffffff16600560006101000a81548173ffffffffffffffffffffffffffffffffffffffff021916908373ffffffffffffffffffffffffffffffffffffffff160217905550600260009054906101000a900473ffffffffffffffffffffffffffffffffffffffff16600760006101000a81548173ffffffffffffffffffffffffffffffffffffffff021916908373ffffffffffffffffffffffffffffffffffffffff160217905550600360009054906101000a900473ffffffffffffffffffffffffffffffffffffffff16600860006101000a81548173ffffffffffffffffffffffffffffffffffffffff021916908373ffffffffffffffffffffffffffffffffffffffff16021790555082600660006101000a81548173ffffffffffffffffffffffffffffffffffffffff021916908373ffffffffffffffffffffffffffffffffffffffff16021790555034600760009054906101000a900473ffffffffffffffffffffffffffffffffffffffff1673ffffffffffffffffffffffffffffffffffffffff166318160ddd6040518163ffffffff1660e01b8152600401602060405180830381865afa158015620015c8573d6000803e3d6000fd5b505050506040513d601f19601f82011682018060405250810190620015ee9190620055e8565b1462001631576040517f08c379a0000000000000000000000000000000000000000000000000000000008152600401620016289062005946565b60405180910390fd5b73__$035bc4cc642ca87902d9152945cf6ee29a$__63e9d3a61f60156040518263ffffffff1660e01b81526004016200166b91906200596f565b60006040518083038186803b1580156200168457600080fd5b505af415801562001699573d6000803e3d6000fd5b50505050620016a762004550565b505050505050565b620016ba33620042f9565b620016fc576040517f08c379a0000000000000000000000000000000000000000000000000000000008152600401620016f3906200549c565b60405180910390fd5b62001706620044f4565b600980549050821062001750576040517f08c379a0000000000000000000000000000000000000000000000000000000008152600401620017479062005580565b60405180910390fd5b600060098381548110620017695762001768620055a2565b5b9060005260206000200160009054906101000a900473ffffffffffffffffffffffffffffffffffffffff16905060008190507fad79328e8502097ed263893551ce1580715cdee9ed2f17218107aee878968aab8284604051620017ce9291906200598c565b60405180910390a18073ffffffffffffffffffffffffffffffffffffffff1663d0e30db0846040518263ffffffff1660e01b81526004016000604051808303818588803b1580156200181f57600080fd5b505af115801562001834573d6000803e3d6000fd5b505050505050506200184562004546565b5050565b600260009054906101000a900473ffffffffffffffffffffffffffffffffffffffff1681565b600d5481565b600460009054906101000a900473ffffffffffffffffffffffffffffffffffffffff1681565b620018a633620042f9565b620018e8576040517f08c379a0000000000000000000000000000000000000000000000000000000008152600401620018df906200549c565b60405180910390fd5b620018f2620044f4565b60098054905082106200193c576040517f08c379a0000000000000000000000000000000000000000000000000000000008152600401620019339062005580565b60405180910390fd5b600060098381548110620019555762001954620055a2565b5b9060005260206000200160009054906101000a900473ffffffffffffffffffffffffffffffffffffffff1690506000819050601060008373ffffffffffffffffffffffffffffffffffffffff1673ffffffffffffffffffffffffffffffffffffffff16815260200190815260200160002060008473ffffffffffffffffffffffffffffffffffffffff1673ffffffffffffffffffffffffffffffffffffffff16815260200190815260200160002054600f600082825462001a179190620059b9565b92505081905550601060008373ffffffffffffffffffffffffffffffffffffffff1673ffffffffffffffffffffffffffffffffffffffff16815260200190815260200160002060008473ffffffffffffffffffffffffffffffffffffffff1673ffffffffffffffffffffffffffffffffffffffff168152602001908152602001600020600090557f6b0051e95583814d3df346d6cb3e5c876bb941024d1a681a7a9b6bee5a74a73d828460405162001ad192919062005a04565b60405180910390a18073ffffffffffffffffffffffffffffffffffffffff1663c90eee83846040518263ffffffff1660e01b815260040162001b14919062005116565b600060405180830381600087803b15801562001b2f57600080fd5b505af115801562001b44573d6000803e3d6000fd5b50505050505062001b5462004546565b5050565b62001b6333620042f9565b62001ba5576040517f08c379a000000000000000000000000000000000000000000000000000000000815260040162001b9c906200549c565b60405180910390fd5b600560009054906101000a900473ffffffffffffffffffffffffffffffffffffffff1673ffffffffffffffffffffffffffffffffffffffff1663146ca5316040518163ffffffff1660e01b8152600401602060405180830381865afa15801562001c13573d6000803e3d6000fd5b505050506040513d601f19601f8201168201806040525081019062001c399190620055e8565b60f073__$035bc4cc642ca87902d9152945cf6ee29a$__63cc9f49c560156040518263ffffffff1660e01b815260040162001c7591906200596f565b606060405180830381865af415801562001c93573d6000803e3d6000fd5b505050506040513d601f19601f8201168201806040525081019062001cb9919062005b51565b6040015162001cc9919062005b83565b101562001d0d576040517f08c379a000000000000000000000000000000000000000000000000000000000815260040162001d049062005c0e565b60405180910390fd5b6000600860146101000a81548160ff0219169083151502179055507ffcbcd01ae4b89985f01b11a56eaf3f59ee38b0c26290a0387bd7297d36719b5d60405160405180910390a1565b600062001d6333620042f9565b62001da5576040517f08c379a000000000000000000000000000000000000000000000000000000000815260040162001d9c906200549c565b60405180910390fd5b6000600f54600e541262001dbc57600f5462001dc0565b600e545b905080600e600082825462001dd6919062005c30565b9250508190555080600f600082825462001df1919062005c30565b925050819055507e3882de3df515a586842af2d5ae019e6bf58d7266712f58e79e761a4f5d91d48160405162001e289190620051c3565b60405180910390a18091505090565b62001e4233620042f9565b62001e84576040517f08c379a000000000000000000000000000000000000000000000000000000000815260040162001e7b906200549c565b60405180910390fd5b62001e8e620044f4565b600980549050831062001ed8576040517f08c379a000000000000000000000000000000000000000000000000000000000815260040162001ecf9062005580565b60405180910390fd5b80600e600082825462001eec919062005c30565b9250508190555060006009848154811062001f0c5762001f0b620055a2565b5b9060005260206000200160009054906101000a900473ffffffffffffffffffffffffffffffffffffffff16905060008190507fad79328e8502097ed263893551ce1580715cdee9ed2f17218107aee878968aab828460405162001f719291906200598c565b60405180910390a17f012a195bd39bcf87cb43d15aebc16fdbc683d5fdfb884876ad7eb0b5e5d9306282858560405162001fae9392919062005c7a565b60405180910390a18073ffffffffffffffffffffffffffffffffffffffff1663d0e30db0846040518263ffffffff1660e01b81526004016000604051808303818588803b15801562001fff57600080fd5b505af115801562002014573d6000803e3d6000fd5b50505050508073ffffffffffffffffffffffffffffffffffffffff1663026e402b85856040518363ffffffff1660e01b8152600401620020569291906200598c565b600060405180830381600087803b1580156200207157600080fd5b505af115801562002086573d6000803e3d6000fd5b5050505050506200209662004546565b505050565b620020a633620042f9565b620020e8576040517f08c379a0000000000000000000000000000000000000000000000000000000008152600401620020df906200549c565b60405180910390fd5b620020f2620044f4565b60098054905084106200213c576040517f08c379a0000000000000000000000000000000000000000000000000000000008152600401620021339062005580565b60405180910390fd5b600060098581548110620021555762002154620055a2565b5b9060005260206000200160009054906101000a900473ffffffffffffffffffffffffffffffffffffffff1690507f51be0e166090283a4eb1ba4ce54022f6bc0c780398b49da4ec3fd79350d67b71818585604051620021b79392919062005c7a565b60405180910390a18073ffffffffffffffffffffffffffffffffffffffff1663fb79716f8585856040518463ffffffff1660e01b8152600401620021fe9392919062005cb7565b600060405180830381600087803b1580156200221957600080fd5b505af11580156200222e573d6000803e3d6000fd5b50505050506200223d62004546565b50505050565b6200224e33620042f9565b62002290576040517f08c379a000000000000000000000000000000000000000000000000000000000815260040162002287906200549c565b60405180910390fd5b600760009054906101000a900473ffffffffffffffffffffffffffffffffffffffff1673ffffffffffffffffffffffffffffffffffffffff166318160ddd6040518163ffffffff1660e01b8152600401602060405180830381865afa158015620022fe573d6000803e3d6000fd5b505050506040513d601f19601f82011682018060405250810190620023249190620055e8565b81101562002369576040517f08c379a0000000000000000000000000000000000000000000000000000000008152600401620023609062005d44565b60405180910390fd5b806013819055507f3c6e5b959f579aa3df4c5e9591bda140aafc147219d7ff89d37c7d497be47bcb81604051620023a1919062005144565b60405180910390a150565b620023b733620042f9565b620023f9576040517f08c379a0000000000000000000000000000000000000000000000000000000008152600401620023f0906200549c565b60405180910390fd5b62002403620044f4565b60098054905083106200244d576040517f08c379a0000000000000000000000000000000000000000000000000000000008152600401620024449062005580565b60405180910390fd5b600060098481548110620024665762002465620055a2565b5b9060005260206000200160009054906101000a900473ffffffffffffffffffffffffffffffffffffffff16905060008190507fad79328e8502097ed263893551ce1580715cdee9ed2f17218107aee878968aab8284604051620024cb9291906200598c565b60405180910390a17f1db05274d7b173f25e528ebf8447c49a6996bdcfbf688a40d4036dee7871eb63828585604051620025089392919062005c7a565b60405180910390a18073ffffffffffffffffffffffffffffffffffffffff1663d0e30db0846040518263ffffffff1660e01b81526004016000604051808303818588803b1580156200255957600080fd5b505af11580156200256e573d6000803e3d6000fd5b50505050508073ffffffffffffffffffffffffffffffffffffffff16630465135b85856040518363ffffffff1660e01b8152600401620025b09291906200598c565b600060405180830381600087803b158015620025cb57600080fd5b505af1158015620025e0573d6000803e3d6000fd5b505050505050620025f062004546565b505050565b6200260033620042f9565b62002642576040517f08c379a000000000000000000000000000000000000000000000000000000000815260040162002639906200549c565b60405180910390fd5b6200264c620044f4565b600980549050831062002696576040517f08c379a00000000000000000000000000000000000000000000000000000000081526004016200268d9062005580565b60405180910390fd5b80600f6000828254620026aa919062005c30565b92505081905550600060098481548110620026ca57620026c9620055a2565b5b9060005260206000200160009054906101000a900473ffffffffffffffffffffffffffffffffffffffff169050600081905082601060008473ffffffffffffffffffffffffffffffffffffffff1673ffffffffffffffffffffffffffffffffffffffff16815260200190815260200160002060008673ffffffffffffffffffffffffffffffffffffffff1673ffffffffffffffffffffffffffffffffffffffff168152602001908152602001600020819055507f7ebd227aec7af07729b9e66c73844e84cc2231ed22de82cf40fb0f0d30973bea828585604051620027b29392919062005c7a565b60405180910390a18073ffffffffffffffffffffffffffffffffffffffff1663c172fd2b85856040518363ffffffff1660e01b8152600401620027f79291906200598c565b600060405180830381600087803b1580156200281257600080fd5b505af115801562002827573d6000803e3d6000fd5b5050505050506200283762004546565b505050565b6200284733620042f9565b62002889576040517f08c379a000000000000000000000000000000000000000000000000000000000815260040162002880906200549c565b60405180910390fd5b80600b60006101000a81548160ff0219169083151502179055507f698266bac0dd17f73bfb61ffdbea86c62b81140b1900f156ea66d7ecdaa3c5b881604051620028d49190620053be565b60405180910390a150565b6000600560009054906101000a900473ffffffffffffffffffffffffffffffffffffffff1673ffffffffffffffffffffffffffffffffffffffff1663146ca5316040518163ffffffff1660e01b8152600401602060405180830381865afa1580156200294f573d6000803e3d6000fd5b505050506040513d601f19601f82011682018060405250810190620029759190620055e8565b60f073__$035bc4cc642ca87902d9152945cf6ee29a$__63cc9f49c560156040518263ffffffff1660e01b8152600401620029b191906200596f565b606060405180830381865af4158015620029cf573d6000803e3d6000fd5b505050506040513d601f19601f82011682018060405250810190620029f5919062005b51565b6040015162002a05919062005b83565b1090508062002a4b576040517f08c379a000000000000000000000000000000000000000000000000000000000815260040162002a429062005c0e565b60405180910390fd5b7fc056f536ea217afbf0859cbb8ea7d2451fc6079ba2badbbae65cf342dda46fde60405160405180910390a16001600860146101000a81548160ff02191690831515021790555050565b600f5481565b62002aa633620042f9565b62002ae8576040517f08c379a000000000000000000000000000000000000000000000000000000000815260040162002adf906200549c565b60405180910390fd5b80600e600082825462002afc919062005c30565b9250508190555080600f600082825462002b17919062005c30565b925050819055507e3882de3df515a586842af2d5ae019e6bf58d7266712f58e79e761a4f5d91d48160405162002b4e9190620051c3565b60405180910390a150565b62002b6433620042f9565b62002ba6576040517f08c379a000000000000000000000000000000000000000000000000000000000815260040162002b9d906200549c565b60405180910390fd5b62002bb0620044f4565b62002bbc8282620046a1565b62002bc662004546565b5050565b62002bd533620042f9565b62002c17576040517f08c379a000000000000000000000000000000000000000000000000000000000815260040162002c0e906200549c565b60405180910390fd5b62002c21620044f4565b600980549050831062002c6b576040517f08c379a000000000000000000000000000000000000000000000000000000000815260040162002c629062005580565b60405180910390fd5b80600e600082825462002c7f919062005c30565b9250508190555060006009848154811062002c9f5762002c9e620055a2565b5b9060005260206000200160009054906101000a900473ffffffffffffffffffffffffffffffffffffffff1690507f1db05274d7b173f25e528ebf8447c49a6996bdcfbf688a40d4036dee7871eb6381848460405162002d019392919062005c7a565b60405180910390a18073ffffffffffffffffffffffffffffffffffffffff16630465135b84846040518363ffffffff1660e01b815260040162002d469291906200598c565b600060405180830381600087803b15801562002d6157600080fd5b505af115801562002d76573d6000803e3d6000fd5b505050505062002d8562004546565b505050565b600c5481565b600160009054906101000a900473ffffffffffffffffffffffffffffffffffffffff1681565b60158060010154908060020154905082565b606481565b600e5481565b600062002de033620042f9565b62002e22576040517f08c379a000000000000000000000000000000000000000000000000000000000815260040162002e19906200549c565b60405180910390fd5b62002e2c62004550565b905090565b600860149054906101000a900460ff1681565b62002e4e620044f4565b600080600090505b828110156200316a5773__$035bc4cc642ca87902d9152945cf6ee29a$__633fa5af8460156040518263ffffffff1660e01b815260040162002e9991906200596f565b602060405180830381865af415801562002eb7573d6000803e3d6000fd5b505050506040513d601f19601f8201168201806040525081019062002edd919062005d7d565b6200316a57600062002ef1600e5462004843565b4762002efe91906200572d565b90508073__$035bc4cc642ca87902d9152945cf6ee29a$__63cc9f49c560156040518263ffffffff1660e01b815260040162002f3b91906200596f565b606060405180830381865af415801562002f59573d6000803e3d6000fd5b505050506040513d601f19601f8201168201806040525081019062002f7f919062005b51565b60200151111562002f9157506200316a565b600073__$035bc4cc642ca87902d9152945cf6ee29a$__634b1f21c160156040518263ffffffff1660e01b815260040162002fcd91906200596f565b606060405180830381865af415801562002feb573d6000803e3d6000fd5b505050506040513d601f19601f8201168201806040525081019062003011919062005b51565b905060008160000151905060008260200151905080601260008473ffffffffffffffffffffffffffffffffffffffff1673ffffffffffffffffffffffffffffffffffffffff16815260200190815260200160002060008282546200307691906200572d565b925050819055507f399c7d8ed969db91e965469b536981e99e9ed60f92b8a25fc231f0f4138bcd228282604051620030b09291906200598c565b60405180910390a1600860009054906101000a900473ffffffffffffffffffffffffffffffffffffffff1673ffffffffffffffffffffffffffffffffffffffff166336ebb32a82846040518363ffffffff1660e01b815260040162003116919062005116565b6000604051808303818588803b1580156200313057600080fd5b505af115801562003145573d6000803e3d6000fd5b5050505050808662003158919062005b83565b95508460010194505050505062002e56565b5080601160008282546200317f91906200572d565b92505081905550506200319162004546565b50565b6200319f33620042f9565b620031e1576040517f08c379a0000000000000000000000000000000000000000000000000000000008152600401620031d8906200549c565b60405180910390fd5b620031eb620044f4565b620031f7828262004861565b6200320162004546565b5050565b6200321033620042f9565b62003252576040517f08c379a000000000000000000000000000000000000000000000000000000000815260040162003249906200549c565b60405180910390fd5b806014819055507fbf17ef83a5cb1b1bd7f4b5699c51e28d950016132818a14cf8493d8b2f8ce6b7816040516200328a919062005144565b60405180910390a150565b60f081565b600360009054906101000a900473ffffffffffffffffffffffffffffffffffffffff1681565b620032ca620044f4565b600860149054906101000a900460ff166200331c576040517f08c379a0000000000000000000000000000000000000000000000000000000008152600401620033139062005dff565b60405180910390fd5b7f0c8f2e08c64bff94eb3de9c9609e0cee01cabbd930df12ed2ea446b2cbef678460405160405180910390a162003354828262004861565b6200335e62004546565b5050565b6200336c62004aea565b565b6200337933620042f9565b620033bb576040517f08c379a0000000000000000000000000000000000000000000000000000000008152600401620033b2906200549c565b60405180910390fd5b620033c5620044f4565b60098054905083106200340f576040517f08c379a0000000000000000000000000000000000000000000000000000000008152600401620034069062005580565b60405180910390fd5b80600e600082825462003423919062005c30565b92505081905550600060098481548110620034435762003442620055a2565b5b9060005260206000200160009054906101000a900473ffffffffffffffffffffffffffffffffffffffff1690507f012a195bd39bcf87cb43d15aebc16fdbc683d5fdfb884876ad7eb0b5e5d93062818484604051620034a59392919062005c7a565b60405180910390a18073ffffffffffffffffffffffffffffffffffffffff1663026e402b84846040518363ffffffff1660e01b8152600401620034ea9291906200598c565b600060405180830381600087803b1580156200350557600080fd5b505af11580156200351a573d6000803e3d6000fd5b50505050506200352962004546565b505050565b60135481565b6200353e620044f4565b6000341162003584576040517f08c379a00000000000000000000000000000000000000000000000000000000081526004016200357b9062005e71565b60405180910390fd5b6000670de0b6b3a7640000600d54346200359f919062005e93565b620035ab919062005f0d565b905060135481600760009054906101000a900473ffffffffffffffffffffffffffffffffffffffff1673ffffffffffffffffffffffffffffffffffffffff166318160ddd6040518163ffffffff1660e01b8152600401602060405180830381865afa1580156200361f573d6000803e3d6000fd5b505050506040513d601f19601f82011682018060405250810190620036459190620055e8565b62003651919062005b83565b111562003695576040517f08c379a00000000000000000000000000000000000000000000000000000000081526004016200368c9062005f95565b60405180910390fd5b60145481600760009054906101000a900473ffffffffffffffffffffffffffffffffffffffff1673ffffffffffffffffffffffffffffffffffffffff166370a08231336040518263ffffffff1660e01b8152600401620036f6919062005116565b602060405180830381865afa15801562003714573d6000803e3d6000fd5b505050506040513d601f19601f820116820180604052508101906200373a9190620055e8565b62003746919062005b83565b11156200378a576040517f08c379a0000000000000000000000000000000000000000000000000000000008152600401620037819062006007565b60405180910390fd5b34600e60008282546200379e9190620059b9565b925050819055507f24b239a832dd9a782b265a1ccb4ce824f1e14accdece1ae7298309e04b4b5ff0333483604051620037da9392919062006029565b60405180910390a1600760009054906101000a900473ffffffffffffffffffffffffffffffffffffffff1673ffffffffffffffffffffffffffffffffffffffff166321ca423633836040518363ffffffff1660e01b8152600401620038419291906200598c565b600060405180830381600087803b1580156200385c57600080fd5b505af115801562003871573d6000803e3d6000fd5b50505050506200388062004546565b565b6200388d33620042f9565b620038cf576040517f08c379a0000000000000000000000000000000000000000000000000000000008152600401620038c6906200549c565b60405180910390fd5b620038d9620044f4565b600980549050821062003923576040517f08c379a00000000000000000000000000000000000000000000000000000000081526004016200391a9062005580565b60405180910390fd5b6000600983815481106200393c576200393b620055a2565b5b9060005260206000200160009054906101000a900473ffffffffffffffffffffffffffffffffffffffff1690508073ffffffffffffffffffffffffffffffffffffffff166313a5f393836040518263ffffffff1660e01b8152600401620039a4919062005116565b600060405180830381600087803b158015620039bf57600080fd5b505af1158015620039d4573d6000803e3d6000fd5b5050505050620039e362004546565b5050565b600a5481565b60115481565b6000600980549050905090565b62003a0b33620042f9565b62003a4d576040517f08c379a000000000000000000000000000000000000000000000000000000000815260040162003a44906200549c565b60405180910390fd5b80600e600082825462003a61919062005c30565b925050819055507f9081814d5cbd09f04619ab13c8f2e59e257247580533d397bb4af5f3e90b2efe8160405162003a99919062005144565b60405180910390a150565b62003aaf33620042f9565b62003af1576040517f08c379a000000000000000000000000000000000000000000000000000000000815260040162003ae8906200549c565b60405180910390fd5b7ff42830783c975a272a1f3ccbe46787fd3112afa15719f8f4dc1e19c27fb400883460405162003b22919062005144565b60405180910390a134600e600082825462003b3e9190620059b9565b92505081905550565b62003b5233620042f9565b62003b94576040517f08c379a000000000000000000000000000000000000000000000000000000000815260040162003b8b906200549c565b60405180910390fd5b62003b9e620044f4565b600980549050841062003be8576040517f08c379a000000000000000000000000000000000000000000000000000000000815260040162003bdf9062005580565b60405180910390fd5b81600e600082825462003bfc919062005c30565b9250508190555060006009858154811062003c1c5762003c1b620055a2565b5b9060005260206000200160009054906101000a900473ffffffffffffffffffffffffffffffffffffffff16905060008190507fad79328e8502097ed263893551ce1580715cdee9ed2f17218107aee878968aab828560405162003c819291906200598c565b60405180910390a17f51be0e166090283a4eb1ba4ce54022f6bc0c780398b49da4ec3fd79350d67b7182868660405162003cbe9392919062005c7a565b60405180910390a18073ffffffffffffffffffffffffffffffffffffffff1663d0e30db0856040518263ffffffff1660e01b81526004016000604051808303818588803b15801562003d0f57600080fd5b505af115801562003d24573d6000803e3d6000fd5b50505050508073ffffffffffffffffffffffffffffffffffffffff1663fb79716f8686866040518463ffffffff1660e01b815260040162003d689392919062005cb7565b600060405180830381600087803b15801562003d8357600080fd5b505af115801562003d98573d6000803e3d6000fd5b50505050505062003da862004546565b50505050565b62003db8620044f4565b6000811162003dfe576040517f08c379a000000000000000000000000000000000000000000000000000000000815260040162003df590620060b6565b60405180910390fd5b80600760009054906101000a900473ffffffffffffffffffffffffffffffffffffffff1673ffffffffffffffffffffffffffffffffffffffff166370a08231336040518263ffffffff1660e01b815260040162003e5c919062005116565b602060405180830381865afa15801562003e7a573d6000803e3d6000fd5b505050506040513d601f19601f8201168201806040525081019062003ea09190620055e8565b101562003ee4576040517f08c379a000000000000000000000000000000000000000000000000000000000815260040162003edb9062006128565b60405180910390fd5b6000600560009054906101000a900473ffffffffffffffffffffffffffffffffffffffff1673ffffffffffffffffffffffffffffffffffffffff1663146ca5316040518163ffffffff1660e01b8152600401602060405180830381865afa15801562003f54573d6000803e3d6000fd5b505050506040513d601f19601f8201168201806040525081019062003f7a9190620055e8565b9050600b60009054906101000a900460ff1615801562003f9b5750600a5481115b1562003fac5762003fab62004aea565b5b6000670de0b6b3a7640000600c548462003fc7919062005e93565b62003fd3919062005f0d565b9050600060405180606001604052803373ffffffffffffffffffffffffffffffffffffffff16815260200183815260200184815250905073__$035bc4cc642ca87902d9152945cf6ee29a$__63f05645926015836040518363ffffffff1660e01b815260040162004046929190620061b4565b60006040518083038186803b1580156200405f57600080fd5b505af415801562004074573d6000803e3d6000fd5b5050505081600f60008282546200408c9190620059b9565b925050819055508160116000828254620040a7919062005b83565b9250508190555081601260003373ffffffffffffffffffffffffffffffffffffffff1673ffffffffffffffffffffffffffffffffffffffff1681526020019081526020016000206000828254620040ff919062005b83565b925050819055507fa20a5b54e3c471de60769b9a06f5afe0437dcaf8f40d9b24da5e92bc8300b89c3383866040516200413b9392919062006029565b60405180910390a1600760009054906101000a900473ffffffffffffffffffffffffffffffffffffffff1673ffffffffffffffffffffffffffffffffffffffff1663365342ca33866040518363ffffffff1660e01b8152600401620041a29291906200598c565b600060405180830381600087803b158015620041bd57600080fd5b505af1158015620041d2573d6000803e3d6000fd5b50505050505050620041e362004546565b50565b60098181548110620041f757600080fd5b906000526020600020016000915054906101000a900473ffffffffffffffffffffffffffffffffffffffff1681565b62004230620044f4565b600860149054906101000a900460ff1662004282576040517f08c379a0000000000000000000000000000000000000000000000000000000008152600401620042799062005dff565b60405180910390fd5b7fabc23894351abc161bc30aa8a86c56adda49ad500df467bdaf77dad4deba78cc60405160405180910390a1620042ba8282620046a1565b620042c462004546565b5050565b60145481565b60126020528060005260406000206000915090505481565b600b60009054906101000a900460ff1681565b6000600460009054906101000a900473ffffffffffffffffffffffffffffffffffffffff1673ffffffffffffffffffffffffffffffffffffffff168273ffffffffffffffffffffffffffffffffffffffff1614806200441f5750600660009054906101000a900473ffffffffffffffffffffffffffffffffffffffff1673ffffffffffffffffffffffffffffffffffffffff1663e26d38ed600460009054906101000a900473ffffffffffffffffffffffffffffffffffffffff1684600260006040518563ffffffff1660e01b8152600401620043da9493929190620062be565b602060405180830381865afa158015620043f8573d6000803e3d6000fd5b505050506040513d601f19601f820116820180604052508101906200441e919062005d7d565b5b9050919050565b600080600980549050905060005b81811015620044c9578373ffffffffffffffffffffffffffffffffffffffff16600982815481106200446b576200446a620055a2565b5b9060005260206000200160009054906101000a900473ffffffffffffffffffffffffffffffffffffffff1673ffffffffffffffffffffffffffffffffffffffff1603620044bd578092505050620044ef565b80600101905062004434565b507fffffffffffffffffffffffffffffffffffffffffffffffffffffffffffffffff9150505b919050565b6002600054036200453c576040517f08c379a000000000000000000000000000000000000000000000000000000000815260040162004533906200635b565b60405180910390fd5b6002600081905550565b6001600081905550565b60006064600980549050106200459d576040517f08c379a00000000000000000000000000000000000000000000000000000000081526004016200459490620063cd565b60405180910390fd5b6000600160009054906101000a900473ffffffffffffffffffffffffffffffffffffffff1630604051620045d19062004e68565b620045de929190620063ef565b604051809103906000f080158015620045fb573d6000803e3d6000fd5b5090506009819080600181540180825580915050600190039060005260206000200160009091909190916101000a81548173ffffffffffffffffffffffffffffffffffffffff021916908373ffffffffffffffffffffffffffffffffffffffff1602179055507fc922be3e6c8c2eda387eaf93bb6e2cc634c649a13aa14c9f218577308b7632248160405162004692919062005116565b60405180910390a18091505090565b6009805490508210620046eb576040517f08c379a0000000000000000000000000000000000000000000000000000000008152600401620046e29062005580565b60405180910390fd5b600060098381548110620047045762004703620055a2565b5b9060005260206000200160009054906101000a900473ffffffffffffffffffffffffffffffffffffffff169050818173ffffffffffffffffffffffffffffffffffffffff163110156200478e576040517f08c379a000000000000000000000000000000000000000000000000000000000815260040162004785906200646c565b60405180910390fd5b60008190507fef0b94a4a9d812bc692c993a2a2a21d7fa4a95eba5dad7a4a4f61cf1d4d7a8988284604051620047c69291906200598c565b60405180910390a18073ffffffffffffffffffffffffffffffffffffffff16632e1a7d4d846040518263ffffffff1660e01b815260040162004809919062005144565b600060405180830381600087803b1580156200482457600080fd5b505af115801562004839573d6000803e3d6000fd5b5050505050505050565b6000808212156200485857600090506200485c565b8190505b919050565b6009805490508210620048ab576040517f08c379a0000000000000000000000000000000000000000000000000000000008152600401620048a29062005580565b60405180910390fd5b600060098381548110620048c457620048c3620055a2565b5b9060005260206000200160009054906101000a900473ffffffffffffffffffffffffffffffffffffffff1690506000600560009054906101000a900473ffffffffffffffffffffffffffffffffffffffff1673ffffffffffffffffffffffffffffffffffffffff1663a73e51bc83856040518363ffffffff1660e01b81526004016200495292919062005a04565b602060405180830381865afa15801562004970573d6000803e3d6000fd5b505050506040513d601f19601f82011682018060405250810190620049969190620055e8565b905080600f6000828254620049ac919062005c30565b92505081905550600082905081601060008573ffffffffffffffffffffffffffffffffffffffff1673ffffffffffffffffffffffffffffffffffffffff16815260200190815260200160002060008673ffffffffffffffffffffffffffffffffffffffff1673ffffffffffffffffffffffffffffffffffffffff168152602001908152602001600020819055507f35347cb920daa86c61efc82c0004fc80124d9940ba2b24859c18a1a9f8e4cb39838560405162004a6c92919062005a04565b60405180910390a18073ffffffffffffffffffffffffffffffffffffffff16631a1c740c856040518263ffffffff1660e01b815260040162004aaf919062005116565b600060405180830381600087803b15801562004aca57600080fd5b505af115801562004adf573d6000803e3d6000fd5b505050505050505050565b600560009054906101000a900473ffffffffffffffffffffffffffffffffffffffff1673ffffffffffffffffffffffffffffffffffffffff1663146ca5316040518163ffffffff1660e01b8152600401602060405180830381865afa15801562004b58573d6000803e3d6000fd5b505050506040513d601f19601f8201168201806040525081019062004b7e9190620055e8565b600a81905550600062004b9062004cfa565b90506000600760009054906101000a900473ffffffffffffffffffffffffffffffffffffffff1673ffffffffffffffffffffffffffffffffffffffff166318160ddd6040518163ffffffff1660e01b8152600401602060405180830381865afa15801562004c02573d6000803e3d6000fd5b505050506040513d601f19601f8201168201806040525081019062004c289190620055e8565b9050600082148062004c3a5750600081145b1562004c6457670de0b6b3a7640000600c81905550670de0b6b3a7640000600d8190555062004cb7565b80670de0b6b3a76400008362004c7b919062005e93565b62004c87919062005f0d565b600c8190555081670de0b6b3a76400008262004ca4919062005e93565b62004cb0919062005f0d565b600d819055505b7f11c6bf55864ff83827df712625d7a80e5583eef0264921025e7cd22003a21511600c54600d5460405162004cee9291906200648e565b60405180910390a15050565b6000806000600980549050905060005b8181101562004e3d5760006009828154811062004d2c5762004d2b620055a2565b5b9060005260206000200160009054906101000a900473ffffffffffffffffffffffffffffffffffffffff1690508073ffffffffffffffffffffffffffffffffffffffff16318462004d7e919062005b83565b9350600560009054906101000a900473ffffffffffffffffffffffffffffffffffffffff1673ffffffffffffffffffffffffffffffffffffffff1663e6861713826040518263ffffffff1660e01b815260040162004ddd919062005116565b602060405180830381865afa15801562004dfb573d6000803e3d6000fd5b505050506040513d601f19601f8201168201806040525081019062004e219190620055e8565b8462004e2e919062005b83565b93508160010191505062004d0a565b506000601154834762004e51919062005b83565b62004e5d91906200572d565b905080935050505090565b611a7f80620064bc83390190565b6000604051905090565b600080fd5b6000819050919050565b62004e9a8162004e85565b811462004ea657600080fd5b50565b60008135905062004eba8162004e8f565b92915050565b60006020828403121562004ed95762004ed862004e80565b5b600062004ee98482850162004ea9565b91505092915050565b600073ffffffffffffffffffffffffffffffffffffffff82169050919050565b600062004f1f8262004ef2565b9050919050565b62004f318162004f12565b811462004f3d57600080fd5b50565b60008135905062004f518162004f26565b92915050565b600060ff82169050919050565b62004f6f8162004f57565b811462004f7b57600080fd5b50565b60008135905062004f8f8162004f64565b92915050565b60008060006060848603121562004fb15762004fb062004e80565b5b600062004fc18682870162004ea9565b935050602062004fd48682870162004f40565b925050604062004fe78682870162004f7e565b9150509250925092565b600062004ffe8262004ef2565b9050919050565b620050108162004ff1565b81146200501c57600080fd5b50565b600081359050620050308162005005565b92915050565b600080600080600060a0868803121562005055576200505462004e80565b5b6000620050658882890162004f40565b9550506020620050788882890162004f40565b94505060406200508b8882890162004f40565b93505060606200509e8882890162004f40565b9250506080620050b1888289016200501f565b9150509295509295909350565b60008060408385031215620050d857620050d762004e80565b5b6000620050e88582860162004ea9565b9250506020620050fb8582860162004ea9565b9150509250929050565b620051108162004f12565b82525050565b60006020820190506200512d600083018462005105565b92915050565b6200513e8162004e85565b82525050565b60006020820190506200515b600083018462005133565b92915050565b600080604083850312156200517b576200517a62004e80565b5b60006200518b8582860162004ea9565b92505060206200519e8582860162004f40565b9150509250929050565b6000819050919050565b620051bd81620051a8565b82525050565b6000602082019050620051da6000830184620051b2565b92915050565b600080600060608486031215620051fc57620051fb62004e80565b5b60006200520c8682870162004ea9565b93505060206200521f8682870162004f40565b9250506040620052328682870162004ea9565b9150509250925092565b6000806000806080858703121562005259576200525862004e80565b5b6000620052698782880162004ea9565b94505060206200527c8782880162004f40565b93505060406200528f8782880162004ea9565b9250506060620052a28782880162004f7e565b91505092959194509250565b60008115159050919050565b620052c581620052ae565b8114620052d157600080fd5b50565b600081359050620052e581620052ba565b92915050565b60006020828403121562005304576200530362004e80565b5b60006200531484828501620052d4565b91505092915050565b6200532881620051a8565b81146200533457600080fd5b50565b60008135905062005348816200531d565b92915050565b60006020828403121562005367576200536662004e80565b5b6000620053778482850162005337565b91505092915050565b6000604082019050620053976000830185620051b2565b620053a66020830184620051b2565b9392505050565b620053b881620052ae565b82525050565b6000602082019050620053d56000830184620053ad565b92915050565b620053e68162004ff1565b82525050565b6000602082019050620054036000830184620053db565b92915050565b60006020828403121562005422576200542162004e80565b5b6000620054328482850162004f40565b91505092915050565b600082825260208201905092915050565b7f4e4f545f50524f58590000000000000000000000000000000000000000000000600082015250565b6000620054846009836200543b565b915062005491826200544c565b602082019050919050565b60006020820190508181036000830152620054b78162005475565b9050919050565b7f4d494e5f315f4c45444745520000000000000000000000000000000000000000600082015250565b6000620054f6600c836200543b565b91506200550382620054be565b602082019050919050565b600060208201905081810360008301526200552981620054e7565b9050919050565b7f494e565f494e4445580000000000000000000000000000000000000000000000600082015250565b6000620055686009836200543b565b9150620055758262005530565b602082019050919050565b600060208201905081810360008301526200559b8162005559565b9050919050565b7f4e487b7100000000000000000000000000000000000000000000000000000000600052603260045260246000fd5b600081519050620055e28162004e8f565b92915050565b60006020828403121562005601576200560062004e80565b5b60006200561184828501620055d1565b91505092915050565b7f44454c45474154494f4e5f4e4f545f5a45524f00000000000000000000000000600082015250565b6000620056526013836200543b565b91506200565f826200561a565b602082019050919050565b60006020820190508181036000830152620056858162005643565b9050919050565b7f42414c414e43455f4e4f545f5a45524f00000000000000000000000000000000600082015250565b6000620056c46010836200543b565b9150620056d1826200568c565b602082019050919050565b60006020820190508181036000830152620056f781620056b5565b9050919050565b7f4e487b7100000000000000000000000000000000000000000000000000000000600052601160045260246000fd5b60006200573a8262004e85565b9150620057478362004e85565b9250828203905081811115620057625762005761620056fe565b5b92915050565b7f4e487b7100000000000000000000000000000000000000000000000000000000600052603160045260246000fd5b7f4e4f545f4c454447455200000000000000000000000000000000000000000000600082015250565b6000620057cf600a836200543b565b9150620057dc8262005797565b602082019050919050565b600060208201905081810360008301526200580281620057c0565b9050919050565b620058148162004f57565b82525050565b600060608201905062005831600083018662005105565b62005840602083018562005105565b6200584f604083018462005809565b949350505050565b60006040820190506200586e600083018562005105565b6200587d602083018462005809565b9392505050565b7f414c52454144595f494e49540000000000000000000000000000000000000000600082015250565b6000620058bc600c836200543b565b9150620058c98262005884565b602082019050919050565b60006020820190508181036000830152620058ef81620058ad565b9050919050565b7f494e565f494e49545f4341504954414c00000000000000000000000000000000600082015250565b60006200592e6010836200543b565b91506200593b82620058f6565b602082019050919050565b6000602082019050818103600083015262005961816200591f565b9050919050565b8082525050565b600060208201905062005986600083018462005968565b92915050565b6000604082019050620059a3600083018562005105565b620059b2602083018462005133565b9392505050565b6000620059c682620051a8565b9150620059d383620051a8565b925082820190508281121560008312168382126000841215161715620059fe57620059fd620056fe565b5b92915050565b600060408201905062005a1b600083018562005105565b62005a2a602083018462005105565b9392505050565b600080fd5b6000601f19601f8301169050919050565b7f4e487b7100000000000000000000000000000000000000000000000000000000600052604160045260246000fd5b62005a818262005a36565b810181811067ffffffffffffffff8211171562005aa35762005aa262005a47565b5b80604052505050565b600062005ab862004e76565b905062005ac6828262005a76565b919050565b60008151905062005adc8162004f26565b92915050565b60006060828403121562005afb5762005afa62005a31565b5b62005b07606062005aac565b9050600062005b198482850162005acb565b600083015250602062005b2f84828501620055d1565b602083015250604062005b4584828501620055d1565b60408301525092915050565b60006060828403121562005b6a5762005b6962004e80565b5b600062005b7a8482850162005ae2565b91505092915050565b600062005b908262004e85565b915062005b9d8362004e85565b925082820190508082111562005bb85762005bb7620056fe565b5b92915050565b7f434f4e445f4e4f545f4d45540000000000000000000000000000000000000000600082015250565b600062005bf6600c836200543b565b915062005c038262005bbe565b602082019050919050565b6000602082019050818103600083015262005c298162005be7565b9050919050565b600062005c3d82620051a8565b915062005c4a83620051a8565b925082820390508181126000841216828213600085121516171562005c745762005c73620056fe565b5b92915050565b600060608201905062005c91600083018662005105565b62005ca0602083018562005105565b62005caf604083018462005133565b949350505050565b600060608201905062005cce600083018662005105565b62005cdd602083018562005133565b62005cec604083018462005809565b949350505050565b7f42454c4f575f535550504c590000000000000000000000000000000000000000600082015250565b600062005d2c600c836200543b565b915062005d398262005cf4565b602082019050919050565b6000602082019050818103600083015262005d5f8162005d1d565b9050919050565b60008151905062005d7781620052ba565b92915050565b60006020828403121562005d965762005d9562004e80565b5b600062005da68482850162005d66565b91505092915050565b7f4e4f5f4c49510000000000000000000000000000000000000000000000000000600082015250565b600062005de76006836200543b565b915062005df48262005daf565b602082019050919050565b6000602082019050818103600083015262005e1a8162005dd8565b9050919050565b7f5a45524f5f5041594d454e540000000000000000000000000000000000000000600082015250565b600062005e59600c836200543b565b915062005e668262005e21565b602082019050919050565b6000602082019050818103600083015262005e8c8162005e4a565b9050919050565b600062005ea08262004e85565b915062005ead8362004e85565b925082820262005ebd8162004e85565b9150828204841483151762005ed75762005ed6620056fe565b5b5092915050565b7f4e487b7100000000000000000000000000000000000000000000000000000000600052601260045260246000fd5b600062005f1a8262004e85565b915062005f278362004e85565b92508262005f3a5762005f3962005ede565b5b828204905092915050565b7f4d41585f535550504c5900000000000000000000000000000000000000000000600082015250565b600062005f7d600a836200543b565b915062005f8a8262005f45565b602082019050919050565b6000602082019050818103600083015262005fb08162005f6e565b9050919050565b7f4d41585f44454c45470000000000000000000000000000000000000000000000600082015250565b600062005fef6009836200543b565b915062005ffc8262005fb7565b602082019050919050565b60006020820190508181036000830152620060228162005fe0565b9050919050565b600060608201905062006040600083018662005105565b6200604f602083018562005133565b6200605e604083018462005133565b949350505050565b7f5a45524f5f414d4f554e54000000000000000000000000000000000000000000600082015250565b60006200609e600b836200543b565b9150620060ab8262006066565b602082019050919050565b60006020820190508181036000830152620060d1816200608f565b9050919050565b7f494e535f42414c414e4345000000000000000000000000000000000000000000600082015250565b600062006110600b836200543b565b91506200611d82620060d8565b602082019050919050565b60006020820190508181036000830152620061438162006101565b9050919050565b620061558162004f12565b82525050565b620061668162004e85565b82525050565b6060820160008201516200618460008501826200614a565b5060208201516200619960208501826200615b565b506040820151620061ae60408501826200615b565b50505050565b6000608082019050620061cb600083018562005968565b620061da60208301846200616c565b9392505050565b7f4e487b7100000000000000000000000000000000000000000000000000000000600052602160045260246000fd5b60088110620062245762006223620061e1565b5b50565b6000819050620062378262006210565b919050565b6000620062498262006227565b9050919050565b6200625b816200623c565b82525050565b6000819050919050565b600063ffffffff82169050919050565b6000819050919050565b6000620062a6620062a06200629a8462006261565b6200627b565b6200626b565b9050919050565b620062b88162006285565b82525050565b6000608082019050620062d5600083018762005105565b620062e4602083018662005105565b620062f3604083018562006250565b620063026060830184620062ad565b95945050505050565b7f5265656e7472616e637947756172643a207265656e7472616e742063616c6c00600082015250565b600062006343601f836200543b565b915062006350826200630b565b602082019050919050565b60006020820190508181036000830152620063768162006334565b9050919050565b7f4d41585f4c454447455253000000000000000000000000000000000000000000600082015250565b6000620063b5600b836200543b565b9150620063c2826200637d565b602082019050919050565b60006020820190508181036000830152620063e881620063a6565b9050919050565b600060408201905062006406600083018562005105565b620064156020830184620053db565b9392505050565b7f494e565f414d4f554e5400000000000000000000000000000000000000000000600082015250565b600062006454600a836200543b565b915062006461826200641c565b602082019050919050565b60006020820190508181036000830152620064878162006445565b9050919050565b6000604082019050620064a5600083018562005133565b620064b4602083018462005133565b939250505056fe60806040523480156200001157600080fd5b5060405162001a7f38038062001a7f8339818101604052810190620000379190620001d0565b806000806101000a81548173ffffffffffffffffffffffffffffffffffffffff021916908373ffffffffffffffffffffffffffffffffffffffff16021790555081600160006101000a81548173ffffffffffffffffffffffffffffffffffffffff021916908373ffffffffffffffffffffffffffffffffffffffff16021790555060008054906101000a900473ffffffffffffffffffffffffffffffffffffffff16600260006101000a81548173ffffffffffffffffffffffffffffffffffffffff021916908373ffffffffffffffffffffffffffffffffffffffff160217905550505062000217565b600080fd5b600073ffffffffffffffffffffffffffffffffffffffff82169050919050565b6000620001538262000126565b9050919050565b620001658162000146565b81146200017157600080fd5b50565b60008151905062000185816200015a565b92915050565b6000620001988262000126565b9050919050565b620001aa816200018b565b8114620001b657600080fd5b50565b600081519050620001ca816200019f565b92915050565b60008060408385031215620001ea57620001e962000121565b5b6000620001fa8582860162000174565b92505060206200020d85828601620001b9565b9150509250929050565b61185880620002276000396000f3fe6080604052600436106100c25760003560e01c80632e1a7d4d1161007f578063c172fd2b11610059578063c172fd2b14610250578063c90eee8314610279578063d0e30db0146102a2578063fb79716f146102ac576100c2565b80632e1a7d4d146101d35780637258b5ef146101fc5780638254388714610225576100c2565b8063026e402b146100c75780630465135b146100f057806312065fe01461011957806313a5f3931461014457806315c4642e1461016d5780631a1c740c146101aa575b600080fd5b3480156100d357600080fd5b506100ee60048036038101906100e991906113b9565b6102d5565b005b3480156100fc57600080fd5b50610117600480360381019061011291906113b9565b610530565b005b34801561012557600080fd5b5061012e610651565b60405161013b9190611408565b60405180910390f35b34801561015057600080fd5b5061016b60048036038101906101669190611423565b610659565b005b34801561017957600080fd5b50610194600480360381019061018f9190611423565b610779565b6040516101a19190611408565b60405180910390f35b3480156101b657600080fd5b506101d160048036038101906101cc9190611423565b610820565b005b3480156101df57600080fd5b506101fa60048036038101906101f59190611450565b61093e565b005b34801561020857600080fd5b50610223600480360381019061021e91906114b6565b610a52565b005b34801561023157600080fd5b5061023a610cb3565b6040516102479190611408565b60405180910390f35b34801561025c57600080fd5b50610277600480360381019061027291906113b9565b610d56565b005b34801561028557600080fd5b506102a0600480360381019061029b9190611423565b610e77565b005b6102aa610f95565b005b3480156102b857600080fd5b506102d360048036038101906102ce91906114f6565b611025565b005b60008054906101000a900473ffffffffffffffffffffffffffffffffffffffff1673ffffffffffffffffffffffffffffffffffffffff163373ffffffffffffffffffffffffffffffffffffffff1614610363576040517f08c379a000000000000000000000000000000000000000000000000000000000815260040161035a906115a6565b60405180910390fd5b600160009054906101000a900473ffffffffffffffffffffffffffffffffffffffff1673ffffffffffffffffffffffffffffffffffffffff1663829f5ee38383600160009054906101000a900473ffffffffffffffffffffffffffffffffffffffff1673ffffffffffffffffffffffffffffffffffffffff16632ec087eb876040518263ffffffff1660e01b81526004016103fe91906115d5565b602060405180830381865afa15801561041b573d6000803e3d6000fd5b505050506040513d601f19601f8201168201806040525081019061043f919061162c565b600160009054906101000a900473ffffffffffffffffffffffffffffffffffffffff1673ffffffffffffffffffffffffffffffffffffffff1663067ec822306040518263ffffffff1660e01b815260040161049a91906115d5565b602060405180830381865afa1580156104b7573d6000803e3d6000fd5b505050506040513d601f19601f820116820180604052508101906104db919061166e565b6040518563ffffffff1660e01b81526004016104fa94939291906116d6565b600060405180830381600087803b15801561051457600080fd5b505af1158015610528573d6000803e3d6000fd5b505050505050565b60008054906101000a900473ffffffffffffffffffffffffffffffffffffffff1673ffffffffffffffffffffffffffffffffffffffff163373ffffffffffffffffffffffffffffffffffffffff16146105be576040517f08c379a00000000000000000000000000000000000000000000000000000000081526004016105b5906115a6565b60405180910390fd5b600160009054906101000a900473ffffffffffffffffffffffffffffffffffffffff1673ffffffffffffffffffffffffffffffffffffffff16630465135b83836040518363ffffffff1660e01b815260040161061b92919061171b565b600060405180830381600087803b15801561063557600080fd5b505af1158015610649573d6000803e3d6000fd5b505050505050565b600047905090565b60008054906101000a900473ffffffffffffffffffffffffffffffffffffffff1673ffffffffffffffffffffffffffffffffffffffff163373ffffffffffffffffffffffffffffffffffffffff16146106e7576040517f08c379a00000000000000000000000000000000000000000000000000000000081526004016106de906115a6565b60405180910390fd5b600160009054906101000a900473ffffffffffffffffffffffffffffffffffffffff1673ffffffffffffffffffffffffffffffffffffffff1663e98c8abe30836040518363ffffffff1660e01b8152600401610744929190611744565b600060405180830381600087803b15801561075e57600080fd5b505af1158015610772573d6000803e3d6000fd5b5050505050565b6000600160009054906101000a900473ffffffffffffffffffffffffffffffffffffffff1673ffffffffffffffffffffffffffffffffffffffff1663a73e51bc30846040518363ffffffff1660e01b81526004016107d8929190611744565b602060405180830381865afa1580156107f5573d6000803e3d6000fd5b505050506040513d601f19601f82011682018060405250810190610819919061166e565b9050919050565b60008054906101000a900473ffffffffffffffffffffffffffffffffffffffff1673ffffffffffffffffffffffffffffffffffffffff163373ffffffffffffffffffffffffffffffffffffffff16146108ae576040517f08c379a00000000000000000000000000000000000000000000000000000000081526004016108a5906115a6565b60405180910390fd5b600160009054906101000a900473ffffffffffffffffffffffffffffffffffffffff1673ffffffffffffffffffffffffffffffffffffffff16631a1c740c826040518263ffffffff1660e01b815260040161090991906115d5565b600060405180830381600087803b15801561092357600080fd5b505af1158015610937573d6000803e3d6000fd5b5050505050565b60008054906101000a900473ffffffffffffffffffffffffffffffffffffffff1673ffffffffffffffffffffffffffffffffffffffff163373ffffffffffffffffffffffffffffffffffffffff16146109cc576040517f08c379a00000000000000000000000000000000000000000000000000000000081526004016109c3906115a6565b60405180910390fd5b600260009054906101000a900473ffffffffffffffffffffffffffffffffffffffff1673ffffffffffffffffffffffffffffffffffffffff16630f09d6e9826040518263ffffffff1660e01b81526004016000604051808303818588803b158015610a3657600080fd5b505af1158015610a4a573d6000803e3d6000fd5b505050505050565b60008054906101000a900473ffffffffffffffffffffffffffffffffffffffff1673ffffffffffffffffffffffffffffffffffffffff163373ffffffffffffffffffffffffffffffffffffffff1614610ae0576040517f08c379a0000000000000000000000000000000000000000000000000000000008152600401610ad7906115a6565b60405180910390fd5b6000600160009054906101000a900473ffffffffffffffffffffffffffffffffffffffff1673ffffffffffffffffffffffffffffffffffffffff1663905f0806846040518263ffffffff1660e01b8152600401610b3d91906115d5565b602060405180830381865afa158015610b5a573d6000803e3d6000fd5b505050506040513d601f19601f82011682018060405250810190610b7e919061162c565b9050600160009054906101000a900473ffffffffffffffffffffffffffffffffffffffff1673ffffffffffffffffffffffffffffffffffffffff1663faa1786f848484600160009054906101000a900473ffffffffffffffffffffffffffffffffffffffff1673ffffffffffffffffffffffffffffffffffffffff1663067ec822306040518263ffffffff1660e01b8152600401610c1c91906115d5565b602060405180830381865afa158015610c39573d6000803e3d6000fd5b505050506040513d601f19601f82011682018060405250810190610c5d919061166e565b6040518563ffffffff1660e01b8152600401610c7c949392919061177c565b600060405180830381600087803b158015610c9657600080fd5b505af1158015610caa573d6000803e3d6000fd5b50505050505050565b6000600160009054906101000a900473ffffffffffffffffffffffffffffffffffffffff1673ffffffffffffffffffffffffffffffffffffffff1663e6861713306040518263ffffffff1660e01b8152600401610d1091906115d5565b602060405180830381865afa158015610d2d573d6000803e3d6000fd5b505050506040513d601f19601f82011682018060405250810190610d51919061166e565b905090565b60008054906101000a900473ffffffffffffffffffffffffffffffffffffffff1673ffffffffffffffffffffffffffffffffffffffff163373ffffffffffffffffffffffffffffffffffffffff1614610de4576040517f08c379a0000000000000000000000000000000000000000000000000000000008152600401610ddb906115a6565b60405180910390fd5b600160009054906101000a900473ffffffffffffffffffffffffffffffffffffffff1673ffffffffffffffffffffffffffffffffffffffff1663c172fd2b83836040518363ffffffff1660e01b8152600401610e4192919061171b565b600060405180830381600087803b158015610e5b57600080fd5b505af1158015610e6f573d6000803e3d6000fd5b505050505050565b60008054906101000a900473ffffffffffffffffffffffffffffffffffffffff1673ffffffffffffffffffffffffffffffffffffffff163373ffffffffffffffffffffffffffffffffffffffff1614610f05576040517f08c379a0000000000000000000000000000000000000000000000000000000008152600401610efc906115a6565b60405180910390fd5b600160009054906101000a900473ffffffffffffffffffffffffffffffffffffffff1673ffffffffffffffffffffffffffffffffffffffff1663c90eee83826040518263ffffffff1660e01b8152600401610f6091906115d5565b600060405180830381600087803b158015610f7a57600080fd5b505af1158015610f8e573d6000803e3d6000fd5b5050505050565b60008054906101000a900473ffffffffffffffffffffffffffffffffffffffff1673ffffffffffffffffffffffffffffffffffffffff163373ffffffffffffffffffffffffffffffffffffffff1614611023576040517f08c379a000000000000000000000000000000000000000000000000000000000815260040161101a906115a6565b60405180910390fd5b565b60008054906101000a900473ffffffffffffffffffffffffffffffffffffffff1673ffffffffffffffffffffffffffffffffffffffff163373ffffffffffffffffffffffffffffffffffffffff16146110b3576040517f08c379a00000000000000000000000000000000000000000000000000000000081526004016110aa906115a6565b60405180910390fd5b600160009054906101000a900473ffffffffffffffffffffffffffffffffffffffff1673ffffffffffffffffffffffffffffffffffffffff16634b8bc9bf848484600160009054906101000a900473ffffffffffffffffffffffffffffffffffffffff1673ffffffffffffffffffffffffffffffffffffffff16632ec087eb896040518263ffffffff1660e01b815260040161114f91906115d5565b602060405180830381865afa15801561116c573d6000803e3d6000fd5b505050506040513d601f19601f82011682018060405250810190611190919061162c565b600160009054906101000a900473ffffffffffffffffffffffffffffffffffffffff1673ffffffffffffffffffffffffffffffffffffffff1663905f08068a6040518263ffffffff1660e01b81526004016111eb91906115d5565b602060405180830381865afa158015611208573d6000803e3d6000fd5b505050506040513d601f19601f8201168201806040525081019061122c919061162c565b600160009054906101000a900473ffffffffffffffffffffffffffffffffffffffff1673ffffffffffffffffffffffffffffffffffffffff1663067ec822306040518263ffffffff1660e01b815260040161128791906115d5565b602060405180830381865afa1580156112a4573d6000803e3d6000fd5b505050506040513d601f19601f820116820180604052508101906112c8919061166e565b6040518763ffffffff1660e01b81526004016112e9969594939291906117c1565b600060405180830381600087803b15801561130357600080fd5b505af1158015611317573d6000803e3d6000fd5b50505050505050565b600080fd5b600073ffffffffffffffffffffffffffffffffffffffff82169050919050565b600061135082611325565b9050919050565b61136081611345565b811461136b57600080fd5b50565b60008135905061137d81611357565b92915050565b6000819050919050565b61139681611383565b81146113a157600080fd5b50565b6000813590506113b38161138d565b92915050565b600080604083850312156113d0576113cf611320565b5b60006113de8582860161136e565b92505060206113ef858286016113a4565b9150509250929050565b61140281611383565b82525050565b600060208201905061141d60008301846113f9565b92915050565b60006020828403121561143957611438611320565b5b60006114478482850161136e565b91505092915050565b60006020828403121561146657611465611320565b5b6000611474848285016113a4565b91505092915050565b600060ff82169050919050565b6114938161147d565b811461149e57600080fd5b50565b6000813590506114b08161148a565b92915050565b600080604083850312156114cd576114cc611320565b5b60006114db8582860161136e565b92505060206114ec858286016114a1565b9150509250929050565b60008060006060848603121561150f5761150e611320565b5b600061151d8682870161136e565b935050602061152e868287016113a4565b925050604061153f868287016114a1565b9150509250925092565b600082825260208201905092915050565b7f4e4f545f504f4f4c000000000000000000000000000000000000000000000000600082015250565b6000611590600883611549565b915061159b8261155a565b602082019050919050565b600060208201905081810360008301526115bf81611583565b9050919050565b6115cf81611345565b82525050565b60006020820190506115ea60008301846115c6565b92915050565b600063ffffffff82169050919050565b611609816115f0565b811461161457600080fd5b50565b60008151905061162681611600565b92915050565b60006020828403121561164257611641611320565b5b600061165084828501611617565b91505092915050565b6000815190506116688161138d565b92915050565b60006020828403121561168457611683611320565b5b600061169284828501611659565b91505092915050565b6000819050919050565b60006116c06116bb6116b6846115f0565b61169b565b611383565b9050919050565b6116d0816116a5565b82525050565b60006080820190506116eb60008301876115c6565b6116f860208301866113f9565b61170560408301856116c7565b61171260608301846113f9565b95945050505050565b600060408201905061173060008301856115c6565b61173d60208301846113f9565b9392505050565b600060408201905061175960008301856115c6565b61176660208301846115c6565b9392505050565b6117768161147d565b82525050565b600060808201905061179160008301876115c6565b61179e602083018661176d565b6117ab60408301856116c7565b6117b860608301846113f9565b95945050505050565b600060c0820190506117d660008301896115c6565b6117e360208301886113f9565b6117f0604083018761176d565b6117fd60608301866116c7565b61180a60808301856116c7565b61181760a08301846113f9565b97965050505050505056fea2646970667358221220b693e64d8d1b84761652113027863c50a0f75221294d78b18ce9855162c1ddbf64736f6c63430008110033a264697066735822122077af6531ed0f3a4639b5800e84134fcde00943c48617a50122bd96705f912cad64736f6c63430008110033",
			"opcodes": "PUSH1 0x80 PUSH1 0x40 MSTORE PUSH8 0xDE0B6B3A7640000 PUSH1 0xC SSTORE PUSH8 0xDE0B6B3A7640000 PUSH1 0xD SSTORE PUSH10 0xD3C21BCECCEDA1000000 PUSH1 0x13 SSTORE PUSH10 0xA968163F0A57B400000 PUSH1 0x14 SSTORE CALLVALUE DUP1 ISZERO PUSH2 0x44 JUMPI PUSH1 0x0 DUP1 REVERT JUMPDEST POP PUSH1 0x1 PUSH1 0x0 DUP2 SWAP1 SSTORE POP PUSH2 0x7F70 DUP1 PUSH3 0x5D PUSH1 0x0 CODECOPY PUSH1 0x0 RETURN INVALID PUSH1 0x80 PUSH1 0x40 MSTORE PUSH1 0x4 CALLDATASIZE LT PUSH3 0x34A JUMPI PUSH1 0x0 CALLDATALOAD PUSH1 0xE0 SHR DUP1 PUSH4 0x824BE2F5 GT PUSH3 0x1B7 JUMPI DUP1 PUSH4 0xC1DD0476 GT PUSH3 0xF1 JUMPI DUP1 PUSH4 0xE425F917 GT PUSH3 0xA3 JUMPI DUP1 PUSH4 0xEA98ECAC GT PUSH3 0x79 JUMPI DUP1 PUSH4 0xEA98ECAC EQ PUSH3 0xB7A JUMPI DUP1 PUSH4 0xF64E6265 EQ PUSH3 0xBA8 JUMPI DUP1 PUSH4 0xFA8D0751 EQ PUSH3 0xBD8 JUMPI DUP1 PUSH4 0xFB995A8F EQ PUSH3 0xC1C JUMPI PUSH3 0x34A JUMP JUMPDEST DUP1 PUSH4 0xE425F917 EQ PUSH3 0xADA JUMPI DUP1 PUSH4 0xE8155592 EQ PUSH3 0xB08 JUMPI DUP1 PUSH4 0xE9789190 EQ PUSH3 0xB36 JUMPI PUSH3 0x34A JUMP JUMPDEST DUP1 PUSH4 0xC1DD0476 EQ PUSH3 0x9E2 JUMPI DUP1 PUSH4 0xC63F0AD7 EQ PUSH3 0xA10 JUMPI DUP1 PUSH4 0xC788C255 EQ PUSH3 0xA40 JUMPI DUP1 PUSH4 0xD4A0F555 EQ PUSH3 0xA70 JUMPI DUP1 PUSH4 0xD62E551D EQ PUSH3 0xAA0 JUMPI DUP1 PUSH4 0xDB3B157E EQ PUSH3 0xACE JUMPI PUSH3 0x34A JUMP JUMPDEST DUP1 PUSH4 0x90891F39 GT PUSH3 0x169 JUMPI DUP1 PUSH4 0xAF14052C GT PUSH3 0x13F JUMPI DUP1 PUSH4 0xAF14052C EQ PUSH3 0x95E JUMPI DUP1 PUSH4 0xB2065EDB EQ PUSH3 0x978 JUMPI DUP1 PUSH4 0xB74FDF9E EQ PUSH3 0x9A6 JUMPI DUP1 PUSH4 0xC045ADD7 EQ PUSH3 0x9D6 JUMPI PUSH3 0x34A JUMP JUMPDEST DUP1 PUSH4 0x90891F39 EQ PUSH3 0x8D0 JUMPI DUP1 PUSH4 0x9B8799C8 EQ PUSH3 0x900 JUMPI DUP1 PUSH4 0xA7367744 EQ PUSH3 0x930 JUMPI PUSH3 0x34A JUMP JUMPDEST DUP1 PUSH4 0x824BE2F5 EQ PUSH3 0x7B6 JUMPI DUP1 PUSH4 0x8709AFFC EQ PUSH3 0x7E6 JUMPI DUP1 PUSH4 0x88B5B67D EQ PUSH3 0x816 JUMPI DUP1 PUSH4 0x88BB26EE EQ PUSH3 0x846 JUMPI DUP1 PUSH4 0x8CAC6072 EQ PUSH3 0x874 JUMPI DUP1 PUSH4 0x90252F84 EQ PUSH3 0x8A2 JUMPI PUSH3 0x34A JUMP JUMPDEST DUP1 PUSH4 0x471CD4EC GT PUSH3 0x289 JUMPI DUP1 PUSH4 0x6040EC70 GT PUSH3 0x23B JUMPI DUP1 PUSH4 0x6DCBB8FC GT PUSH3 0x211 JUMPI DUP1 PUSH4 0x6DCBB8FC EQ PUSH3 0x6F5 JUMPI DUP1 PUSH4 0x71C27067 EQ PUSH3 0x725 JUMPI DUP1 PUSH4 0x7E82FD6F EQ PUSH3 0x755 JUMPI DUP1 PUSH4 0x804A933D EQ PUSH3 0x786 JUMPI PUSH3 0x34A JUMP JUMPDEST DUP1 PUSH4 0x6040EC70 EQ PUSH3 0x66B JUMPI DUP1 PUSH4 0x633B4BFB EQ PUSH3 0x699 JUMPI DUP1 PUSH4 0x68727F1D EQ PUSH3 0x6C7 JUMPI PUSH3 0x34A JUMP JUMPDEST DUP1 PUSH4 0x471CD4EC EQ PUSH3 0x569 JUMPI DUP1 PUSH4 0x4738D6EE EQ PUSH3 0x597 JUMPI DUP1 PUSH4 0x52C7DBD4 EQ PUSH3 0x5C5 JUMPI DUP1 PUSH4 0x54CFBFE5 EQ PUSH3 0x5F3 JUMPI DUP1 PUSH4 0x584FC5A5 EQ PUSH3 0x621 JUMPI DUP1 PUSH4 0x5F56850C EQ PUSH3 0x63B JUMPI PUSH3 0x34A JUMP JUMPDEST DUP1 PUSH4 0x19ACB031 GT PUSH3 0x301 JUMPI DUP1 PUSH4 0x2D4D89A3 GT PUSH3 0x2D7 JUMPI DUP1 PUSH4 0x2D4D89A3 EQ PUSH3 0x4C3 JUMPI DUP1 PUSH4 0x2F2462DF EQ PUSH3 0x4DD JUMPI DUP1 PUSH4 0x422D98E6 EQ PUSH3 0x50D JUMPI DUP1 PUSH4 0x46D96ED4 EQ PUSH3 0x53B JUMPI PUSH3 0x34A JUMP JUMPDEST DUP1 PUSH4 0x19ACB031 EQ PUSH3 0x435 JUMPI DUP1 PUSH4 0x1B2DF850 EQ PUSH3 0x465 JUMPI DUP1 PUSH4 0x1DFEF2A4 EQ PUSH3 0x495 JUMPI PUSH3 0x34A JUMP JUMPDEST DUP1 PUSH4 0x97A5C16 EQ PUSH3 0x34F JUMPI DUP1 PUSH4 0xF09D6E9 EQ PUSH3 0x37D JUMPI DUP1 PUSH4 0x10936D2A EQ PUSH3 0x389 JUMPI DUP1 PUSH4 0x1459457A EQ PUSH3 0x3B7 JUMPI DUP1 PUSH4 0x19439654 EQ PUSH3 0x3D7 JUMPI DUP1 PUSH4 0x19502BE7 EQ PUSH3 0x405 JUMPI JUMPDEST PUSH1 0x0 DUP1 REVERT JUMPDEST CALLVALUE DUP1 ISZERO PUSH3 0x35C JUMPI PUSH1 0x0 DUP1 REVERT JUMPDEST POP PUSH3 0x37B PUSH1 0x4 DUP1 CALLDATASIZE SUB DUP2 ADD SWAP1 PUSH3 0x375 SWAP2 SWAP1 PUSH3 0x4EC0 JUMP JUMPDEST PUSH3 0xC4C JUMP JUMPDEST STOP JUMPDEST PUSH3 0x387 PUSH3 0x1001 JUMP JUMPDEST STOP JUMPDEST CALLVALUE DUP1 ISZERO PUSH3 0x396 JUMPI PUSH1 0x0 DUP1 REVERT JUMPDEST POP PUSH3 0x3B5 PUSH1 0x4 DUP1 CALLDATASIZE SUB DUP2 ADD SWAP1 PUSH3 0x3AF SWAP2 SWAP1 PUSH3 0x4F95 JUMP JUMPDEST PUSH3 0x1072 JUMP JUMPDEST STOP JUMPDEST PUSH3 0x3D5 PUSH1 0x4 DUP1 CALLDATASIZE SUB DUP2 ADD SWAP1 PUSH3 0x3CF SWAP2 SWAP1 PUSH3 0x5036 JUMP JUMPDEST PUSH3 0x121D JUMP JUMPDEST STOP JUMPDEST CALLVALUE DUP1 ISZERO PUSH3 0x3E4 JUMPI PUSH1 0x0 DUP1 REVERT JUMPDEST POP PUSH3 0x403 PUSH1 0x4 DUP1 CALLDATASIZE SUB DUP2 ADD SWAP1 PUSH3 0x3FD SWAP2 SWAP1 PUSH3 0x50BE JUMP JUMPDEST PUSH3 0x16AF JUMP JUMPDEST STOP JUMPDEST CALLVALUE DUP1 ISZERO PUSH3 0x412 JUMPI PUSH1 0x0 DUP1 REVERT JUMPDEST POP PUSH3 0x41D PUSH3 0x1849 JUMP JUMPDEST PUSH1 0x40 MLOAD PUSH3 0x42C SWAP2 SWAP1 PUSH3 0x5116 JUMP JUMPDEST PUSH1 0x40 MLOAD DUP1 SWAP2 SUB SWAP1 RETURN JUMPDEST CALLVALUE DUP1 ISZERO PUSH3 0x442 JUMPI PUSH1 0x0 DUP1 REVERT JUMPDEST POP PUSH3 0x44D PUSH3 0x186F JUMP JUMPDEST PUSH1 0x40 MLOAD PUSH3 0x45C SWAP2 SWAP1 PUSH3 0x5144 JUMP JUMPDEST PUSH1 0x40 MLOAD DUP1 SWAP2 SUB SWAP1 RETURN JUMPDEST CALLVALUE DUP1 ISZERO PUSH3 0x472 JUMPI PUSH1 0x0 DUP1 REVERT JUMPDEST POP PUSH3 0x47D PUSH3 0x1875 JUMP JUMPDEST PUSH1 0x40 MLOAD PUSH3 0x48C SWAP2 SWAP1 PUSH3 0x5116 JUMP JUMPDEST PUSH1 0x40 MLOAD DUP1 SWAP2 SUB SWAP1 RETURN JUMPDEST CALLVALUE DUP1 ISZERO PUSH3 0x4A2 JUMPI PUSH1 0x0 DUP1 REVERT JUMPDEST POP PUSH3 0x4C1 PUSH1 0x4 DUP1 CALLDATASIZE SUB DUP2 ADD SWAP1 PUSH3 0x4BB SWAP2 SWAP1 PUSH3 0x5161 JUMP JUMPDEST PUSH3 0x189B JUMP JUMPDEST STOP JUMPDEST CALLVALUE DUP1 ISZERO PUSH3 0x4D0 JUMPI PUSH1 0x0 DUP1 REVERT JUMPDEST POP PUSH3 0x4DB PUSH3 0x1B58 JUMP JUMPDEST STOP JUMPDEST CALLVALUE DUP1 ISZERO PUSH3 0x4EA JUMPI PUSH1 0x0 DUP1 REVERT JUMPDEST POP PUSH3 0x4F5 PUSH3 0x1D56 JUMP JUMPDEST PUSH1 0x40 MLOAD PUSH3 0x504 SWAP2 SWAP1 PUSH3 0x51C3 JUMP JUMPDEST PUSH1 0x40 MLOAD DUP1 SWAP2 SUB SWAP1 RETURN JUMPDEST CALLVALUE DUP1 ISZERO PUSH3 0x51A JUMPI PUSH1 0x0 DUP1 REVERT JUMPDEST POP PUSH3 0x539 PUSH1 0x4 DUP1 CALLDATASIZE SUB DUP2 ADD SWAP1 PUSH3 0x533 SWAP2 SWAP1 PUSH3 0x51E0 JUMP JUMPDEST PUSH3 0x1E37 JUMP JUMPDEST STOP JUMPDEST CALLVALUE DUP1 ISZERO PUSH3 0x548 JUMPI PUSH1 0x0 DUP1 REVERT JUMPDEST POP PUSH3 0x567 PUSH1 0x4 DUP1 CALLDATASIZE SUB DUP2 ADD SWAP1 PUSH3 0x561 SWAP2 SWAP1 PUSH3 0x523C JUMP JUMPDEST PUSH3 0x209B JUMP JUMPDEST STOP JUMPDEST CALLVALUE DUP1 ISZERO PUSH3 0x576 JUMPI PUSH1 0x0 DUP1 REVERT JUMPDEST POP PUSH3 0x595 PUSH1 0x4 DUP1 CALLDATASIZE SUB DUP2 ADD SWAP1 PUSH3 0x58F SWAP2 SWAP1 PUSH3 0x4EC0 JUMP JUMPDEST PUSH3 0x2243 JUMP JUMPDEST STOP JUMPDEST CALLVALUE DUP1 ISZERO PUSH3 0x5A4 JUMPI PUSH1 0x0 DUP1 REVERT JUMPDEST POP PUSH3 0x5C3 PUSH1 0x4 DUP1 CALLDATASIZE SUB DUP2 ADD SWAP1 PUSH3 0x5BD SWAP2 SWAP1 PUSH3 0x51E0 JUMP JUMPDEST PUSH3 0x23AC JUMP JUMPDEST STOP JUMPDEST CALLVALUE DUP1 ISZERO PUSH3 0x5D2 JUMPI PUSH1 0x0 DUP1 REVERT JUMPDEST POP PUSH3 0x5F1 PUSH1 0x4 DUP1 CALLDATASIZE SUB DUP2 ADD SWAP1 PUSH3 0x5EB SWAP2 SWAP1 PUSH3 0x51E0 JUMP JUMPDEST PUSH3 0x25F5 JUMP JUMPDEST STOP JUMPDEST CALLVALUE DUP1 ISZERO PUSH3 0x600 JUMPI PUSH1 0x0 DUP1 REVERT JUMPDEST POP PUSH3 0x61F PUSH1 0x4 DUP1 CALLDATASIZE SUB DUP2 ADD SWAP1 PUSH3 0x619 SWAP2 SWAP1 PUSH3 0x52EB JUMP JUMPDEST PUSH3 0x283C JUMP JUMPDEST STOP JUMPDEST CALLVALUE DUP1 ISZERO PUSH3 0x62E JUMPI PUSH1 0x0 DUP1 REVERT JUMPDEST POP PUSH3 0x639 PUSH3 0x28DF JUMP JUMPDEST STOP JUMPDEST CALLVALUE DUP1 ISZERO PUSH3 0x648 JUMPI PUSH1 0x0 DUP1 REVERT JUMPDEST POP PUSH3 0x653 PUSH3 0x2A95 JUMP JUMPDEST PUSH1 0x40 MLOAD PUSH3 0x662 SWAP2 SWAP1 PUSH3 0x51C3 JUMP JUMPDEST PUSH1 0x40 MLOAD DUP1 SWAP2 SUB SWAP1 RETURN JUMPDEST CALLVALUE DUP1 ISZERO PUSH3 0x678 JUMPI PUSH1 0x0 DUP1 REVERT JUMPDEST POP PUSH3 0x697 PUSH1 0x4 DUP1 CALLDATASIZE SUB DUP2 ADD SWAP1 PUSH3 0x691 SWAP2 SWAP1 PUSH3 0x534E JUMP JUMPDEST PUSH3 0x2A9B JUMP JUMPDEST STOP JUMPDEST CALLVALUE DUP1 ISZERO PUSH3 0x6A6 JUMPI PUSH1 0x0 DUP1 REVERT JUMPDEST POP PUSH3 0x6C5 PUSH1 0x4 DUP1 CALLDATASIZE SUB DUP2 ADD SWAP1 PUSH3 0x6BF SWAP2 SWAP1 PUSH3 0x50BE JUMP JUMPDEST PUSH3 0x2B59 JUMP JUMPDEST STOP JUMPDEST CALLVALUE DUP1 ISZERO PUSH3 0x6D4 JUMPI PUSH1 0x0 DUP1 REVERT JUMPDEST POP PUSH3 0x6F3 PUSH1 0x4 DUP1 CALLDATASIZE SUB DUP2 ADD SWAP1 PUSH3 0x6ED SWAP2 SWAP1 PUSH3 0x51E0 JUMP JUMPDEST PUSH3 0x2BCA JUMP JUMPDEST STOP JUMPDEST CALLVALUE DUP1 ISZERO PUSH3 0x702 JUMPI PUSH1 0x0 DUP1 REVERT JUMPDEST POP PUSH3 0x70D PUSH3 0x2D8A JUMP JUMPDEST PUSH1 0x40 MLOAD PUSH3 0x71C SWAP2 SWAP1 PUSH3 0x5144 JUMP JUMPDEST PUSH1 0x40 MLOAD DUP1 SWAP2 SUB SWAP1 RETURN JUMPDEST CALLVALUE DUP1 ISZERO PUSH3 0x732 JUMPI PUSH1 0x0 DUP1 REVERT JUMPDEST POP PUSH3 0x73D PUSH3 0x2D90 JUMP JUMPDEST PUSH1 0x40 MLOAD PUSH3 0x74C SWAP2 SWAP1 PUSH3 0x5116 JUMP JUMPDEST PUSH1 0x40 MLOAD DUP1 SWAP2 SUB SWAP1 RETURN JUMPDEST CALLVALUE DUP1 ISZERO PUSH3 0x762 JUMPI PUSH1 0x0 DUP1 REVERT JUMPDEST POP PUSH3 0x76D PUSH3 0x2DB6 JUMP JUMPDEST PUSH1 0x40 MLOAD PUSH3 0x77D SWAP3 SWAP2 SWAP1 PUSH3 0x5380 JUMP JUMPDEST PUSH1 0x40 MLOAD DUP1 SWAP2 SUB SWAP1 RETURN JUMPDEST CALLVALUE DUP1 ISZERO PUSH3 0x793 JUMPI PUSH1 0x0 DUP1 REVERT JUMPDEST POP PUSH3 0x79E PUSH3 0x2DC8 JUMP JUMPDEST PUSH1 0x40 MLOAD PUSH3 0x7AD SWAP2 SWAP1 PUSH3 0x5144 JUMP JUMPDEST PUSH1 0x40 MLOAD DUP1 SWAP2 SUB SWAP1 RETURN JUMPDEST CALLVALUE DUP1 ISZERO PUSH3 0x7C3 JUMPI PUSH1 0x0 DUP1 REVERT JUMPDEST POP PUSH3 0x7CE PUSH3 0x2DCD JUMP JUMPDEST PUSH1 0x40 MLOAD PUSH3 0x7DD SWAP2 SWAP1 PUSH3 0x51C3 JUMP JUMPDEST PUSH1 0x40 MLOAD DUP1 SWAP2 SUB SWAP1 RETURN JUMPDEST CALLVALUE DUP1 ISZERO PUSH3 0x7F3 JUMPI PUSH1 0x0 DUP1 REVERT JUMPDEST POP PUSH3 0x7FE PUSH3 0x2DD3 JUMP JUMPDEST PUSH1 0x40 MLOAD PUSH3 0x80D SWAP2 SWAP1 PUSH3 0x5116 JUMP JUMPDEST PUSH1 0x40 MLOAD DUP1 SWAP2 SUB SWAP1 RETURN JUMPDEST CALLVALUE DUP1 ISZERO PUSH3 0x823 JUMPI PUSH1 0x0 DUP1 REVERT JUMPDEST POP PUSH3 0x82E PUSH3 0x2E31 JUMP JUMPDEST PUSH1 0x40 MLOAD PUSH3 0x83D SWAP2 SWAP1 PUSH3 0x53BE JUMP JUMPDEST PUSH1 0x40 MLOAD DUP1 SWAP2 SUB SWAP1 RETURN JUMPDEST CALLVALUE DUP1 ISZERO PUSH3 0x853 JUMPI PUSH1 0x0 DUP1 REVERT JUMPDEST POP PUSH3 0x872 PUSH1 0x4 DUP1 CALLDATASIZE SUB DUP2 ADD SWAP1 PUSH3 0x86C SWAP2 SWAP1 PUSH3 0x4EC0 JUMP JUMPDEST PUSH3 0x2E44 JUMP JUMPDEST STOP JUMPDEST CALLVALUE DUP1 ISZERO PUSH3 0x881 JUMPI PUSH1 0x0 DUP1 REVERT JUMPDEST POP PUSH3 0x8A0 PUSH1 0x4 DUP1 CALLDATASIZE SUB DUP2 ADD SWAP1 PUSH3 0x89A SWAP2 SWAP1 PUSH3 0x5161 JUMP JUMPDEST PUSH3 0x3194 JUMP JUMPDEST STOP JUMPDEST CALLVALUE DUP1 ISZERO PUSH3 0x8AF JUMPI PUSH1 0x0 DUP1 REVERT JUMPDEST POP PUSH3 0x8CE PUSH1 0x4 DUP1 CALLDATASIZE SUB DUP2 ADD SWAP1 PUSH3 0x8C8 SWAP2 SWAP1 PUSH3 0x4EC0 JUMP JUMPDEST PUSH3 0x3205 JUMP JUMPDEST STOP JUMPDEST CALLVALUE DUP1 ISZERO PUSH3 0x8DD JUMPI PUSH1 0x0 DUP1 REVERT JUMPDEST POP PUSH3 0x8E8 PUSH3 0x3295 JUMP JUMPDEST PUSH1 0x40 MLOAD PUSH3 0x8F7 SWAP2 SWAP1 PUSH3 0x5144 JUMP JUMPDEST PUSH1 0x40 MLOAD DUP1 SWAP2 SUB SWAP1 RETURN JUMPDEST CALLVALUE DUP1 ISZERO PUSH3 0x90D JUMPI PUSH1 0x0 DUP1 REVERT JUMPDEST POP PUSH3 0x918 PUSH3 0x329A JUMP JUMPDEST PUSH1 0x40 MLOAD PUSH3 0x927 SWAP2 SWAP1 PUSH3 0x53EC JUMP JUMPDEST PUSH1 0x40 MLOAD DUP1 SWAP2 SUB SWAP1 RETURN JUMPDEST CALLVALUE DUP1 ISZERO PUSH3 0x93D JUMPI PUSH1 0x0 DUP1 REVERT JUMPDEST POP PUSH3 0x95C PUSH1 0x4 DUP1 CALLDATASIZE SUB DUP2 ADD SWAP1 PUSH3 0x956 SWAP2 SWAP1 PUSH3 0x5161 JUMP JUMPDEST PUSH3 0x32C0 JUMP JUMPDEST STOP JUMPDEST CALLVALUE DUP1 ISZERO PUSH3 0x96B JUMPI PUSH1 0x0 DUP1 REVERT JUMPDEST POP PUSH3 0x976 PUSH3 0x3362 JUMP JUMPDEST STOP JUMPDEST CALLVALUE DUP1 ISZERO PUSH3 0x985 JUMPI PUSH1 0x0 DUP1 REVERT JUMPDEST POP PUSH3 0x9A4 PUSH1 0x4 DUP1 CALLDATASIZE SUB DUP2 ADD SWAP1 PUSH3 0x99E SWAP2 SWAP1 PUSH3 0x51E0 JUMP JUMPDEST PUSH3 0x336E JUMP JUMPDEST STOP JUMPDEST CALLVALUE DUP1 ISZERO PUSH3 0x9B3 JUMPI PUSH1 0x0 DUP1 REVERT JUMPDEST POP PUSH3 0x9BE PUSH3 0x352E JUMP JUMPDEST PUSH1 0x40 MLOAD PUSH3 0x9CD SWAP2 SWAP1 PUSH3 0x5144 JUMP JUMPDEST PUSH1 0x40 MLOAD DUP1 SWAP2 SUB SWAP1 RETURN JUMPDEST PUSH3 0x9E0 PUSH3 0x3534 JUMP JUMPDEST STOP JUMPDEST CALLVALUE DUP1 ISZERO PUSH3 0x9EF JUMPI PUSH1 0x0 DUP1 REVERT JUMPDEST POP PUSH3 0xA0E PUSH1 0x4 DUP1 CALLDATASIZE SUB DUP2 ADD SWAP1 PUSH3 0xA08 SWAP2 SWAP1 PUSH3 0x5161 JUMP JUMPDEST PUSH3 0x3882 JUMP JUMPDEST STOP JUMPDEST CALLVALUE DUP1 ISZERO PUSH3 0xA1D JUMPI PUSH1 0x0 DUP1 REVERT JUMPDEST POP PUSH3 0xA28 PUSH3 0x39E7 JUMP JUMPDEST PUSH1 0x40 MLOAD PUSH3 0xA37 SWAP2 SWAP1 PUSH3 0x5144 JUMP JUMPDEST PUSH1 0x40 MLOAD DUP1 SWAP2 SUB SWAP1 RETURN JUMPDEST CALLVALUE DUP1 ISZERO PUSH3 0xA4D JUMPI PUSH1 0x0 DUP1 REVERT JUMPDEST POP PUSH3 0xA58 PUSH3 0x39ED JUMP JUMPDEST PUSH1 0x40 MLOAD PUSH3 0xA67 SWAP2 SWAP1 PUSH3 0x5144 JUMP JUMPDEST PUSH1 0x40 MLOAD DUP1 SWAP2 SUB SWAP1 RETURN JUMPDEST CALLVALUE DUP1 ISZERO PUSH3 0xA7D JUMPI PUSH1 0x0 DUP1 REVERT JUMPDEST POP PUSH3 0xA88 PUSH3 0x39F3 JUMP JUMPDEST PUSH1 0x40 MLOAD PUSH3 0xA97 SWAP2 SWAP1 PUSH3 0x5144 JUMP JUMPDEST PUSH1 0x40 MLOAD DUP1 SWAP2 SUB SWAP1 RETURN JUMPDEST CALLVALUE DUP1 ISZERO PUSH3 0xAAD JUMPI PUSH1 0x0 DUP1 REVERT JUMPDEST POP PUSH3 0xACC PUSH1 0x4 DUP1 CALLDATASIZE SUB DUP2 ADD SWAP1 PUSH3 0xAC6 SWAP2 SWAP1 PUSH3 0x4EC0 JUMP JUMPDEST PUSH3 0x3A00 JUMP JUMPDEST STOP JUMPDEST PUSH3 0xAD8 PUSH3 0x3AA4 JUMP JUMPDEST STOP JUMPDEST CALLVALUE DUP1 ISZERO PUSH3 0xAE7 JUMPI PUSH1 0x0 DUP1 REVERT JUMPDEST POP PUSH3 0xB06 PUSH1 0x4 DUP1 CALLDATASIZE SUB DUP2 ADD SWAP1 PUSH3 0xB00 SWAP2 SWAP1 PUSH3 0x523C JUMP JUMPDEST PUSH3 0x3B47 JUMP JUMPDEST STOP JUMPDEST CALLVALUE DUP1 ISZERO PUSH3 0xB15 JUMPI PUSH1 0x0 DUP1 REVERT JUMPDEST POP PUSH3 0xB34 PUSH1 0x4 DUP1 CALLDATASIZE SUB DUP2 ADD SWAP1 PUSH3 0xB2E SWAP2 SWAP1 PUSH3 0x4EC0 JUMP JUMPDEST PUSH3 0x3DAE JUMP JUMPDEST STOP JUMPDEST CALLVALUE DUP1 ISZERO PUSH3 0xB43 JUMPI PUSH1 0x0 DUP1 REVERT JUMPDEST POP PUSH3 0xB62 PUSH1 0x4 DUP1 CALLDATASIZE SUB DUP2 ADD SWAP1 PUSH3 0xB5C SWAP2 SWAP1 PUSH3 0x4EC0 JUMP JUMPDEST PUSH3 0x41E6 JUMP JUMPDEST PUSH1 0x40 MLOAD PUSH3 0xB71 SWAP2 SWAP1 PUSH3 0x53EC JUMP JUMPDEST PUSH1 0x40 MLOAD DUP1 SWAP2 SUB SWAP1 RETURN JUMPDEST CALLVALUE DUP1 ISZERO PUSH3 0xB87 JUMPI PUSH1 0x0 DUP1 REVERT JUMPDEST POP PUSH3 0xBA6 PUSH1 0x4 DUP1 CALLDATASIZE SUB DUP2 ADD SWAP1 PUSH3 0xBA0 SWAP2 SWAP1 PUSH3 0x50BE JUMP JUMPDEST PUSH3 0x4226 JUMP JUMPDEST STOP JUMPDEST CALLVALUE DUP1 ISZERO PUSH3 0xBB5 JUMPI PUSH1 0x0 DUP1 REVERT JUMPDEST POP PUSH3 0xBC0 PUSH3 0x42C8 JUMP JUMPDEST PUSH1 0x40 MLOAD PUSH3 0xBCF SWAP2 SWAP1 PUSH3 0x5144 JUMP JUMPDEST PUSH1 0x40 MLOAD DUP1 SWAP2 SUB SWAP1 RETURN JUMPDEST CALLVALUE DUP1 ISZERO PUSH3 0xBE5 JUMPI PUSH1 0x0 DUP1 REVERT JUMPDEST POP PUSH3 0xC04 PUSH1 0x4 DUP1 CALLDATASIZE SUB DUP2 ADD SWAP1 PUSH3 0xBFE SWAP2 SWAP1 PUSH3 0x5409 JUMP JUMPDEST PUSH3 0x42CE JUMP JUMPDEST PUSH1 0x40 MLOAD PUSH3 0xC13 SWAP2 SWAP1 PUSH3 0x5144 JUMP JUMPDEST PUSH1 0x40 MLOAD DUP1 SWAP2 SUB SWAP1 RETURN JUMPDEST CALLVALUE DUP1 ISZERO PUSH3 0xC29 JUMPI PUSH1 0x0 DUP1 REVERT JUMPDEST POP PUSH3 0xC34 PUSH3 0x42E6 JUMP JUMPDEST PUSH1 0x40 MLOAD PUSH3 0xC43 SWAP2 SWAP1 PUSH3 0x53BE JUMP JUMPDEST PUSH1 0x40 MLOAD DUP1 SWAP2 SUB SWAP1 RETURN JUMPDEST PUSH3 0xC57 CALLER PUSH3 0x42F9 JUMP JUMPDEST PUSH3 0xC99 JUMPI PUSH1 0x40 MLOAD PUSH32 0x8C379A000000000000000000000000000000000000000000000000000000000 DUP2 MSTORE PUSH1 0x4 ADD PUSH3 0xC90 SWAP1 PUSH3 0x549C JUMP JUMPDEST PUSH1 0x40 MLOAD DUP1 SWAP2 SUB SWAP1 REVERT JUMPDEST PUSH1 0x1 PUSH1 0x9 DUP1 SLOAD SWAP1 POP GT PUSH3 0xCE4 JUMPI PUSH1 0x40 MLOAD PUSH32 0x8C379A000000000000000000000000000000000000000000000000000000000 DUP2 MSTORE PUSH1 0x4 ADD PUSH3 0xCDB SWAP1 PUSH3 0x550E JUMP JUMPDEST PUSH1 0x40 MLOAD DUP1 SWAP2 SUB SWAP1 REVERT JUMPDEST PUSH1 0x9 DUP1 SLOAD SWAP1 POP DUP2 LT PUSH3 0xD2E JUMPI PUSH1 0x40 MLOAD PUSH32 0x8C379A000000000000000000000000000000000000000000000000000000000 DUP2 MSTORE PUSH1 0x4 ADD PUSH3 0xD25 SWAP1 PUSH3 0x5580 JUMP JUMPDEST PUSH1 0x40 MLOAD DUP1 SWAP2 SUB SWAP1 REVERT JUMPDEST PUSH1 0x0 PUSH1 0x9 DUP3 DUP2 SLOAD DUP2 LT PUSH3 0xD47 JUMPI PUSH3 0xD46 PUSH3 0x55A2 JUMP JUMPDEST JUMPDEST SWAP1 PUSH1 0x0 MSTORE PUSH1 0x20 PUSH1 0x0 KECCAK256 ADD PUSH1 0x0 SWAP1 SLOAD SWAP1 PUSH2 0x100 EXP SWAP1 DIV PUSH20 0xFFFFFFFFFFFFFFFFFFFFFFFFFFFFFFFFFFFFFFFF AND SWAP1 POP PUSH1 0x0 PUSH1 0x5 PUSH1 0x0 SWAP1 SLOAD SWAP1 PUSH2 0x100 EXP SWAP1 DIV PUSH20 0xFFFFFFFFFFFFFFFFFFFFFFFFFFFFFFFFFFFFFFFF AND PUSH20 0xFFFFFFFFFFFFFFFFFFFFFFFFFFFFFFFFFFFFFFFF AND PUSH4 0xE6861713 DUP4 PUSH1 0x40 MLOAD DUP3 PUSH4 0xFFFFFFFF AND PUSH1 0xE0 SHL DUP2 MSTORE PUSH1 0x4 ADD PUSH3 0xDD3 SWAP2 SWAP1 PUSH3 0x5116 JUMP JUMPDEST PUSH1 0x20 PUSH1 0x40 MLOAD DUP1 DUP4 SUB DUP2 DUP7 GAS STATICCALL ISZERO DUP1 ISZERO PUSH3 0xDF1 JUMPI RETURNDATASIZE PUSH1 0x0 DUP1 RETURNDATACOPY RETURNDATASIZE PUSH1 0x0 REVERT JUMPDEST POP POP POP POP PUSH1 0x40 MLOAD RETURNDATASIZE PUSH1 0x1F NOT PUSH1 0x1F DUP3 ADD AND DUP3 ADD DUP1 PUSH1 0x40 MSTORE POP DUP2 ADD SWAP1 PUSH3 0xE17 SWAP2 SWAP1 PUSH3 0x55E8 JUMP JUMPDEST EQ PUSH3 0xE5A JUMPI PUSH1 0x40 MLOAD PUSH32 0x8C379A000000000000000000000000000000000000000000000000000000000 DUP2 MSTORE PUSH1 0x4 ADD PUSH3 0xE51 SWAP1 PUSH3 0x566A JUMP JUMPDEST PUSH1 0x40 MLOAD DUP1 SWAP2 SUB SWAP1 REVERT JUMPDEST PUSH1 0x0 DUP2 PUSH20 0xFFFFFFFFFFFFFFFFFFFFFFFFFFFFFFFFFFFFFFFF AND BALANCE EQ PUSH3 0xEB7 JUMPI PUSH1 0x40 MLOAD PUSH32 0x8C379A000000000000000000000000000000000000000000000000000000000 DUP2 MSTORE PUSH1 0x4 ADD PUSH3 0xEAE SWAP1 PUSH3 0x56DC JUMP JUMPDEST PUSH1 0x40 MLOAD DUP1 SWAP2 SUB SWAP1 REVERT JUMPDEST PUSH1 0x0 PUSH1 0x1 PUSH1 0x9 DUP1 SLOAD SWAP1 POP PUSH3 0xECD SWAP2 SWAP1 PUSH3 0x572D JUMP JUMPDEST SWAP1 POP DUP1 DUP4 EQ PUSH3 0xF79 JUMPI PUSH1 0x9 DUP2 DUP2 SLOAD DUP2 LT PUSH3 0xEEE JUMPI PUSH3 0xEED PUSH3 0x55A2 JUMP JUMPDEST JUMPDEST SWAP1 PUSH1 0x0 MSTORE PUSH1 0x20 PUSH1 0x0 KECCAK256 ADD PUSH1 0x0 SWAP1 SLOAD SWAP1 PUSH2 0x100 EXP SWAP1 DIV PUSH20 0xFFFFFFFFFFFFFFFFFFFFFFFFFFFFFFFFFFFFFFFF AND PUSH1 0x9 DUP5 DUP2 SLOAD DUP2 LT PUSH3 0xF30 JUMPI PUSH3 0xF2F PUSH3 0x55A2 JUMP JUMPDEST JUMPDEST SWAP1 PUSH1 0x0 MSTORE PUSH1 0x20 PUSH1 0x0 KECCAK256 ADD PUSH1 0x0 PUSH2 0x100 EXP DUP2 SLOAD DUP2 PUSH20 0xFFFFFFFFFFFFFFFFFFFFFFFFFFFFFFFFFFFFFFFF MUL NOT AND SWAP1 DUP4 PUSH20 0xFFFFFFFFFFFFFFFFFFFFFFFFFFFFFFFFFFFFFFFF AND MUL OR SWAP1 SSTORE POP JUMPDEST PUSH1 0x9 DUP1 SLOAD DUP1 PUSH3 0xF8E JUMPI PUSH3 0xF8D PUSH3 0x5768 JUMP JUMPDEST JUMPDEST PUSH1 0x1 SWAP1 SUB DUP2 DUP2 SWAP1 PUSH1 0x0 MSTORE PUSH1 0x20 PUSH1 0x0 KECCAK256 ADD PUSH1 0x0 PUSH2 0x100 EXP DUP2 SLOAD SWAP1 PUSH20 0xFFFFFFFFFFFFFFFFFFFFFFFFFFFFFFFFFFFFFFFF MUL NOT AND SWAP1 SSTORE SWAP1 SSTORE PUSH32 0xDD388B2C2BC1036AC6CCE81371536AB05030FF4C10F86D4B537F0B02AB2975ED DUP3 PUSH1 0x40 MLOAD PUSH3 0xFF4 SWAP2 SWAP1 PUSH3 0x5116 JUMP JUMPDEST PUSH1 0x40 MLOAD DUP1 SWAP2 SUB SWAP1 LOG1 POP POP POP JUMP JUMPDEST PUSH32 0xFFFFFFFFFFFFFFFFFFFFFFFFFFFFFFFFFFFFFFFFFFFFFFFFFFFFFFFFFFFFFFFF PUSH3 0x102D CALLER PUSH3 0x4426 JUMP JUMPDEST SUB PUSH3 0x1070 JUMPI PUSH1 0x40 MLOAD PUSH32 0x8C379A000000000000000000000000000000000000000000000000000000000 DUP2 MSTORE PUSH1 0x4 ADD PUSH3 0x1067 SWAP1 PUSH3 0x57E7 JUMP JUMPDEST PUSH1 0x40 MLOAD DUP1 SWAP2 SUB SWAP1 REVERT JUMPDEST JUMP JUMPDEST PUSH3 0x107D CALLER PUSH3 0x42F9 JUMP JUMPDEST PUSH3 0x10BF JUMPI PUSH1 0x40 MLOAD PUSH32 0x8C379A000000000000000000000000000000000000000000000000000000000 DUP2 MSTORE PUSH1 0x4 ADD PUSH3 0x10B6 SWAP1 PUSH3 0x549C JUMP JUMPDEST PUSH1 0x40 MLOAD DUP1 SWAP2 SUB SWAP1 REVERT JUMPDEST PUSH3 0x10C9 PUSH3 0x44F4 JUMP JUMPDEST PUSH1 0x9 DUP1 SLOAD SWAP1 POP DUP4 LT PUSH3 0x1113 JUMPI PUSH1 0x40 MLOAD PUSH32 0x8C379A000000000000000000000000000000000000000000000000000000000 DUP2 MSTORE PUSH1 0x4 ADD PUSH3 0x110A SWAP1 PUSH3 0x5580 JUMP JUMPDEST PUSH1 0x40 MLOAD DUP1 SWAP2 SUB SWAP1 REVERT JUMPDEST PUSH1 0x0 PUSH1 0x9 DUP5 DUP2 SLOAD DUP2 LT PUSH3 0x112C JUMPI PUSH3 0x112B PUSH3 0x55A2 JUMP JUMPDEST JUMPDEST SWAP1 PUSH1 0x0 MSTORE PUSH1 0x20 PUSH1 0x0 KECCAK256 ADD PUSH1 0x0 SWAP1 SLOAD SWAP1 PUSH2 0x100 EXP SWAP1 DIV PUSH20 0xFFFFFFFFFFFFFFFFFFFFFFFFFFFFFFFFFFFFFFFF AND SWAP1 POP PUSH1 0x0 DUP2 SWAP1 POP PUSH32 0xC68BE9EAE8414ABC66AEBA507171BC24B3E21419A20A59E08684CEB4C206D0DB DUP3 DUP6 DUP6 PUSH1 0x40 MLOAD PUSH3 0x1193 SWAP4 SWAP3 SWAP2 SWAP1 PUSH3 0x581A JUMP JUMPDEST PUSH1 0x40 MLOAD DUP1 SWAP2 SUB SWAP1 LOG1 DUP1 PUSH20 0xFFFFFFFFFFFFFFFFFFFFFFFFFFFFFFFFFFFFFFFF AND PUSH4 0x7258B5EF DUP6 DUP6 PUSH1 0x40 MLOAD DUP4 PUSH4 0xFFFFFFFF AND PUSH1 0xE0 SHL DUP2 MSTORE PUSH1 0x4 ADD PUSH3 0x11D8 SWAP3 SWAP2 SWAP1 PUSH3 0x5857 JUMP JUMPDEST PUSH1 0x0 PUSH1 0x40 MLOAD DUP1 DUP4 SUB DUP2 PUSH1 0x0 DUP8 DUP1 EXTCODESIZE ISZERO DUP1 ISZERO PUSH3 0x11F3 JUMPI PUSH1 0x0 DUP1 REVERT JUMPDEST POP GAS CALL ISZERO DUP1 ISZERO PUSH3 0x1208 JUMPI RETURNDATASIZE PUSH1 0x0 DUP1 RETURNDATACOPY RETURNDATASIZE PUSH1 0x0 REVERT JUMPDEST POP POP POP POP POP POP PUSH3 0x1218 PUSH3 0x4546 JUMP JUMPDEST POP POP POP JUMP JUMPDEST PUSH1 0x0 PUSH20 0xFFFFFFFFFFFFFFFFFFFFFFFFFFFFFFFFFFFFFFFF AND DUP6 PUSH20 0xFFFFFFFFFFFFFFFFFFFFFFFFFFFFFFFFFFFFFFFF AND EQ ISZERO DUP1 ISZERO PUSH3 0x12A9 JUMPI POP PUSH1 0x0 PUSH20 0xFFFFFFFFFFFFFFFFFFFFFFFFFFFFFFFFFFFFFFFF AND PUSH1 0x4 PUSH1 0x0 SWAP1 SLOAD SWAP1 PUSH2 0x100 EXP SWAP1 DIV PUSH20 0xFFFFFFFFFFFFFFFFFFFFFFFFFFFFFFFFFFFFFFFF AND PUSH20 0xFFFFFFFFFFFFFFFFFFFFFFFFFFFFFFFFFFFFFFFF AND EQ JUMPDEST PUSH3 0x12EB JUMPI PUSH1 0x40 MLOAD PUSH32 0x8C379A000000000000000000000000000000000000000000000000000000000 DUP2 MSTORE PUSH1 0x4 ADD PUSH3 0x12E2 SWAP1 PUSH3 0x58D4 JUMP JUMPDEST PUSH1 0x40 MLOAD DUP1 SWAP2 SUB SWAP1 REVERT JUMPDEST DUP5 PUSH1 0x4 PUSH1 0x0 PUSH2 0x100 EXP DUP2 SLOAD DUP2 PUSH20 0xFFFFFFFFFFFFFFFFFFFFFFFFFFFFFFFFFFFFFFFF MUL NOT AND SWAP1 DUP4 PUSH20 0xFFFFFFFFFFFFFFFFFFFFFFFFFFFFFFFFFFFFFFFF AND MUL OR SWAP1 SSTORE POP DUP4 PUSH1 0x1 PUSH1 0x0 PUSH2 0x100 EXP DUP2 SLOAD DUP2 PUSH20 0xFFFFFFFFFFFFFFFFFFFFFFFFFFFFFFFFFFFFFFFF MUL NOT AND SWAP1 DUP4 PUSH20 0xFFFFFFFFFFFFFFFFFFFFFFFFFFFFFFFFFFFFFFFF AND MUL OR SWAP1 SSTORE POP DUP2 PUSH1 0x2 PUSH1 0x0 PUSH2 0x100 EXP DUP2 SLOAD DUP2 PUSH20 0xFFFFFFFFFFFFFFFFFFFFFFFFFFFFFFFFFFFFFFFF MUL NOT AND SWAP1 DUP4 PUSH20 0xFFFFFFFFFFFFFFFFFFFFFFFFFFFFFFFFFFFFFFFF AND MUL OR SWAP1 SSTORE POP DUP1 PUSH1 0x3 PUSH1 0x0 PUSH2 0x100 EXP DUP2 SLOAD DUP2 PUSH20 0xFFFFFFFFFFFFFFFFFFFFFFFFFFFFFFFFFFFFFFFF MUL NOT AND SWAP1 DUP4 PUSH20 0xFFFFFFFFFFFFFFFFFFFFFFFFFFFFFFFFFFFFFFFF AND MUL OR SWAP1 SSTORE POP PUSH1 0x1 PUSH1 0x0 SWAP1 SLOAD SWAP1 PUSH2 0x100 EXP SWAP1 DIV PUSH20 0xFFFFFFFFFFFFFFFFFFFFFFFFFFFFFFFFFFFFFFFF AND PUSH1 0x5 PUSH1 0x0 PUSH2 0x100 EXP DUP2 SLOAD DUP2 PUSH20 0xFFFFFFFFFFFFFFFFFFFFFFFFFFFFFFFFFFFFFFFF MUL NOT AND SWAP1 DUP4 PUSH20 0xFFFFFFFFFFFFFFFFFFFFFFFFFFFFFFFFFFFFFFFF AND MUL OR SWAP1 SSTORE POP PUSH1 0x2 PUSH1 0x0 SWAP1 SLOAD SWAP1 PUSH2 0x100 EXP SWAP1 DIV PUSH20 0xFFFFFFFFFFFFFFFFFFFFFFFFFFFFFFFFFFFFFFFF AND PUSH1 0x7 PUSH1 0x0 PUSH2 0x100 EXP DUP2 SLOAD DUP2 PUSH20 0xFFFFFFFFFFFFFFFFFFFFFFFFFFFFFFFFFFFFFFFF MUL NOT AND SWAP1 DUP4 PUSH20 0xFFFFFFFFFFFFFFFFFFFFFFFFFFFFFFFFFFFFFFFF AND MUL OR SWAP1 SSTORE POP PUSH1 0x3 PUSH1 0x0 SWAP1 SLOAD SWAP1 PUSH2 0x100 EXP SWAP1 DIV PUSH20 0xFFFFFFFFFFFFFFFFFFFFFFFFFFFFFFFFFFFFFFFF AND PUSH1 0x8 PUSH1 0x0 PUSH2 0x100 EXP DUP2 SLOAD DUP2 PUSH20 0xFFFFFFFFFFFFFFFFFFFFFFFFFFFFFFFFFFFFFFFF MUL NOT AND SWAP1 DUP4 PUSH20 0xFFFFFFFFFFFFFFFFFFFFFFFFFFFFFFFFFFFFFFFF AND MUL OR SWAP1 SSTORE POP DUP3 PUSH1 0x6 PUSH1 0x0 PUSH2 0x100 EXP DUP2 SLOAD DUP2 PUSH20 0xFFFFFFFFFFFFFFFFFFFFFFFFFFFFFFFFFFFFFFFF MUL NOT AND SWAP1 DUP4 PUSH20 0xFFFFFFFFFFFFFFFFFFFFFFFFFFFFFFFFFFFFFFFF AND MUL OR SWAP1 SSTORE POP CALLVALUE PUSH1 0x7 PUSH1 0x0 SWAP1 SLOAD SWAP1 PUSH2 0x100 EXP SWAP1 DIV PUSH20 0xFFFFFFFFFFFFFFFFFFFFFFFFFFFFFFFFFFFFFFFF AND PUSH20 0xFFFFFFFFFFFFFFFFFFFFFFFFFFFFFFFFFFFFFFFF AND PUSH4 0x18160DDD PUSH1 0x40 MLOAD DUP2 PUSH4 0xFFFFFFFF AND PUSH1 0xE0 SHL DUP2 MSTORE PUSH1 0x4 ADD PUSH1 0x20 PUSH1 0x40 MLOAD DUP1 DUP4 SUB DUP2 DUP7 GAS STATICCALL ISZERO DUP1 ISZERO PUSH3 0x15C8 JUMPI RETURNDATASIZE PUSH1 0x0 DUP1 RETURNDATACOPY RETURNDATASIZE PUSH1 0x0 REVERT JUMPDEST POP POP POP POP PUSH1 0x40 MLOAD RETURNDATASIZE PUSH1 0x1F NOT PUSH1 0x1F DUP3 ADD AND DUP3 ADD DUP1 PUSH1 0x40 MSTORE POP DUP2 ADD SWAP1 PUSH3 0x15EE SWAP2 SWAP1 PUSH3 0x55E8 JUMP JUMPDEST EQ PUSH3 0x1631 JUMPI PUSH1 0x40 MLOAD PUSH32 0x8C379A000000000000000000000000000000000000000000000000000000000 DUP2 MSTORE PUSH1 0x4 ADD PUSH3 0x1628 SWAP1 PUSH3 0x5946 JUMP JUMPDEST PUSH1 0x40 MLOAD DUP1 SWAP2 SUB SWAP1 REVERT JUMPDEST PUSH20 0x0 PUSH4 0xE9D3A61F PUSH1 0x15 PUSH1 0x40 MLOAD DUP3 PUSH4 0xFFFFFFFF AND PUSH1 0xE0 SHL DUP2 MSTORE PUSH1 0x4 ADD PUSH3 0x166B SWAP2 SWAP1 PUSH3 0x596F JUMP JUMPDEST PUSH1 0x0 PUSH1 0x40 MLOAD DUP1 DUP4 SUB DUP2 DUP7 DUP1 EXTCODESIZE ISZERO DUP1 ISZERO PUSH3 0x1684 JUMPI PUSH1 0x0 DUP1 REVERT JUMPDEST POP GAS DELEGATECALL ISZERO DUP1 ISZERO PUSH3 0x1699 JUMPI RETURNDATASIZE PUSH1 0x0 DUP1 RETURNDATACOPY RETURNDATASIZE PUSH1 0x0 REVERT JUMPDEST POP POP POP POP PUSH3 0x16A7 PUSH3 0x4550 JUMP JUMPDEST POP POP POP POP POP POP JUMP JUMPDEST PUSH3 0x16BA CALLER PUSH3 0x42F9 JUMP JUMPDEST PUSH3 0x16FC JUMPI PUSH1 0x40 MLOAD PUSH32 0x8C379A000000000000000000000000000000000000000000000000000000000 DUP2 MSTORE PUSH1 0x4 ADD PUSH3 0x16F3 SWAP1 PUSH3 0x549C JUMP JUMPDEST PUSH1 0x40 MLOAD DUP1 SWAP2 SUB SWAP1 REVERT JUMPDEST PUSH3 0x1706 PUSH3 0x44F4 JUMP JUMPDEST PUSH1 0x9 DUP1 SLOAD SWAP1 POP DUP3 LT PUSH3 0x1750 JUMPI PUSH1 0x40 MLOAD PUSH32 0x8C379A000000000000000000000000000000000000000000000000000000000 DUP2 MSTORE PUSH1 0x4 ADD PUSH3 0x1747 SWAP1 PUSH3 0x5580 JUMP JUMPDEST PUSH1 0x40 MLOAD DUP1 SWAP2 SUB SWAP1 REVERT JUMPDEST PUSH1 0x0 PUSH1 0x9 DUP4 DUP2 SLOAD DUP2 LT PUSH3 0x1769 JUMPI PUSH3 0x1768 PUSH3 0x55A2 JUMP JUMPDEST JUMPDEST SWAP1 PUSH1 0x0 MSTORE PUSH1 0x20 PUSH1 0x0 KECCAK256 ADD PUSH1 0x0 SWAP1 SLOAD SWAP1 PUSH2 0x100 EXP SWAP1 DIV PUSH20 0xFFFFFFFFFFFFFFFFFFFFFFFFFFFFFFFFFFFFFFFF AND SWAP1 POP PUSH1 0x0 DUP2 SWAP1 POP PUSH32 0xAD79328E8502097ED263893551CE1580715CDEE9ED2F17218107AEE878968AAB DUP3 DUP5 PUSH1 0x40 MLOAD PUSH3 0x17CE SWAP3 SWAP2 SWAP1 PUSH3 0x598C JUMP JUMPDEST PUSH1 0x40 MLOAD DUP1 SWAP2 SUB SWAP1 LOG1 DUP1 PUSH20 0xFFFFFFFFFFFFFFFFFFFFFFFFFFFFFFFFFFFFFFFF AND PUSH4 0xD0E30DB0 DUP5 PUSH1 0x40 MLOAD DUP3 PUSH4 0xFFFFFFFF AND PUSH1 0xE0 SHL DUP2 MSTORE PUSH1 0x4 ADD PUSH1 0x0 PUSH1 0x40 MLOAD DUP1 DUP4 SUB DUP2 DUP6 DUP9 DUP1 EXTCODESIZE ISZERO DUP1 ISZERO PUSH3 0x181F JUMPI PUSH1 0x0 DUP1 REVERT JUMPDEST POP GAS CALL ISZERO DUP1 ISZERO PUSH3 0x1834 JUMPI RETURNDATASIZE PUSH1 0x0 DUP1 RETURNDATACOPY RETURNDATASIZE PUSH1 0x0 REVERT JUMPDEST POP POP POP POP POP POP POP PUSH3 0x1845 PUSH3 0x4546 JUMP JUMPDEST POP POP JUMP JUMPDEST PUSH1 0x2 PUSH1 0x0 SWAP1 SLOAD SWAP1 PUSH2 0x100 EXP SWAP1 DIV PUSH20 0xFFFFFFFFFFFFFFFFFFFFFFFFFFFFFFFFFFFFFFFF AND DUP2 JUMP JUMPDEST PUSH1 0xD SLOAD DUP2 JUMP JUMPDEST PUSH1 0x4 PUSH1 0x0 SWAP1 SLOAD SWAP1 PUSH2 0x100 EXP SWAP1 DIV PUSH20 0xFFFFFFFFFFFFFFFFFFFFFFFFFFFFFFFFFFFFFFFF AND DUP2 JUMP JUMPDEST PUSH3 0x18A6 CALLER PUSH3 0x42F9 JUMP JUMPDEST PUSH3 0x18E8 JUMPI PUSH1 0x40 MLOAD PUSH32 0x8C379A000000000000000000000000000000000000000000000000000000000 DUP2 MSTORE PUSH1 0x4 ADD PUSH3 0x18DF SWAP1 PUSH3 0x549C JUMP JUMPDEST PUSH1 0x40 MLOAD DUP1 SWAP2 SUB SWAP1 REVERT JUMPDEST PUSH3 0x18F2 PUSH3 0x44F4 JUMP JUMPDEST PUSH1 0x9 DUP1 SLOAD SWAP1 POP DUP3 LT PUSH3 0x193C JUMPI PUSH1 0x40 MLOAD PUSH32 0x8C379A000000000000000000000000000000000000000000000000000000000 DUP2 MSTORE PUSH1 0x4 ADD PUSH3 0x1933 SWAP1 PUSH3 0x5580 JUMP JUMPDEST PUSH1 0x40 MLOAD DUP1 SWAP2 SUB SWAP1 REVERT JUMPDEST PUSH1 0x0 PUSH1 0x9 DUP4 DUP2 SLOAD DUP2 LT PUSH3 0x1955 JUMPI PUSH3 0x1954 PUSH3 0x55A2 JUMP JUMPDEST JUMPDEST SWAP1 PUSH1 0x0 MSTORE PUSH1 0x20 PUSH1 0x0 KECCAK256 ADD PUSH1 0x0 SWAP1 SLOAD SWAP1 PUSH2 0x100 EXP SWAP1 DIV PUSH20 0xFFFFFFFFFFFFFFFFFFFFFFFFFFFFFFFFFFFFFFFF AND SWAP1 POP PUSH1 0x0 DUP2 SWAP1 POP PUSH1 0x10 PUSH1 0x0 DUP4 PUSH20 0xFFFFFFFFFFFFFFFFFFFFFFFFFFFFFFFFFFFFFFFF AND PUSH20 0xFFFFFFFFFFFFFFFFFFFFFFFFFFFFFFFFFFFFFFFF AND DUP2 MSTORE PUSH1 0x20 ADD SWAP1 DUP2 MSTORE PUSH1 0x20 ADD PUSH1 0x0 KECCAK256 PUSH1 0x0 DUP5 PUSH20 0xFFFFFFFFFFFFFFFFFFFFFFFFFFFFFFFFFFFFFFFF AND PUSH20 0xFFFFFFFFFFFFFFFFFFFFFFFFFFFFFFFFFFFFFFFF AND DUP2 MSTORE PUSH1 0x20 ADD SWAP1 DUP2 MSTORE PUSH1 0x20 ADD PUSH1 0x0 KECCAK256 SLOAD PUSH1 0xF PUSH1 0x0 DUP3 DUP3 SLOAD PUSH3 0x1A17 SWAP2 SWAP1 PUSH3 0x59B9 JUMP JUMPDEST SWAP3 POP POP DUP2 SWAP1 SSTORE POP PUSH1 0x10 PUSH1 0x0 DUP4 PUSH20 0xFFFFFFFFFFFFFFFFFFFFFFFFFFFFFFFFFFFFFFFF AND PUSH20 0xFFFFFFFFFFFFFFFFFFFFFFFFFFFFFFFFFFFFFFFF AND DUP2 MSTORE PUSH1 0x20 ADD SWAP1 DUP2 MSTORE PUSH1 0x20 ADD PUSH1 0x0 KECCAK256 PUSH1 0x0 DUP5 PUSH20 0xFFFFFFFFFFFFFFFFFFFFFFFFFFFFFFFFFFFFFFFF AND PUSH20 0xFFFFFFFFFFFFFFFFFFFFFFFFFFFFFFFFFFFFFFFF AND DUP2 MSTORE PUSH1 0x20 ADD SWAP1 DUP2 MSTORE PUSH1 0x20 ADD PUSH1 0x0 KECCAK256 PUSH1 0x0 SWAP1 SSTORE PUSH32 0x6B0051E95583814D3DF346D6CB3E5C876BB941024D1A681A7A9B6BEE5A74A73D DUP3 DUP5 PUSH1 0x40 MLOAD PUSH3 0x1AD1 SWAP3 SWAP2 SWAP1 PUSH3 0x5A04 JUMP JUMPDEST PUSH1 0x40 MLOAD DUP1 SWAP2 SUB SWAP1 LOG1 DUP1 PUSH20 0xFFFFFFFFFFFFFFFFFFFFFFFFFFFFFFFFFFFFFFFF AND PUSH4 0xC90EEE83 DUP5 PUSH1 0x40 MLOAD DUP3 PUSH4 0xFFFFFFFF AND PUSH1 0xE0 SHL DUP2 MSTORE PUSH1 0x4 ADD PUSH3 0x1B14 SWAP2 SWAP1 PUSH3 0x5116 JUMP JUMPDEST PUSH1 0x0 PUSH1 0x40 MLOAD DUP1 DUP4 SUB DUP2 PUSH1 0x0 DUP8 DUP1 EXTCODESIZE ISZERO DUP1 ISZERO PUSH3 0x1B2F JUMPI PUSH1 0x0 DUP1 REVERT JUMPDEST POP GAS CALL ISZERO DUP1 ISZERO PUSH3 0x1B44 JUMPI RETURNDATASIZE PUSH1 0x0 DUP1 RETURNDATACOPY RETURNDATASIZE PUSH1 0x0 REVERT JUMPDEST POP POP POP POP POP POP PUSH3 0x1B54 PUSH3 0x4546 JUMP JUMPDEST POP POP JUMP JUMPDEST PUSH3 0x1B63 CALLER PUSH3 0x42F9 JUMP JUMPDEST PUSH3 0x1BA5 JUMPI PUSH1 0x40 MLOAD PUSH32 0x8C379A000000000000000000000000000000000000000000000000000000000 DUP2 MSTORE PUSH1 0x4 ADD PUSH3 0x1B9C SWAP1 PUSH3 0x549C JUMP JUMPDEST PUSH1 0x40 MLOAD DUP1 SWAP2 SUB SWAP1 REVERT JUMPDEST PUSH1 0x5 PUSH1 0x0 SWAP1 SLOAD SWAP1 PUSH2 0x100 EXP SWAP1 DIV PUSH20 0xFFFFFFFFFFFFFFFFFFFFFFFFFFFFFFFFFFFFFFFF AND PUSH20 0xFFFFFFFFFFFFFFFFFFFFFFFFFFFFFFFFFFFFFFFF AND PUSH4 0x146CA531 PUSH1 0x40 MLOAD DUP2 PUSH4 0xFFFFFFFF AND PUSH1 0xE0 SHL DUP2 MSTORE PUSH1 0x4 ADD PUSH1 0x20 PUSH1 0x40 MLOAD DUP1 DUP4 SUB DUP2 DUP7 GAS STATICCALL ISZERO DUP1 ISZERO PUSH3 0x1C13 JUMPI RETURNDATASIZE PUSH1 0x0 DUP1 RETURNDATACOPY RETURNDATASIZE PUSH1 0x0 REVERT JUMPDEST POP POP POP POP PUSH1 0x40 MLOAD RETURNDATASIZE PUSH1 0x1F NOT PUSH1 0x1F DUP3 ADD AND DUP3 ADD DUP1 PUSH1 0x40 MSTORE POP DUP2 ADD SWAP1 PUSH3 0x1C39 SWAP2 SWAP1 PUSH3 0x55E8 JUMP JUMPDEST PUSH1 0xF0 PUSH20 0x0 PUSH4 0xCC9F49C5 PUSH1 0x15 PUSH1 0x40 MLOAD DUP3 PUSH4 0xFFFFFFFF AND PUSH1 0xE0 SHL DUP2 MSTORE PUSH1 0x4 ADD PUSH3 0x1C75 SWAP2 SWAP1 PUSH3 0x596F JUMP JUMPDEST PUSH1 0x60 PUSH1 0x40 MLOAD DUP1 DUP4 SUB DUP2 DUP7 GAS DELEGATECALL ISZERO DUP1 ISZERO PUSH3 0x1C93 JUMPI RETURNDATASIZE PUSH1 0x0 DUP1 RETURNDATACOPY RETURNDATASIZE PUSH1 0x0 REVERT JUMPDEST POP POP POP POP PUSH1 0x40 MLOAD RETURNDATASIZE PUSH1 0x1F NOT PUSH1 0x1F DUP3 ADD AND DUP3 ADD DUP1 PUSH1 0x40 MSTORE POP DUP2 ADD SWAP1 PUSH3 0x1CB9 SWAP2 SWAP1 PUSH3 0x5B51 JUMP JUMPDEST PUSH1 0x40 ADD MLOAD PUSH3 0x1CC9 SWAP2 SWAP1 PUSH3 0x5B83 JUMP JUMPDEST LT ISZERO PUSH3 0x1D0D JUMPI PUSH1 0x40 MLOAD PUSH32 0x8C379A000000000000000000000000000000000000000000000000000000000 DUP2 MSTORE PUSH1 0x4 ADD PUSH3 0x1D04 SWAP1 PUSH3 0x5C0E JUMP JUMPDEST PUSH1 0x40 MLOAD DUP1 SWAP2 SUB SWAP1 REVERT JUMPDEST PUSH1 0x0 PUSH1 0x8 PUSH1 0x14 PUSH2 0x100 EXP DUP2 SLOAD DUP2 PUSH1 0xFF MUL NOT AND SWAP1 DUP4 ISZERO ISZERO MUL OR SWAP1 SSTORE POP PUSH32 0xFCBCD01AE4B89985F01B11A56EAF3F59EE38B0C26290A0387BD7297D36719B5D PUSH1 0x40 MLOAD PUSH1 0x40 MLOAD DUP1 SWAP2 SUB SWAP1 LOG1 JUMP JUMPDEST PUSH1 0x0 PUSH3 0x1D63 CALLER PUSH3 0x42F9 JUMP JUMPDEST PUSH3 0x1DA5 JUMPI PUSH1 0x40 MLOAD PUSH32 0x8C379A000000000000000000000000000000000000000000000000000000000 DUP2 MSTORE PUSH1 0x4 ADD PUSH3 0x1D9C SWAP1 PUSH3 0x549C JUMP JUMPDEST PUSH1 0x40 MLOAD DUP1 SWAP2 SUB SWAP1 REVERT JUMPDEST PUSH1 0x0 PUSH1 0xF SLOAD PUSH1 0xE SLOAD SLT PUSH3 0x1DBC JUMPI PUSH1 0xF SLOAD PUSH3 0x1DC0 JUMP JUMPDEST PUSH1 0xE SLOAD JUMPDEST SWAP1 POP DUP1 PUSH1 0xE PUSH1 0x0 DUP3 DUP3 SLOAD PUSH3 0x1DD6 SWAP2 SWAP1 PUSH3 0x5C30 JUMP JUMPDEST SWAP3 POP POP DUP2 SWAP1 SSTORE POP DUP1 PUSH1 0xF PUSH1 0x0 DUP3 DUP3 SLOAD PUSH3 0x1DF1 SWAP2 SWAP1 PUSH3 0x5C30 JUMP JUMPDEST SWAP3 POP POP DUP2 SWAP1 SSTORE POP PUSH31 0x3882DE3DF515A586842AF2D5AE019E6BF58D7266712F58E79E761A4F5D91D4 DUP2 PUSH1 0x40 MLOAD PUSH3 0x1E28 SWAP2 SWAP1 PUSH3 0x51C3 JUMP JUMPDEST PUSH1 0x40 MLOAD DUP1 SWAP2 SUB SWAP1 LOG1 DUP1 SWAP2 POP POP SWAP1 JUMP JUMPDEST PUSH3 0x1E42 CALLER PUSH3 0x42F9 JUMP JUMPDEST PUSH3 0x1E84 JUMPI PUSH1 0x40 MLOAD PUSH32 0x8C379A000000000000000000000000000000000000000000000000000000000 DUP2 MSTORE PUSH1 0x4 ADD PUSH3 0x1E7B SWAP1 PUSH3 0x549C JUMP JUMPDEST PUSH1 0x40 MLOAD DUP1 SWAP2 SUB SWAP1 REVERT JUMPDEST PUSH3 0x1E8E PUSH3 0x44F4 JUMP JUMPDEST PUSH1 0x9 DUP1 SLOAD SWAP1 POP DUP4 LT PUSH3 0x1ED8 JUMPI PUSH1 0x40 MLOAD PUSH32 0x8C379A000000000000000000000000000000000000000000000000000000000 DUP2 MSTORE PUSH1 0x4 ADD PUSH3 0x1ECF SWAP1 PUSH3 0x5580 JUMP JUMPDEST PUSH1 0x40 MLOAD DUP1 SWAP2 SUB SWAP1 REVERT JUMPDEST DUP1 PUSH1 0xE PUSH1 0x0 DUP3 DUP3 SLOAD PUSH3 0x1EEC SWAP2 SWAP1 PUSH3 0x5C30 JUMP JUMPDEST SWAP3 POP POP DUP2 SWAP1 SSTORE POP PUSH1 0x0 PUSH1 0x9 DUP5 DUP2 SLOAD DUP2 LT PUSH3 0x1F0C JUMPI PUSH3 0x1F0B PUSH3 0x55A2 JUMP JUMPDEST JUMPDEST SWAP1 PUSH1 0x0 MSTORE PUSH1 0x20 PUSH1 0x0 KECCAK256 ADD PUSH1 0x0 SWAP1 SLOAD SWAP1 PUSH2 0x100 EXP SWAP1 DIV PUSH20 0xFFFFFFFFFFFFFFFFFFFFFFFFFFFFFFFFFFFFFFFF AND SWAP1 POP PUSH1 0x0 DUP2 SWAP1 POP PUSH32 0xAD79328E8502097ED263893551CE1580715CDEE9ED2F17218107AEE878968AAB DUP3 DUP5 PUSH1 0x40 MLOAD PUSH3 0x1F71 SWAP3 SWAP2 SWAP1 PUSH3 0x598C JUMP JUMPDEST PUSH1 0x40 MLOAD DUP1 SWAP2 SUB SWAP1 LOG1 PUSH32 0x12A195BD39BCF87CB43D15AEBC16FDBC683D5FDFB884876AD7EB0B5E5D93062 DUP3 DUP6 DUP6 PUSH1 0x40 MLOAD PUSH3 0x1FAE SWAP4 SWAP3 SWAP2 SWAP1 PUSH3 0x5C7A JUMP JUMPDEST PUSH1 0x40 MLOAD DUP1 SWAP2 SUB SWAP1 LOG1 DUP1 PUSH20 0xFFFFFFFFFFFFFFFFFFFFFFFFFFFFFFFFFFFFFFFF AND PUSH4 0xD0E30DB0 DUP5 PUSH1 0x40 MLOAD DUP3 PUSH4 0xFFFFFFFF AND PUSH1 0xE0 SHL DUP2 MSTORE PUSH1 0x4 ADD PUSH1 0x0 PUSH1 0x40 MLOAD DUP1 DUP4 SUB DUP2 DUP6 DUP9 DUP1 EXTCODESIZE ISZERO DUP1 ISZERO PUSH3 0x1FFF JUMPI PUSH1 0x0 DUP1 REVERT JUMPDEST POP GAS CALL ISZERO DUP1 ISZERO PUSH3 0x2014 JUMPI RETURNDATASIZE PUSH1 0x0 DUP1 RETURNDATACOPY RETURNDATASIZE PUSH1 0x0 REVERT JUMPDEST POP POP POP POP POP DUP1 PUSH20 0xFFFFFFFFFFFFFFFFFFFFFFFFFFFFFFFFFFFFFFFF AND PUSH4 0x26E402B DUP6 DUP6 PUSH1 0x40 MLOAD DUP4 PUSH4 0xFFFFFFFF AND PUSH1 0xE0 SHL DUP2 MSTORE PUSH1 0x4 ADD PUSH3 0x2056 SWAP3 SWAP2 SWAP1 PUSH3 0x598C JUMP JUMPDEST PUSH1 0x0 PUSH1 0x40 MLOAD DUP1 DUP4 SUB DUP2 PUSH1 0x0 DUP8 DUP1 EXTCODESIZE ISZERO DUP1 ISZERO PUSH3 0x2071 JUMPI PUSH1 0x0 DUP1 REVERT JUMPDEST POP GAS CALL ISZERO DUP1 ISZERO PUSH3 0x2086 JUMPI RETURNDATASIZE PUSH1 0x0 DUP1 RETURNDATACOPY RETURNDATASIZE PUSH1 0x0 REVERT JUMPDEST POP POP POP POP POP POP PUSH3 0x2096 PUSH3 0x4546 JUMP JUMPDEST POP POP POP JUMP JUMPDEST PUSH3 0x20A6 CALLER PUSH3 0x42F9 JUMP JUMPDEST PUSH3 0x20E8 JUMPI PUSH1 0x40 MLOAD PUSH32 0x8C379A000000000000000000000000000000000000000000000000000000000 DUP2 MSTORE PUSH1 0x4 ADD PUSH3 0x20DF SWAP1 PUSH3 0x549C JUMP JUMPDEST PUSH1 0x40 MLOAD DUP1 SWAP2 SUB SWAP1 REVERT JUMPDEST PUSH3 0x20F2 PUSH3 0x44F4 JUMP JUMPDEST PUSH1 0x9 DUP1 SLOAD SWAP1 POP DUP5 LT PUSH3 0x213C JUMPI PUSH1 0x40 MLOAD PUSH32 0x8C379A000000000000000000000000000000000000000000000000000000000 DUP2 MSTORE PUSH1 0x4 ADD PUSH3 0x2133 SWAP1 PUSH3 0x5580 JUMP JUMPDEST PUSH1 0x40 MLOAD DUP1 SWAP2 SUB SWAP1 REVERT JUMPDEST PUSH1 0x0 PUSH1 0x9 DUP6 DUP2 SLOAD DUP2 LT PUSH3 0x2155 JUMPI PUSH3 0x2154 PUSH3 0x55A2 JUMP JUMPDEST JUMPDEST SWAP1 PUSH1 0x0 MSTORE PUSH1 0x20 PUSH1 0x0 KECCAK256 ADD PUSH1 0x0 SWAP1 SLOAD SWAP1 PUSH2 0x100 EXP SWAP1 DIV PUSH20 0xFFFFFFFFFFFFFFFFFFFFFFFFFFFFFFFFFFFFFFFF AND SWAP1 POP PUSH32 0x51BE0E166090283A4EB1BA4CE54022F6BC0C780398B49DA4EC3FD79350D67B71 DUP2 DUP6 DUP6 PUSH1 0x40 MLOAD PUSH3 0x21B7 SWAP4 SWAP3 SWAP2 SWAP1 PUSH3 0x5C7A JUMP JUMPDEST PUSH1 0x40 MLOAD DUP1 SWAP2 SUB SWAP1 LOG1 DUP1 PUSH20 0xFFFFFFFFFFFFFFFFFFFFFFFFFFFFFFFFFFFFFFFF AND PUSH4 0xFB79716F DUP6 DUP6 DUP6 PUSH1 0x40 MLOAD DUP5 PUSH4 0xFFFFFFFF AND PUSH1 0xE0 SHL DUP2 MSTORE PUSH1 0x4 ADD PUSH3 0x21FE SWAP4 SWAP3 SWAP2 SWAP1 PUSH3 0x5CB7 JUMP JUMPDEST PUSH1 0x0 PUSH1 0x40 MLOAD DUP1 DUP4 SUB DUP2 PUSH1 0x0 DUP8 DUP1 EXTCODESIZE ISZERO DUP1 ISZERO PUSH3 0x2219 JUMPI PUSH1 0x0 DUP1 REVERT JUMPDEST POP GAS CALL ISZERO DUP1 ISZERO PUSH3 0x222E JUMPI RETURNDATASIZE PUSH1 0x0 DUP1 RETURNDATACOPY RETURNDATASIZE PUSH1 0x0 REVERT JUMPDEST POP POP POP POP POP PUSH3 0x223D PUSH3 0x4546 JUMP JUMPDEST POP POP POP POP JUMP JUMPDEST PUSH3 0x224E CALLER PUSH3 0x42F9 JUMP JUMPDEST PUSH3 0x2290 JUMPI PUSH1 0x40 MLOAD PUSH32 0x8C379A000000000000000000000000000000000000000000000000000000000 DUP2 MSTORE PUSH1 0x4 ADD PUSH3 0x2287 SWAP1 PUSH3 0x549C JUMP JUMPDEST PUSH1 0x40 MLOAD DUP1 SWAP2 SUB SWAP1 REVERT JUMPDEST PUSH1 0x7 PUSH1 0x0 SWAP1 SLOAD SWAP1 PUSH2 0x100 EXP SWAP1 DIV PUSH20 0xFFFFFFFFFFFFFFFFFFFFFFFFFFFFFFFFFFFFFFFF AND PUSH20 0xFFFFFFFFFFFFFFFFFFFFFFFFFFFFFFFFFFFFFFFF AND PUSH4 0x18160DDD PUSH1 0x40 MLOAD DUP2 PUSH4 0xFFFFFFFF AND PUSH1 0xE0 SHL DUP2 MSTORE PUSH1 0x4 ADD PUSH1 0x20 PUSH1 0x40 MLOAD DUP1 DUP4 SUB DUP2 DUP7 GAS STATICCALL ISZERO DUP1 ISZERO PUSH3 0x22FE JUMPI RETURNDATASIZE PUSH1 0x0 DUP1 RETURNDATACOPY RETURNDATASIZE PUSH1 0x0 REVERT JUMPDEST POP POP POP POP PUSH1 0x40 MLOAD RETURNDATASIZE PUSH1 0x1F NOT PUSH1 0x1F DUP3 ADD AND DUP3 ADD DUP1 PUSH1 0x40 MSTORE POP DUP2 ADD SWAP1 PUSH3 0x2324 SWAP2 SWAP1 PUSH3 0x55E8 JUMP JUMPDEST DUP2 LT ISZERO PUSH3 0x2369 JUMPI PUSH1 0x40 MLOAD PUSH32 0x8C379A000000000000000000000000000000000000000000000000000000000 DUP2 MSTORE PUSH1 0x4 ADD PUSH3 0x2360 SWAP1 PUSH3 0x5D44 JUMP JUMPDEST PUSH1 0x40 MLOAD DUP1 SWAP2 SUB SWAP1 REVERT JUMPDEST DUP1 PUSH1 0x13 DUP2 SWAP1 SSTORE POP PUSH32 0x3C6E5B959F579AA3DF4C5E9591BDA140AAFC147219D7FF89D37C7D497BE47BCB DUP2 PUSH1 0x40 MLOAD PUSH3 0x23A1 SWAP2 SWAP1 PUSH3 0x5144 JUMP JUMPDEST PUSH1 0x40 MLOAD DUP1 SWAP2 SUB SWAP1 LOG1 POP JUMP JUMPDEST PUSH3 0x23B7 CALLER PUSH3 0x42F9 JUMP JUMPDEST PUSH3 0x23F9 JUMPI PUSH1 0x40 MLOAD PUSH32 0x8C379A000000000000000000000000000000000000000000000000000000000 DUP2 MSTORE PUSH1 0x4 ADD PUSH3 0x23F0 SWAP1 PUSH3 0x549C JUMP JUMPDEST PUSH1 0x40 MLOAD DUP1 SWAP2 SUB SWAP1 REVERT JUMPDEST PUSH3 0x2403 PUSH3 0x44F4 JUMP JUMPDEST PUSH1 0x9 DUP1 SLOAD SWAP1 POP DUP4 LT PUSH3 0x244D JUMPI PUSH1 0x40 MLOAD PUSH32 0x8C379A000000000000000000000000000000000000000000000000000000000 DUP2 MSTORE PUSH1 0x4 ADD PUSH3 0x2444 SWAP1 PUSH3 0x5580 JUMP JUMPDEST PUSH1 0x40 MLOAD DUP1 SWAP2 SUB SWAP1 REVERT JUMPDEST PUSH1 0x0 PUSH1 0x9 DUP5 DUP2 SLOAD DUP2 LT PUSH3 0x2466 JUMPI PUSH3 0x2465 PUSH3 0x55A2 JUMP JUMPDEST JUMPDEST SWAP1 PUSH1 0x0 MSTORE PUSH1 0x20 PUSH1 0x0 KECCAK256 ADD PUSH1 0x0 SWAP1 SLOAD SWAP1 PUSH2 0x100 EXP SWAP1 DIV PUSH20 0xFFFFFFFFFFFFFFFFFFFFFFFFFFFFFFFFFFFFFFFF AND SWAP1 POP PUSH1 0x0 DUP2 SWAP1 POP PUSH32 0xAD79328E8502097ED263893551CE1580715CDEE9ED2F17218107AEE878968AAB DUP3 DUP5 PUSH1 0x40 MLOAD PUSH3 0x24CB SWAP3 SWAP2 SWAP1 PUSH3 0x598C JUMP JUMPDEST PUSH1 0x40 MLOAD DUP1 SWAP2 SUB SWAP1 LOG1 PUSH32 0x1DB05274D7B173F25E528EBF8447C49A6996BDCFBF688A40D4036DEE7871EB63 DUP3 DUP6 DUP6 PUSH1 0x40 MLOAD PUSH3 0x2508 SWAP4 SWAP3 SWAP2 SWAP1 PUSH3 0x5C7A JUMP JUMPDEST PUSH1 0x40 MLOAD DUP1 SWAP2 SUB SWAP1 LOG1 DUP1 PUSH20 0xFFFFFFFFFFFFFFFFFFFFFFFFFFFFFFFFFFFFFFFF AND PUSH4 0xD0E30DB0 DUP5 PUSH1 0x40 MLOAD DUP3 PUSH4 0xFFFFFFFF AND PUSH1 0xE0 SHL DUP2 MSTORE PUSH1 0x4 ADD PUSH1 0x0 PUSH1 0x40 MLOAD DUP1 DUP4 SUB DUP2 DUP6 DUP9 DUP1 EXTCODESIZE ISZERO DUP1 ISZERO PUSH3 0x2559 JUMPI PUSH1 0x0 DUP1 REVERT JUMPDEST POP GAS CALL ISZERO DUP1 ISZERO PUSH3 0x256E JUMPI RETURNDATASIZE PUSH1 0x0 DUP1 RETURNDATACOPY RETURNDATASIZE PUSH1 0x0 REVERT JUMPDEST POP POP POP POP POP DUP1 PUSH20 0xFFFFFFFFFFFFFFFFFFFFFFFFFFFFFFFFFFFFFFFF AND PUSH4 0x465135B DUP6 DUP6 PUSH1 0x40 MLOAD DUP4 PUSH4 0xFFFFFFFF AND PUSH1 0xE0 SHL DUP2 MSTORE PUSH1 0x4 ADD PUSH3 0x25B0 SWAP3 SWAP2 SWAP1 PUSH3 0x598C JUMP JUMPDEST PUSH1 0x0 PUSH1 0x40 MLOAD DUP1 DUP4 SUB DUP2 PUSH1 0x0 DUP8 DUP1 EXTCODESIZE ISZERO DUP1 ISZERO PUSH3 0x25CB JUMPI PUSH1 0x0 DUP1 REVERT JUMPDEST POP GAS CALL ISZERO DUP1 ISZERO PUSH3 0x25E0 JUMPI RETURNDATASIZE PUSH1 0x0 DUP1 RETURNDATACOPY RETURNDATASIZE PUSH1 0x0 REVERT JUMPDEST POP POP POP POP POP POP PUSH3 0x25F0 PUSH3 0x4546 JUMP JUMPDEST POP POP POP JUMP JUMPDEST PUSH3 0x2600 CALLER PUSH3 0x42F9 JUMP JUMPDEST PUSH3 0x2642 JUMPI PUSH1 0x40 MLOAD PUSH32 0x8C379A000000000000000000000000000000000000000000000000000000000 DUP2 MSTORE PUSH1 0x4 ADD PUSH3 0x2639 SWAP1 PUSH3 0x549C JUMP JUMPDEST PUSH1 0x40 MLOAD DUP1 SWAP2 SUB SWAP1 REVERT JUMPDEST PUSH3 0x264C PUSH3 0x44F4 JUMP JUMPDEST PUSH1 0x9 DUP1 SLOAD SWAP1 POP DUP4 LT PUSH3 0x2696 JUMPI PUSH1 0x40 MLOAD PUSH32 0x8C379A000000000000000000000000000000000000000000000000000000000 DUP2 MSTORE PUSH1 0x4 ADD PUSH3 0x268D SWAP1 PUSH3 0x5580 JUMP JUMPDEST PUSH1 0x40 MLOAD DUP1 SWAP2 SUB SWAP1 REVERT JUMPDEST DUP1 PUSH1 0xF PUSH1 0x0 DUP3 DUP3 SLOAD PUSH3 0x26AA SWAP2 SWAP1 PUSH3 0x5C30 JUMP JUMPDEST SWAP3 POP POP DUP2 SWAP1 SSTORE POP PUSH1 0x0 PUSH1 0x9 DUP5 DUP2 SLOAD DUP2 LT PUSH3 0x26CA JUMPI PUSH3 0x26C9 PUSH3 0x55A2 JUMP JUMPDEST JUMPDEST SWAP1 PUSH1 0x0 MSTORE PUSH1 0x20 PUSH1 0x0 KECCAK256 ADD PUSH1 0x0 SWAP1 SLOAD SWAP1 PUSH2 0x100 EXP SWAP1 DIV PUSH20 0xFFFFFFFFFFFFFFFFFFFFFFFFFFFFFFFFFFFFFFFF AND SWAP1 POP PUSH1 0x0 DUP2 SWAP1 POP DUP3 PUSH1 0x10 PUSH1 0x0 DUP5 PUSH20 0xFFFFFFFFFFFFFFFFFFFFFFFFFFFFFFFFFFFFFFFF AND PUSH20 0xFFFFFFFFFFFFFFFFFFFFFFFFFFFFFFFFFFFFFFFF AND DUP2 MSTORE PUSH1 0x20 ADD SWAP1 DUP2 MSTORE PUSH1 0x20 ADD PUSH1 0x0 KECCAK256 PUSH1 0x0 DUP7 PUSH20 0xFFFFFFFFFFFFFFFFFFFFFFFFFFFFFFFFFFFFFFFF AND PUSH20 0xFFFFFFFFFFFFFFFFFFFFFFFFFFFFFFFFFFFFFFFF AND DUP2 MSTORE PUSH1 0x20 ADD SWAP1 DUP2 MSTORE PUSH1 0x20 ADD PUSH1 0x0 KECCAK256 DUP2 SWAP1 SSTORE POP PUSH32 0x7EBD227AEC7AF07729B9E66C73844E84CC2231ED22DE82CF40FB0F0D30973BEA DUP3 DUP6 DUP6 PUSH1 0x40 MLOAD PUSH3 0x27B2 SWAP4 SWAP3 SWAP2 SWAP1 PUSH3 0x5C7A JUMP JUMPDEST PUSH1 0x40 MLOAD DUP1 SWAP2 SUB SWAP1 LOG1 DUP1 PUSH20 0xFFFFFFFFFFFFFFFFFFFFFFFFFFFFFFFFFFFFFFFF AND PUSH4 0xC172FD2B DUP6 DUP6 PUSH1 0x40 MLOAD DUP4 PUSH4 0xFFFFFFFF AND PUSH1 0xE0 SHL DUP2 MSTORE PUSH1 0x4 ADD PUSH3 0x27F7 SWAP3 SWAP2 SWAP1 PUSH3 0x598C JUMP JUMPDEST PUSH1 0x0 PUSH1 0x40 MLOAD DUP1 DUP4 SUB DUP2 PUSH1 0x0 DUP8 DUP1 EXTCODESIZE ISZERO DUP1 ISZERO PUSH3 0x2812 JUMPI PUSH1 0x0 DUP1 REVERT JUMPDEST POP GAS CALL ISZERO DUP1 ISZERO PUSH3 0x2827 JUMPI RETURNDATASIZE PUSH1 0x0 DUP1 RETURNDATACOPY RETURNDATASIZE PUSH1 0x0 REVERT JUMPDEST POP POP POP POP POP POP PUSH3 0x2837 PUSH3 0x4546 JUMP JUMPDEST POP POP POP JUMP JUMPDEST PUSH3 0x2847 CALLER PUSH3 0x42F9 JUMP JUMPDEST PUSH3 0x2889 JUMPI PUSH1 0x40 MLOAD PUSH32 0x8C379A000000000000000000000000000000000000000000000000000000000 DUP2 MSTORE PUSH1 0x4 ADD PUSH3 0x2880 SWAP1 PUSH3 0x549C JUMP JUMPDEST PUSH1 0x40 MLOAD DUP1 SWAP2 SUB SWAP1 REVERT JUMPDEST DUP1 PUSH1 0xB PUSH1 0x0 PUSH2 0x100 EXP DUP2 SLOAD DUP2 PUSH1 0xFF MUL NOT AND SWAP1 DUP4 ISZERO ISZERO MUL OR SWAP1 SSTORE POP PUSH32 0x698266BAC0DD17F73BFB61FFDBEA86C62B81140B1900F156EA66D7ECDAA3C5B8 DUP2 PUSH1 0x40 MLOAD PUSH3 0x28D4 SWAP2 SWAP1 PUSH3 0x53BE JUMP JUMPDEST PUSH1 0x40 MLOAD DUP1 SWAP2 SUB SWAP1 LOG1 POP JUMP JUMPDEST PUSH1 0x0 PUSH1 0x5 PUSH1 0x0 SWAP1 SLOAD SWAP1 PUSH2 0x100 EXP SWAP1 DIV PUSH20 0xFFFFFFFFFFFFFFFFFFFFFFFFFFFFFFFFFFFFFFFF AND PUSH20 0xFFFFFFFFFFFFFFFFFFFFFFFFFFFFFFFFFFFFFFFF AND PUSH4 0x146CA531 PUSH1 0x40 MLOAD DUP2 PUSH4 0xFFFFFFFF AND PUSH1 0xE0 SHL DUP2 MSTORE PUSH1 0x4 ADD PUSH1 0x20 PUSH1 0x40 MLOAD DUP1 DUP4 SUB DUP2 DUP7 GAS STATICCALL ISZERO DUP1 ISZERO PUSH3 0x294F JUMPI RETURNDATASIZE PUSH1 0x0 DUP1 RETURNDATACOPY RETURNDATASIZE PUSH1 0x0 REVERT JUMPDEST POP POP POP POP PUSH1 0x40 MLOAD RETURNDATASIZE PUSH1 0x1F NOT PUSH1 0x1F DUP3 ADD AND DUP3 ADD DUP1 PUSH1 0x40 MSTORE POP DUP2 ADD SWAP1 PUSH3 0x2975 SWAP2 SWAP1 PUSH3 0x55E8 JUMP JUMPDEST PUSH1 0xF0 PUSH20 0x0 PUSH4 0xCC9F49C5 PUSH1 0x15 PUSH1 0x40 MLOAD DUP3 PUSH4 0xFFFFFFFF AND PUSH1 0xE0 SHL DUP2 MSTORE PUSH1 0x4 ADD PUSH3 0x29B1 SWAP2 SWAP1 PUSH3 0x596F JUMP JUMPDEST PUSH1 0x60 PUSH1 0x40 MLOAD DUP1 DUP4 SUB DUP2 DUP7 GAS DELEGATECALL ISZERO DUP1 ISZERO PUSH3 0x29CF JUMPI RETURNDATASIZE PUSH1 0x0 DUP1 RETURNDATACOPY RETURNDATASIZE PUSH1 0x0 REVERT JUMPDEST POP POP POP POP PUSH1 0x40 MLOAD RETURNDATASIZE PUSH1 0x1F NOT PUSH1 0x1F DUP3 ADD AND DUP3 ADD DUP1 PUSH1 0x40 MSTORE POP DUP2 ADD SWAP1 PUSH3 0x29F5 SWAP2 SWAP1 PUSH3 0x5B51 JUMP JUMPDEST PUSH1 0x40 ADD MLOAD PUSH3 0x2A05 SWAP2 SWAP1 PUSH3 0x5B83 JUMP JUMPDEST LT SWAP1 POP DUP1 PUSH3 0x2A4B JUMPI PUSH1 0x40 MLOAD PUSH32 0x8C379A000000000000000000000000000000000000000000000000000000000 DUP2 MSTORE PUSH1 0x4 ADD PUSH3 0x2A42 SWAP1 PUSH3 0x5C0E JUMP JUMPDEST PUSH1 0x40 MLOAD DUP1 SWAP2 SUB SWAP1 REVERT JUMPDEST PUSH32 0xC056F536EA217AFBF0859CBB8EA7D2451FC6079BA2BADBBAE65CF342DDA46FDE PUSH1 0x40 MLOAD PUSH1 0x40 MLOAD DUP1 SWAP2 SUB SWAP1 LOG1 PUSH1 0x1 PUSH1 0x8 PUSH1 0x14 PUSH2 0x100 EXP DUP2 SLOAD DUP2 PUSH1 0xFF MUL NOT AND SWAP1 DUP4 ISZERO ISZERO MUL OR SWAP1 SSTORE POP POP JUMP JUMPDEST PUSH1 0xF SLOAD DUP2 JUMP JUMPDEST PUSH3 0x2AA6 CALLER PUSH3 0x42F9 JUMP JUMPDEST PUSH3 0x2AE8 JUMPI PUSH1 0x40 MLOAD PUSH32 0x8C379A000000000000000000000000000000000000000000000000000000000 DUP2 MSTORE PUSH1 0x4 ADD PUSH3 0x2ADF SWAP1 PUSH3 0x549C JUMP JUMPDEST PUSH1 0x40 MLOAD DUP1 SWAP2 SUB SWAP1 REVERT JUMPDEST DUP1 PUSH1 0xE PUSH1 0x0 DUP3 DUP3 SLOAD PUSH3 0x2AFC SWAP2 SWAP1 PUSH3 0x5C30 JUMP JUMPDEST SWAP3 POP POP DUP2 SWAP1 SSTORE POP DUP1 PUSH1 0xF PUSH1 0x0 DUP3 DUP3 SLOAD PUSH3 0x2B17 SWAP2 SWAP1 PUSH3 0x5C30 JUMP JUMPDEST SWAP3 POP POP DUP2 SWAP1 SSTORE POP PUSH31 0x3882DE3DF515A586842AF2D5AE019E6BF58D7266712F58E79E761A4F5D91D4 DUP2 PUSH1 0x40 MLOAD PUSH3 0x2B4E SWAP2 SWAP1 PUSH3 0x51C3 JUMP JUMPDEST PUSH1 0x40 MLOAD DUP1 SWAP2 SUB SWAP1 LOG1 POP JUMP JUMPDEST PUSH3 0x2B64 CALLER PUSH3 0x42F9 JUMP JUMPDEST PUSH3 0x2BA6 JUMPI PUSH1 0x40 MLOAD PUSH32 0x8C379A000000000000000000000000000000000000000000000000000000000 DUP2 MSTORE PUSH1 0x4 ADD PUSH3 0x2B9D SWAP1 PUSH3 0x549C JUMP JUMPDEST PUSH1 0x40 MLOAD DUP1 SWAP2 SUB SWAP1 REVERT JUMPDEST PUSH3 0x2BB0 PUSH3 0x44F4 JUMP JUMPDEST PUSH3 0x2BBC DUP3 DUP3 PUSH3 0x46A1 JUMP JUMPDEST PUSH3 0x2BC6 PUSH3 0x4546 JUMP JUMPDEST POP POP JUMP JUMPDEST PUSH3 0x2BD5 CALLER PUSH3 0x42F9 JUMP JUMPDEST PUSH3 0x2C17 JUMPI PUSH1 0x40 MLOAD PUSH32 0x8C379A000000000000000000000000000000000000000000000000000000000 DUP2 MSTORE PUSH1 0x4 ADD PUSH3 0x2C0E SWAP1 PUSH3 0x549C JUMP JUMPDEST PUSH1 0x40 MLOAD DUP1 SWAP2 SUB SWAP1 REVERT JUMPDEST PUSH3 0x2C21 PUSH3 0x44F4 JUMP JUMPDEST PUSH1 0x9 DUP1 SLOAD SWAP1 POP DUP4 LT PUSH3 0x2C6B JUMPI PUSH1 0x40 MLOAD PUSH32 0x8C379A000000000000000000000000000000000000000000000000000000000 DUP2 MSTORE PUSH1 0x4 ADD PUSH3 0x2C62 SWAP1 PUSH3 0x5580 JUMP JUMPDEST PUSH1 0x40 MLOAD DUP1 SWAP2 SUB SWAP1 REVERT JUMPDEST DUP1 PUSH1 0xE PUSH1 0x0 DUP3 DUP3 SLOAD PUSH3 0x2C7F SWAP2 SWAP1 PUSH3 0x5C30 JUMP JUMPDEST SWAP3 POP POP DUP2 SWAP1 SSTORE POP PUSH1 0x0 PUSH1 0x9 DUP5 DUP2 SLOAD DUP2 LT PUSH3 0x2C9F JUMPI PUSH3 0x2C9E PUSH3 0x55A2 JUMP JUMPDEST JUMPDEST SWAP1 PUSH1 0x0 MSTORE PUSH1 0x20 PUSH1 0x0 KECCAK256 ADD PUSH1 0x0 SWAP1 SLOAD SWAP1 PUSH2 0x100 EXP SWAP1 DIV PUSH20 0xFFFFFFFFFFFFFFFFFFFFFFFFFFFFFFFFFFFFFFFF AND SWAP1 POP PUSH32 0x1DB05274D7B173F25E528EBF8447C49A6996BDCFBF688A40D4036DEE7871EB63 DUP2 DUP5 DUP5 PUSH1 0x40 MLOAD PUSH3 0x2D01 SWAP4 SWAP3 SWAP2 SWAP1 PUSH3 0x5C7A JUMP JUMPDEST PUSH1 0x40 MLOAD DUP1 SWAP2 SUB SWAP1 LOG1 DUP1 PUSH20 0xFFFFFFFFFFFFFFFFFFFFFFFFFFFFFFFFFFFFFFFF AND PUSH4 0x465135B DUP5 DUP5 PUSH1 0x40 MLOAD DUP4 PUSH4 0xFFFFFFFF AND PUSH1 0xE0 SHL DUP2 MSTORE PUSH1 0x4 ADD PUSH3 0x2D46 SWAP3 SWAP2 SWAP1 PUSH3 0x598C JUMP JUMPDEST PUSH1 0x0 PUSH1 0x40 MLOAD DUP1 DUP4 SUB DUP2 PUSH1 0x0 DUP8 DUP1 EXTCODESIZE ISZERO DUP1 ISZERO PUSH3 0x2D61 JUMPI PUSH1 0x0 DUP1 REVERT JUMPDEST POP GAS CALL ISZERO DUP1 ISZERO PUSH3 0x2D76 JUMPI RETURNDATASIZE PUSH1 0x0 DUP1 RETURNDATACOPY RETURNDATASIZE PUSH1 0x0 REVERT JUMPDEST POP POP POP POP POP PUSH3 0x2D85 PUSH3 0x4546 JUMP JUMPDEST POP POP POP JUMP JUMPDEST PUSH1 0xC SLOAD DUP2 JUMP JUMPDEST PUSH1 0x1 PUSH1 0x0 SWAP1 SLOAD SWAP1 PUSH2 0x100 EXP SWAP1 DIV PUSH20 0xFFFFFFFFFFFFFFFFFFFFFFFFFFFFFFFFFFFFFFFF AND DUP2 JUMP JUMPDEST PUSH1 0x15 DUP1 PUSH1 0x1 ADD SLOAD SWAP1 DUP1 PUSH1 0x2 ADD SLOAD SWAP1 POP DUP3 JUMP JUMPDEST PUSH1 0x64 DUP2 JUMP JUMPDEST PUSH1 0xE SLOAD DUP2 JUMP JUMPDEST PUSH1 0x0 PUSH3 0x2DE0 CALLER PUSH3 0x42F9 JUMP JUMPDEST PUSH3 0x2E22 JUMPI PUSH1 0x40 MLOAD PUSH32 0x8C379A000000000000000000000000000000000000000000000000000000000 DUP2 MSTORE PUSH1 0x4 ADD PUSH3 0x2E19 SWAP1 PUSH3 0x549C JUMP JUMPDEST PUSH1 0x40 MLOAD DUP1 SWAP2 SUB SWAP1 REVERT JUMPDEST PUSH3 0x2E2C PUSH3 0x4550 JUMP JUMPDEST SWAP1 POP SWAP1 JUMP JUMPDEST PUSH1 0x8 PUSH1 0x14 SWAP1 SLOAD SWAP1 PUSH2 0x100 EXP SWAP1 DIV PUSH1 0xFF AND DUP2 JUMP JUMPDEST PUSH3 0x2E4E PUSH3 0x44F4 JUMP JUMPDEST PUSH1 0x0 DUP1 PUSH1 0x0 SWAP1 POP JUMPDEST DUP3 DUP2 LT ISZERO PUSH3 0x316A JUMPI PUSH20 0x0 PUSH4 0x3FA5AF84 PUSH1 0x15 PUSH1 0x40 MLOAD DUP3 PUSH4 0xFFFFFFFF AND PUSH1 0xE0 SHL DUP2 MSTORE PUSH1 0x4 ADD PUSH3 0x2E99 SWAP2 SWAP1 PUSH3 0x596F JUMP JUMPDEST PUSH1 0x20 PUSH1 0x40 MLOAD DUP1 DUP4 SUB DUP2 DUP7 GAS DELEGATECALL ISZERO DUP1 ISZERO PUSH3 0x2EB7 JUMPI RETURNDATASIZE PUSH1 0x0 DUP1 RETURNDATACOPY RETURNDATASIZE PUSH1 0x0 REVERT JUMPDEST POP POP POP POP PUSH1 0x40 MLOAD RETURNDATASIZE PUSH1 0x1F NOT PUSH1 0x1F DUP3 ADD AND DUP3 ADD DUP1 PUSH1 0x40 MSTORE POP DUP2 ADD SWAP1 PUSH3 0x2EDD SWAP2 SWAP1 PUSH3 0x5D7D JUMP JUMPDEST PUSH3 0x316A JUMPI PUSH1 0x0 PUSH3 0x2EF1 PUSH1 0xE SLOAD PUSH3 0x4843 JUMP JUMPDEST SELFBALANCE PUSH3 0x2EFE SWAP2 SWAP1 PUSH3 0x572D JUMP JUMPDEST SWAP1 POP DUP1 PUSH20 0x0 PUSH4 0xCC9F49C5 PUSH1 0x15 PUSH1 0x40 MLOAD DUP3 PUSH4 0xFFFFFFFF AND PUSH1 0xE0 SHL DUP2 MSTORE PUSH1 0x4 ADD PUSH3 0x2F3B SWAP2 SWAP1 PUSH3 0x596F JUMP JUMPDEST PUSH1 0x60 PUSH1 0x40 MLOAD DUP1 DUP4 SUB DUP2 DUP7 GAS DELEGATECALL ISZERO DUP1 ISZERO PUSH3 0x2F59 JUMPI RETURNDATASIZE PUSH1 0x0 DUP1 RETURNDATACOPY RETURNDATASIZE PUSH1 0x0 REVERT JUMPDEST POP POP POP POP PUSH1 0x40 MLOAD RETURNDATASIZE PUSH1 0x1F NOT PUSH1 0x1F DUP3 ADD AND DUP3 ADD DUP1 PUSH1 0x40 MSTORE POP DUP2 ADD SWAP1 PUSH3 0x2F7F SWAP2 SWAP1 PUSH3 0x5B51 JUMP JUMPDEST PUSH1 0x20 ADD MLOAD GT ISZERO PUSH3 0x2F91 JUMPI POP PUSH3 0x316A JUMP JUMPDEST PUSH1 0x0 PUSH20 0x0 PUSH4 0x4B1F21C1 PUSH1 0x15 PUSH1 0x40 MLOAD DUP3 PUSH4 0xFFFFFFFF AND PUSH1 0xE0 SHL DUP2 MSTORE PUSH1 0x4 ADD PUSH3 0x2FCD SWAP2 SWAP1 PUSH3 0x596F JUMP JUMPDEST PUSH1 0x60 PUSH1 0x40 MLOAD DUP1 DUP4 SUB DUP2 DUP7 GAS DELEGATECALL ISZERO DUP1 ISZERO PUSH3 0x2FEB JUMPI RETURNDATASIZE PUSH1 0x0 DUP1 RETURNDATACOPY RETURNDATASIZE PUSH1 0x0 REVERT JUMPDEST POP POP POP POP PUSH1 0x40 MLOAD RETURNDATASIZE PUSH1 0x1F NOT PUSH1 0x1F DUP3 ADD AND DUP3 ADD DUP1 PUSH1 0x40 MSTORE POP DUP2 ADD SWAP1 PUSH3 0x3011 SWAP2 SWAP1 PUSH3 0x5B51 JUMP JUMPDEST SWAP1 POP PUSH1 0x0 DUP2 PUSH1 0x0 ADD MLOAD SWAP1 POP PUSH1 0x0 DUP3 PUSH1 0x20 ADD MLOAD SWAP1 POP DUP1 PUSH1 0x12 PUSH1 0x0 DUP5 PUSH20 0xFFFFFFFFFFFFFFFFFFFFFFFFFFFFFFFFFFFFFFFF AND PUSH20 0xFFFFFFFFFFFFFFFFFFFFFFFFFFFFFFFFFFFFFFFF AND DUP2 MSTORE PUSH1 0x20 ADD SWAP1 DUP2 MSTORE PUSH1 0x20 ADD PUSH1 0x0 KECCAK256 PUSH1 0x0 DUP3 DUP3 SLOAD PUSH3 0x3076 SWAP2 SWAP1 PUSH3 0x572D JUMP JUMPDEST SWAP3 POP POP DUP2 SWAP1 SSTORE POP PUSH32 0x399C7D8ED969DB91E965469B536981E99E9ED60F92B8A25FC231F0F4138BCD22 DUP3 DUP3 PUSH1 0x40 MLOAD PUSH3 0x30B0 SWAP3 SWAP2 SWAP1 PUSH3 0x598C JUMP JUMPDEST PUSH1 0x40 MLOAD DUP1 SWAP2 SUB SWAP1 LOG1 PUSH1 0x8 PUSH1 0x0 SWAP1 SLOAD SWAP1 PUSH2 0x100 EXP SWAP1 DIV PUSH20 0xFFFFFFFFFFFFFFFFFFFFFFFFFFFFFFFFFFFFFFFF AND PUSH20 0xFFFFFFFFFFFFFFFFFFFFFFFFFFFFFFFFFFFFFFFF AND PUSH4 0x36EBB32A DUP3 DUP5 PUSH1 0x40 MLOAD DUP4 PUSH4 0xFFFFFFFF AND PUSH1 0xE0 SHL DUP2 MSTORE PUSH1 0x4 ADD PUSH3 0x3116 SWAP2 SWAP1 PUSH3 0x5116 JUMP JUMPDEST PUSH1 0x0 PUSH1 0x40 MLOAD DUP1 DUP4 SUB DUP2 DUP6 DUP9 DUP1 EXTCODESIZE ISZERO DUP1 ISZERO PUSH3 0x3130 JUMPI PUSH1 0x0 DUP1 REVERT JUMPDEST POP GAS CALL ISZERO DUP1 ISZERO PUSH3 0x3145 JUMPI RETURNDATASIZE PUSH1 0x0 DUP1 RETURNDATACOPY RETURNDATASIZE PUSH1 0x0 REVERT JUMPDEST POP POP POP POP POP DUP1 DUP7 PUSH3 0x3158 SWAP2 SWAP1 PUSH3 0x5B83 JUMP JUMPDEST SWAP6 POP DUP5 PUSH1 0x1 ADD SWAP5 POP POP POP POP POP PUSH3 0x2E56 JUMP JUMPDEST POP DUP1 PUSH1 0x11 PUSH1 0x0 DUP3 DUP3 SLOAD PUSH3 0x317F SWAP2 SWAP1 PUSH3 0x572D JUMP JUMPDEST SWAP3 POP POP DUP2 SWAP1 SSTORE POP POP PUSH3 0x3191 PUSH3 0x4546 JUMP JUMPDEST POP JUMP JUMPDEST PUSH3 0x319F CALLER PUSH3 0x42F9 JUMP JUMPDEST PUSH3 0x31E1 JUMPI PUSH1 0x40 MLOAD PUSH32 0x8C379A000000000000000000000000000000000000000000000000000000000 DUP2 MSTORE PUSH1 0x4 ADD PUSH3 0x31D8 SWAP1 PUSH3 0x549C JUMP JUMPDEST PUSH1 0x40 MLOAD DUP1 SWAP2 SUB SWAP1 REVERT JUMPDEST PUSH3 0x31EB PUSH3 0x44F4 JUMP JUMPDEST PUSH3 0x31F7 DUP3 DUP3 PUSH3 0x4861 JUMP JUMPDEST PUSH3 0x3201 PUSH3 0x4546 JUMP JUMPDEST POP POP JUMP JUMPDEST PUSH3 0x3210 CALLER PUSH3 0x42F9 JUMP JUMPDEST PUSH3 0x3252 JUMPI PUSH1 0x40 MLOAD PUSH32 0x8C379A000000000000000000000000000000000000000000000000000000000 DUP2 MSTORE PUSH1 0x4 ADD PUSH3 0x3249 SWAP1 PUSH3 0x549C JUMP JUMPDEST PUSH1 0x40 MLOAD DUP1 SWAP2 SUB SWAP1 REVERT JUMPDEST DUP1 PUSH1 0x14 DUP2 SWAP1 SSTORE POP PUSH32 0xBF17EF83A5CB1B1BD7F4B5699C51E28D950016132818A14CF8493D8B2F8CE6B7 DUP2 PUSH1 0x40 MLOAD PUSH3 0x328A SWAP2 SWAP1 PUSH3 0x5144 JUMP JUMPDEST PUSH1 0x40 MLOAD DUP1 SWAP2 SUB SWAP1 LOG1 POP JUMP JUMPDEST PUSH1 0xF0 DUP2 JUMP JUMPDEST PUSH1 0x3 PUSH1 0x0 SWAP1 SLOAD SWAP1 PUSH2 0x100 EXP SWAP1 DIV PUSH20 0xFFFFFFFFFFFFFFFFFFFFFFFFFFFFFFFFFFFFFFFF AND DUP2 JUMP JUMPDEST PUSH3 0x32CA PUSH3 0x44F4 JUMP JUMPDEST PUSH1 0x8 PUSH1 0x14 SWAP1 SLOAD SWAP1 PUSH2 0x100 EXP SWAP1 DIV PUSH1 0xFF AND PUSH3 0x331C JUMPI PUSH1 0x40 MLOAD PUSH32 0x8C379A000000000000000000000000000000000000000000000000000000000 DUP2 MSTORE PUSH1 0x4 ADD PUSH3 0x3313 SWAP1 PUSH3 0x5DFF JUMP JUMPDEST PUSH1 0x40 MLOAD DUP1 SWAP2 SUB SWAP1 REVERT JUMPDEST PUSH32 0xC8F2E08C64BFF94EB3DE9C9609E0CEE01CABBD930DF12ED2EA446B2CBEF6784 PUSH1 0x40 MLOAD PUSH1 0x40 MLOAD DUP1 SWAP2 SUB SWAP1 LOG1 PUSH3 0x3354 DUP3 DUP3 PUSH3 0x4861 JUMP JUMPDEST PUSH3 0x335E PUSH3 0x4546 JUMP JUMPDEST POP POP JUMP JUMPDEST PUSH3 0x336C PUSH3 0x4AEA JUMP JUMPDEST JUMP JUMPDEST PUSH3 0x3379 CALLER PUSH3 0x42F9 JUMP JUMPDEST PUSH3 0x33BB JUMPI PUSH1 0x40 MLOAD PUSH32 0x8C379A000000000000000000000000000000000000000000000000000000000 DUP2 MSTORE PUSH1 0x4 ADD PUSH3 0x33B2 SWAP1 PUSH3 0x549C JUMP JUMPDEST PUSH1 0x40 MLOAD DUP1 SWAP2 SUB SWAP1 REVERT JUMPDEST PUSH3 0x33C5 PUSH3 0x44F4 JUMP JUMPDEST PUSH1 0x9 DUP1 SLOAD SWAP1 POP DUP4 LT PUSH3 0x340F JUMPI PUSH1 0x40 MLOAD PUSH32 0x8C379A000000000000000000000000000000000000000000000000000000000 DUP2 MSTORE PUSH1 0x4 ADD PUSH3 0x3406 SWAP1 PUSH3 0x5580 JUMP JUMPDEST PUSH1 0x40 MLOAD DUP1 SWAP2 SUB SWAP1 REVERT JUMPDEST DUP1 PUSH1 0xE PUSH1 0x0 DUP3 DUP3 SLOAD PUSH3 0x3423 SWAP2 SWAP1 PUSH3 0x5C30 JUMP JUMPDEST SWAP3 POP POP DUP2 SWAP1 SSTORE POP PUSH1 0x0 PUSH1 0x9 DUP5 DUP2 SLOAD DUP2 LT PUSH3 0x3443 JUMPI PUSH3 0x3442 PUSH3 0x55A2 JUMP JUMPDEST JUMPDEST SWAP1 PUSH1 0x0 MSTORE PUSH1 0x20 PUSH1 0x0 KECCAK256 ADD PUSH1 0x0 SWAP1 SLOAD SWAP1 PUSH2 0x100 EXP SWAP1 DIV PUSH20 0xFFFFFFFFFFFFFFFFFFFFFFFFFFFFFFFFFFFFFFFF AND SWAP1 POP PUSH32 0x12A195BD39BCF87CB43D15AEBC16FDBC683D5FDFB884876AD7EB0B5E5D93062 DUP2 DUP5 DUP5 PUSH1 0x40 MLOAD PUSH3 0x34A5 SWAP4 SWAP3 SWAP2 SWAP1 PUSH3 0x5C7A JUMP JUMPDEST PUSH1 0x40 MLOAD DUP1 SWAP2 SUB SWAP1 LOG1 DUP1 PUSH20 0xFFFFFFFFFFFFFFFFFFFFFFFFFFFFFFFFFFFFFFFF AND PUSH4 0x26E402B DUP5 DUP5 PUSH1 0x40 MLOAD DUP4 PUSH4 0xFFFFFFFF AND PUSH1 0xE0 SHL DUP2 MSTORE PUSH1 0x4 ADD PUSH3 0x34EA SWAP3 SWAP2 SWAP1 PUSH3 0x598C JUMP JUMPDEST PUSH1 0x0 PUSH1 0x40 MLOAD DUP1 DUP4 SUB DUP2 PUSH1 0x0 DUP8 DUP1 EXTCODESIZE ISZERO DUP1 ISZERO PUSH3 0x3505 JUMPI PUSH1 0x0 DUP1 REVERT JUMPDEST POP GAS CALL ISZERO DUP1 ISZERO PUSH3 0x351A JUMPI RETURNDATASIZE PUSH1 0x0 DUP1 RETURNDATACOPY RETURNDATASIZE PUSH1 0x0 REVERT JUMPDEST POP POP POP POP POP PUSH3 0x3529 PUSH3 0x4546 JUMP JUMPDEST POP POP POP JUMP JUMPDEST PUSH1 0x13 SLOAD DUP2 JUMP JUMPDEST PUSH3 0x353E PUSH3 0x44F4 JUMP JUMPDEST PUSH1 0x0 CALLVALUE GT PUSH3 0x3584 JUMPI PUSH1 0x40 MLOAD PUSH32 0x8C379A000000000000000000000000000000000000000000000000000000000 DUP2 MSTORE PUSH1 0x4 ADD PUSH3 0x357B SWAP1 PUSH3 0x5E71 JUMP JUMPDEST PUSH1 0x40 MLOAD DUP1 SWAP2 SUB SWAP1 REVERT JUMPDEST PUSH1 0x0 PUSH8 0xDE0B6B3A7640000 PUSH1 0xD SLOAD CALLVALUE PUSH3 0x359F SWAP2 SWAP1 PUSH3 0x5E93 JUMP JUMPDEST PUSH3 0x35AB SWAP2 SWAP1 PUSH3 0x5F0D JUMP JUMPDEST SWAP1 POP PUSH1 0x13 SLOAD DUP2 PUSH1 0x7 PUSH1 0x0 SWAP1 SLOAD SWAP1 PUSH2 0x100 EXP SWAP1 DIV PUSH20 0xFFFFFFFFFFFFFFFFFFFFFFFFFFFFFFFFFFFFFFFF AND PUSH20 0xFFFFFFFFFFFFFFFFFFFFFFFFFFFFFFFFFFFFFFFF AND PUSH4 0x18160DDD PUSH1 0x40 MLOAD DUP2 PUSH4 0xFFFFFFFF AND PUSH1 0xE0 SHL DUP2 MSTORE PUSH1 0x4 ADD PUSH1 0x20 PUSH1 0x40 MLOAD DUP1 DUP4 SUB DUP2 DUP7 GAS STATICCALL ISZERO DUP1 ISZERO PUSH3 0x361F JUMPI RETURNDATASIZE PUSH1 0x0 DUP1 RETURNDATACOPY RETURNDATASIZE PUSH1 0x0 REVERT JUMPDEST POP POP POP POP PUSH1 0x40 MLOAD RETURNDATASIZE PUSH1 0x1F NOT PUSH1 0x1F DUP3 ADD AND DUP3 ADD DUP1 PUSH1 0x40 MSTORE POP DUP2 ADD SWAP1 PUSH3 0x3645 SWAP2 SWAP1 PUSH3 0x55E8 JUMP JUMPDEST PUSH3 0x3651 SWAP2 SWAP1 PUSH3 0x5B83 JUMP JUMPDEST GT ISZERO PUSH3 0x3695 JUMPI PUSH1 0x40 MLOAD PUSH32 0x8C379A000000000000000000000000000000000000000000000000000000000 DUP2 MSTORE PUSH1 0x4 ADD PUSH3 0x368C SWAP1 PUSH3 0x5F95 JUMP JUMPDEST PUSH1 0x40 MLOAD DUP1 SWAP2 SUB SWAP1 REVERT JUMPDEST PUSH1 0x14 SLOAD DUP2 PUSH1 0x7 PUSH1 0x0 SWAP1 SLOAD SWAP1 PUSH2 0x100 EXP SWAP1 DIV PUSH20 0xFFFFFFFFFFFFFFFFFFFFFFFFFFFFFFFFFFFFFFFF AND PUSH20 0xFFFFFFFFFFFFFFFFFFFFFFFFFFFFFFFFFFFFFFFF AND PUSH4 0x70A08231 CALLER PUSH1 0x40 MLOAD DUP3 PUSH4 0xFFFFFFFF AND PUSH1 0xE0 SHL DUP2 MSTORE PUSH1 0x4 ADD PUSH3 0x36F6 SWAP2 SWAP1 PUSH3 0x5116 JUMP JUMPDEST PUSH1 0x20 PUSH1 0x40 MLOAD DUP1 DUP4 SUB DUP2 DUP7 GAS STATICCALL ISZERO DUP1 ISZERO PUSH3 0x3714 JUMPI RETURNDATASIZE PUSH1 0x0 DUP1 RETURNDATACOPY RETURNDATASIZE PUSH1 0x0 REVERT JUMPDEST POP POP POP POP PUSH1 0x40 MLOAD RETURNDATASIZE PUSH1 0x1F NOT PUSH1 0x1F DUP3 ADD AND DUP3 ADD DUP1 PUSH1 0x40 MSTORE POP DUP2 ADD SWAP1 PUSH3 0x373A SWAP2 SWAP1 PUSH3 0x55E8 JUMP JUMPDEST PUSH3 0x3746 SWAP2 SWAP1 PUSH3 0x5B83 JUMP JUMPDEST GT ISZERO PUSH3 0x378A JUMPI PUSH1 0x40 MLOAD PUSH32 0x8C379A000000000000000000000000000000000000000000000000000000000 DUP2 MSTORE PUSH1 0x4 ADD PUSH3 0x3781 SWAP1 PUSH3 0x6007 JUMP JUMPDEST PUSH1 0x40 MLOAD DUP1 SWAP2 SUB SWAP1 REVERT JUMPDEST CALLVALUE PUSH1 0xE PUSH1 0x0 DUP3 DUP3 SLOAD PUSH3 0x379E SWAP2 SWAP1 PUSH3 0x59B9 JUMP JUMPDEST SWAP3 POP POP DUP2 SWAP1 SSTORE POP PUSH32 0x24B239A832DD9A782B265A1CCB4CE824F1E14ACCDECE1AE7298309E04B4B5FF0 CALLER CALLVALUE DUP4 PUSH1 0x40 MLOAD PUSH3 0x37DA SWAP4 SWAP3 SWAP2 SWAP1 PUSH3 0x6029 JUMP JUMPDEST PUSH1 0x40 MLOAD DUP1 SWAP2 SUB SWAP1 LOG1 PUSH1 0x7 PUSH1 0x0 SWAP1 SLOAD SWAP1 PUSH2 0x100 EXP SWAP1 DIV PUSH20 0xFFFFFFFFFFFFFFFFFFFFFFFFFFFFFFFFFFFFFFFF AND PUSH20 0xFFFFFFFFFFFFFFFFFFFFFFFFFFFFFFFFFFFFFFFF AND PUSH4 0x21CA4236 CALLER DUP4 PUSH1 0x40 MLOAD DUP4 PUSH4 0xFFFFFFFF AND PUSH1 0xE0 SHL DUP2 MSTORE PUSH1 0x4 ADD PUSH3 0x3841 SWAP3 SWAP2 SWAP1 PUSH3 0x598C JUMP JUMPDEST PUSH1 0x0 PUSH1 0x40 MLOAD DUP1 DUP4 SUB DUP2 PUSH1 0x0 DUP8 DUP1 EXTCODESIZE ISZERO DUP1 ISZERO PUSH3 0x385C JUMPI PUSH1 0x0 DUP1 REVERT JUMPDEST POP GAS CALL ISZERO DUP1 ISZERO PUSH3 0x3871 JUMPI RETURNDATASIZE PUSH1 0x0 DUP1 RETURNDATACOPY RETURNDATASIZE PUSH1 0x0 REVERT JUMPDEST POP POP POP POP POP PUSH3 0x3880 PUSH3 0x4546 JUMP JUMPDEST JUMP JUMPDEST PUSH3 0x388D CALLER PUSH3 0x42F9 JUMP JUMPDEST PUSH3 0x38CF JUMPI PUSH1 0x40 MLOAD PUSH32 0x8C379A000000000000000000000000000000000000000000000000000000000 DUP2 MSTORE PUSH1 0x4 ADD PUSH3 0x38C6 SWAP1 PUSH3 0x549C JUMP JUMPDEST PUSH1 0x40 MLOAD DUP1 SWAP2 SUB SWAP1 REVERT JUMPDEST PUSH3 0x38D9 PUSH3 0x44F4 JUMP JUMPDEST PUSH1 0x9 DUP1 SLOAD SWAP1 POP DUP3 LT PUSH3 0x3923 JUMPI PUSH1 0x40 MLOAD PUSH32 0x8C379A000000000000000000000000000000000000000000000000000000000 DUP2 MSTORE PUSH1 0x4 ADD PUSH3 0x391A SWAP1 PUSH3 0x5580 JUMP JUMPDEST PUSH1 0x40 MLOAD DUP1 SWAP2 SUB SWAP1 REVERT JUMPDEST PUSH1 0x0 PUSH1 0x9 DUP4 DUP2 SLOAD DUP2 LT PUSH3 0x393C JUMPI PUSH3 0x393B PUSH3 0x55A2 JUMP JUMPDEST JUMPDEST SWAP1 PUSH1 0x0 MSTORE PUSH1 0x20 PUSH1 0x0 KECCAK256 ADD PUSH1 0x0 SWAP1 SLOAD SWAP1 PUSH2 0x100 EXP SWAP1 DIV PUSH20 0xFFFFFFFFFFFFFFFFFFFFFFFFFFFFFFFFFFFFFFFF AND SWAP1 POP DUP1 PUSH20 0xFFFFFFFFFFFFFFFFFFFFFFFFFFFFFFFFFFFFFFFF AND PUSH4 0x13A5F393 DUP4 PUSH1 0x40 MLOAD DUP3 PUSH4 0xFFFFFFFF AND PUSH1 0xE0 SHL DUP2 MSTORE PUSH1 0x4 ADD PUSH3 0x39A4 SWAP2 SWAP1 PUSH3 0x5116 JUMP JUMPDEST PUSH1 0x0 PUSH1 0x40 MLOAD DUP1 DUP4 SUB DUP2 PUSH1 0x0 DUP8 DUP1 EXTCODESIZE ISZERO DUP1 ISZERO PUSH3 0x39BF JUMPI PUSH1 0x0 DUP1 REVERT JUMPDEST POP GAS CALL ISZERO DUP1 ISZERO PUSH3 0x39D4 JUMPI RETURNDATASIZE PUSH1 0x0 DUP1 RETURNDATACOPY RETURNDATASIZE PUSH1 0x0 REVERT JUMPDEST POP POP POP POP POP PUSH3 0x39E3 PUSH3 0x4546 JUMP JUMPDEST POP POP JUMP JUMPDEST PUSH1 0xA SLOAD DUP2 JUMP JUMPDEST PUSH1 0x11 SLOAD DUP2 JUMP JUMPDEST PUSH1 0x0 PUSH1 0x9 DUP1 SLOAD SWAP1 POP SWAP1 POP SWAP1 JUMP JUMPDEST PUSH3 0x3A0B CALLER PUSH3 0x42F9 JUMP JUMPDEST PUSH3 0x3A4D JUMPI PUSH1 0x40 MLOAD PUSH32 0x8C379A000000000000000000000000000000000000000000000000000000000 DUP2 MSTORE PUSH1 0x4 ADD PUSH3 0x3A44 SWAP1 PUSH3 0x549C JUMP JUMPDEST PUSH1 0x40 MLOAD DUP1 SWAP2 SUB SWAP1 REVERT JUMPDEST DUP1 PUSH1 0xE PUSH1 0x0 DUP3 DUP3 SLOAD PUSH3 0x3A61 SWAP2 SWAP1 PUSH3 0x5C30 JUMP JUMPDEST SWAP3 POP POP DUP2 SWAP1 SSTORE POP PUSH32 0x9081814D5CBD09F04619AB13C8F2E59E257247580533D397BB4AF5F3E90B2EFE DUP2 PUSH1 0x40 MLOAD PUSH3 0x3A99 SWAP2 SWAP1 PUSH3 0x5144 JUMP JUMPDEST PUSH1 0x40 MLOAD DUP1 SWAP2 SUB SWAP1 LOG1 POP JUMP JUMPDEST PUSH3 0x3AAF CALLER PUSH3 0x42F9 JUMP JUMPDEST PUSH3 0x3AF1 JUMPI PUSH1 0x40 MLOAD PUSH32 0x8C379A000000000000000000000000000000000000000000000000000000000 DUP2 MSTORE PUSH1 0x4 ADD PUSH3 0x3AE8 SWAP1 PUSH3 0x549C JUMP JUMPDEST PUSH1 0x40 MLOAD DUP1 SWAP2 SUB SWAP1 REVERT JUMPDEST PUSH32 0xF42830783C975A272A1F3CCBE46787FD3112AFA15719F8F4DC1E19C27FB40088 CALLVALUE PUSH1 0x40 MLOAD PUSH3 0x3B22 SWAP2 SWAP1 PUSH3 0x5144 JUMP JUMPDEST PUSH1 0x40 MLOAD DUP1 SWAP2 SUB SWAP1 LOG1 CALLVALUE PUSH1 0xE PUSH1 0x0 DUP3 DUP3 SLOAD PUSH3 0x3B3E SWAP2 SWAP1 PUSH3 0x59B9 JUMP JUMPDEST SWAP3 POP POP DUP2 SWAP1 SSTORE POP JUMP JUMPDEST PUSH3 0x3B52 CALLER PUSH3 0x42F9 JUMP JUMPDEST PUSH3 0x3B94 JUMPI PUSH1 0x40 MLOAD PUSH32 0x8C379A000000000000000000000000000000000000000000000000000000000 DUP2 MSTORE PUSH1 0x4 ADD PUSH3 0x3B8B SWAP1 PUSH3 0x549C JUMP JUMPDEST PUSH1 0x40 MLOAD DUP1 SWAP2 SUB SWAP1 REVERT JUMPDEST PUSH3 0x3B9E PUSH3 0x44F4 JUMP JUMPDEST PUSH1 0x9 DUP1 SLOAD SWAP1 POP DUP5 LT PUSH3 0x3BE8 JUMPI PUSH1 0x40 MLOAD PUSH32 0x8C379A000000000000000000000000000000000000000000000000000000000 DUP2 MSTORE PUSH1 0x4 ADD PUSH3 0x3BDF SWAP1 PUSH3 0x5580 JUMP JUMPDEST PUSH1 0x40 MLOAD DUP1 SWAP2 SUB SWAP1 REVERT JUMPDEST DUP2 PUSH1 0xE PUSH1 0x0 DUP3 DUP3 SLOAD PUSH3 0x3BFC SWAP2 SWAP1 PUSH3 0x5C30 JUMP JUMPDEST SWAP3 POP POP DUP2 SWAP1 SSTORE POP PUSH1 0x0 PUSH1 0x9 DUP6 DUP2 SLOAD DUP2 LT PUSH3 0x3C1C JUMPI PUSH3 0x3C1B PUSH3 0x55A2 JUMP JUMPDEST JUMPDEST SWAP1 PUSH1 0x0 MSTORE PUSH1 0x20 PUSH1 0x0 KECCAK256 ADD PUSH1 0x0 SWAP1 SLOAD SWAP1 PUSH2 0x100 EXP SWAP1 DIV PUSH20 0xFFFFFFFFFFFFFFFFFFFFFFFFFFFFFFFFFFFFFFFF AND SWAP1 POP PUSH1 0x0 DUP2 SWAP1 POP PUSH32 0xAD79328E8502097ED263893551CE1580715CDEE9ED2F17218107AEE878968AAB DUP3 DUP6 PUSH1 0x40 MLOAD PUSH3 0x3C81 SWAP3 SWAP2 SWAP1 PUSH3 0x598C JUMP JUMPDEST PUSH1 0x40 MLOAD DUP1 SWAP2 SUB SWAP1 LOG1 PUSH32 0x51BE0E166090283A4EB1BA4CE54022F6BC0C780398B49DA4EC3FD79350D67B71 DUP3 DUP7 DUP7 PUSH1 0x40 MLOAD PUSH3 0x3CBE SWAP4 SWAP3 SWAP2 SWAP1 PUSH3 0x5C7A JUMP JUMPDEST PUSH1 0x40 MLOAD DUP1 SWAP2 SUB SWAP1 LOG1 DUP1 PUSH20 0xFFFFFFFFFFFFFFFFFFFFFFFFFFFFFFFFFFFFFFFF AND PUSH4 0xD0E30DB0 DUP6 PUSH1 0x40 MLOAD DUP3 PUSH4 0xFFFFFFFF AND PUSH1 0xE0 SHL DUP2 MSTORE PUSH1 0x4 ADD PUSH1 0x0 PUSH1 0x40 MLOAD DUP1 DUP4 SUB DUP2 DUP6 DUP9 DUP1 EXTCODESIZE ISZERO DUP1 ISZERO PUSH3 0x3D0F JUMPI PUSH1 0x0 DUP1 REVERT JUMPDEST POP GAS CALL ISZERO DUP1 ISZERO PUSH3 0x3D24 JUMPI RETURNDATASIZE PUSH1 0x0 DUP1 RETURNDATACOPY RETURNDATASIZE PUSH1 0x0 REVERT JUMPDEST POP POP POP POP POP DUP1 PUSH20 0xFFFFFFFFFFFFFFFFFFFFFFFFFFFFFFFFFFFFFFFF AND PUSH4 0xFB79716F DUP7 DUP7 DUP7 PUSH1 0x40 MLOAD DUP5 PUSH4 0xFFFFFFFF AND PUSH1 0xE0 SHL DUP2 MSTORE PUSH1 0x4 ADD PUSH3 0x3D68 SWAP4 SWAP3 SWAP2 SWAP1 PUSH3 0x5CB7 JUMP JUMPDEST PUSH1 0x0 PUSH1 0x40 MLOAD DUP1 DUP4 SUB DUP2 PUSH1 0x0 DUP8 DUP1 EXTCODESIZE ISZERO DUP1 ISZERO PUSH3 0x3D83 JUMPI PUSH1 0x0 DUP1 REVERT JUMPDEST POP GAS CALL ISZERO DUP1 ISZERO PUSH3 0x3D98 JUMPI RETURNDATASIZE PUSH1 0x0 DUP1 RETURNDATACOPY RETURNDATASIZE PUSH1 0x0 REVERT JUMPDEST POP POP POP POP POP POP PUSH3 0x3DA8 PUSH3 0x4546 JUMP JUMPDEST POP POP POP POP JUMP JUMPDEST PUSH3 0x3DB8 PUSH3 0x44F4 JUMP JUMPDEST PUSH1 0x0 DUP2 GT PUSH3 0x3DFE JUMPI PUSH1 0x40 MLOAD PUSH32 0x8C379A000000000000000000000000000000000000000000000000000000000 DUP2 MSTORE PUSH1 0x4 ADD PUSH3 0x3DF5 SWAP1 PUSH3 0x60B6 JUMP JUMPDEST PUSH1 0x40 MLOAD DUP1 SWAP2 SUB SWAP1 REVERT JUMPDEST DUP1 PUSH1 0x7 PUSH1 0x0 SWAP1 SLOAD SWAP1 PUSH2 0x100 EXP SWAP1 DIV PUSH20 0xFFFFFFFFFFFFFFFFFFFFFFFFFFFFFFFFFFFFFFFF AND PUSH20 0xFFFFFFFFFFFFFFFFFFFFFFFFFFFFFFFFFFFFFFFF AND PUSH4 0x70A08231 CALLER PUSH1 0x40 MLOAD DUP3 PUSH4 0xFFFFFFFF AND PUSH1 0xE0 SHL DUP2 MSTORE PUSH1 0x4 ADD PUSH3 0x3E5C SWAP2 SWAP1 PUSH3 0x5116 JUMP JUMPDEST PUSH1 0x20 PUSH1 0x40 MLOAD DUP1 DUP4 SUB DUP2 DUP7 GAS STATICCALL ISZERO DUP1 ISZERO PUSH3 0x3E7A JUMPI RETURNDATASIZE PUSH1 0x0 DUP1 RETURNDATACOPY RETURNDATASIZE PUSH1 0x0 REVERT JUMPDEST POP POP POP POP PUSH1 0x40 MLOAD RETURNDATASIZE PUSH1 0x1F NOT PUSH1 0x1F DUP3 ADD AND DUP3 ADD DUP1 PUSH1 0x40 MSTORE POP DUP2 ADD SWAP1 PUSH3 0x3EA0 SWAP2 SWAP1 PUSH3 0x55E8 JUMP JUMPDEST LT ISZERO PUSH3 0x3EE4 JUMPI PUSH1 0x40 MLOAD PUSH32 0x8C379A000000000000000000000000000000000000000000000000000000000 DUP2 MSTORE PUSH1 0x4 ADD PUSH3 0x3EDB SWAP1 PUSH3 0x6128 JUMP JUMPDEST PUSH1 0x40 MLOAD DUP1 SWAP2 SUB SWAP1 REVERT JUMPDEST PUSH1 0x0 PUSH1 0x5 PUSH1 0x0 SWAP1 SLOAD SWAP1 PUSH2 0x100 EXP SWAP1 DIV PUSH20 0xFFFFFFFFFFFFFFFFFFFFFFFFFFFFFFFFFFFFFFFF AND PUSH20 0xFFFFFFFFFFFFFFFFFFFFFFFFFFFFFFFFFFFFFFFF AND PUSH4 0x146CA531 PUSH1 0x40 MLOAD DUP2 PUSH4 0xFFFFFFFF AND PUSH1 0xE0 SHL DUP2 MSTORE PUSH1 0x4 ADD PUSH1 0x20 PUSH1 0x40 MLOAD DUP1 DUP4 SUB DUP2 DUP7 GAS STATICCALL ISZERO DUP1 ISZERO PUSH3 0x3F54 JUMPI RETURNDATASIZE PUSH1 0x0 DUP1 RETURNDATACOPY RETURNDATASIZE PUSH1 0x0 REVERT JUMPDEST POP POP POP POP PUSH1 0x40 MLOAD RETURNDATASIZE PUSH1 0x1F NOT PUSH1 0x1F DUP3 ADD AND DUP3 ADD DUP1 PUSH1 0x40 MSTORE POP DUP2 ADD SWAP1 PUSH3 0x3F7A SWAP2 SWAP1 PUSH3 0x55E8 JUMP JUMPDEST SWAP1 POP PUSH1 0xB PUSH1 0x0 SWAP1 SLOAD SWAP1 PUSH2 0x100 EXP SWAP1 DIV PUSH1 0xFF AND ISZERO DUP1 ISZERO PUSH3 0x3F9B JUMPI POP PUSH1 0xA SLOAD DUP2 GT JUMPDEST ISZERO PUSH3 0x3FAC JUMPI PUSH3 0x3FAB PUSH3 0x4AEA JUMP JUMPDEST JUMPDEST PUSH1 0x0 PUSH8 0xDE0B6B3A7640000 PUSH1 0xC SLOAD DUP5 PUSH3 0x3FC7 SWAP2 SWAP1 PUSH3 0x5E93 JUMP JUMPDEST PUSH3 0x3FD3 SWAP2 SWAP1 PUSH3 0x5F0D JUMP JUMPDEST SWAP1 POP PUSH1 0x0 PUSH1 0x40 MLOAD DUP1 PUSH1 0x60 ADD PUSH1 0x40 MSTORE DUP1 CALLER PUSH20 0xFFFFFFFFFFFFFFFFFFFFFFFFFFFFFFFFFFFFFFFF AND DUP2 MSTORE PUSH1 0x20 ADD DUP4 DUP2 MSTORE PUSH1 0x20 ADD DUP5 DUP2 MSTORE POP SWAP1 POP PUSH20 0x0 PUSH4 0xF0564592 PUSH1 0x15 DUP4 PUSH1 0x40 MLOAD DUP4 PUSH4 0xFFFFFFFF AND PUSH1 0xE0 SHL DUP2 MSTORE PUSH1 0x4 ADD PUSH3 0x4046 SWAP3 SWAP2 SWAP1 PUSH3 0x61B4 JUMP JUMPDEST PUSH1 0x0 PUSH1 0x40 MLOAD DUP1 DUP4 SUB DUP2 DUP7 DUP1 EXTCODESIZE ISZERO DUP1 ISZERO PUSH3 0x405F JUMPI PUSH1 0x0 DUP1 REVERT JUMPDEST POP GAS DELEGATECALL ISZERO DUP1 ISZERO PUSH3 0x4074 JUMPI RETURNDATASIZE PUSH1 0x0 DUP1 RETURNDATACOPY RETURNDATASIZE PUSH1 0x0 REVERT JUMPDEST POP POP POP POP DUP2 PUSH1 0xF PUSH1 0x0 DUP3 DUP3 SLOAD PUSH3 0x408C SWAP2 SWAP1 PUSH3 0x59B9 JUMP JUMPDEST SWAP3 POP POP DUP2 SWAP1 SSTORE POP DUP2 PUSH1 0x11 PUSH1 0x0 DUP3 DUP3 SLOAD PUSH3 0x40A7 SWAP2 SWAP1 PUSH3 0x5B83 JUMP JUMPDEST SWAP3 POP POP DUP2 SWAP1 SSTORE POP DUP2 PUSH1 0x12 PUSH1 0x0 CALLER PUSH20 0xFFFFFFFFFFFFFFFFFFFFFFFFFFFFFFFFFFFFFFFF AND PUSH20 0xFFFFFFFFFFFFFFFFFFFFFFFFFFFFFFFFFFFFFFFF AND DUP2 MSTORE PUSH1 0x20 ADD SWAP1 DUP2 MSTORE PUSH1 0x20 ADD PUSH1 0x0 KECCAK256 PUSH1 0x0 DUP3 DUP3 SLOAD PUSH3 0x40FF SWAP2 SWAP1 PUSH3 0x5B83 JUMP JUMPDEST SWAP3 POP POP DUP2 SWAP1 SSTORE POP PUSH32 0xA20A5B54E3C471DE60769B9A06F5AFE0437DCAF8F40D9B24DA5E92BC8300B89C CALLER DUP4 DUP7 PUSH1 0x40 MLOAD PUSH3 0x413B SWAP4 SWAP3 SWAP2 SWAP1 PUSH3 0x6029 JUMP JUMPDEST PUSH1 0x40 MLOAD DUP1 SWAP2 SUB SWAP1 LOG1 PUSH1 0x7 PUSH1 0x0 SWAP1 SLOAD SWAP1 PUSH2 0x100 EXP SWAP1 DIV PUSH20 0xFFFFFFFFFFFFFFFFFFFFFFFFFFFFFFFFFFFFFFFF AND PUSH20 0xFFFFFFFFFFFFFFFFFFFFFFFFFFFFFFFFFFFFFFFF AND PUSH4 0x365342CA CALLER DUP7 PUSH1 0x40 MLOAD DUP4 PUSH4 0xFFFFFFFF AND PUSH1 0xE0 SHL DUP2 MSTORE PUSH1 0x4 ADD PUSH3 0x41A2 SWAP3 SWAP2 SWAP1 PUSH3 0x598C JUMP JUMPDEST PUSH1 0x0 PUSH1 0x40 MLOAD DUP1 DUP4 SUB DUP2 PUSH1 0x0 DUP8 DUP1 EXTCODESIZE ISZERO DUP1 ISZERO PUSH3 0x41BD JUMPI PUSH1 0x0 DUP1 REVERT JUMPDEST POP GAS CALL ISZERO DUP1 ISZERO PUSH3 0x41D2 JUMPI RETURNDATASIZE PUSH1 0x0 DUP1 RETURNDATACOPY RETURNDATASIZE PUSH1 0x0 REVERT JUMPDEST POP POP POP POP POP POP POP PUSH3 0x41E3 PUSH3 0x4546 JUMP JUMPDEST POP JUMP JUMPDEST PUSH1 0x9 DUP2 DUP2 SLOAD DUP2 LT PUSH3 0x41F7 JUMPI PUSH1 0x0 DUP1 REVERT JUMPDEST SWAP1 PUSH1 0x0 MSTORE PUSH1 0x20 PUSH1 0x0 KECCAK256 ADD PUSH1 0x0 SWAP2 POP SLOAD SWAP1 PUSH2 0x100 EXP SWAP1 DIV PUSH20 0xFFFFFFFFFFFFFFFFFFFFFFFFFFFFFFFFFFFFFFFF AND DUP2 JUMP JUMPDEST PUSH3 0x4230 PUSH3 0x44F4 JUMP JUMPDEST PUSH1 0x8 PUSH1 0x14 SWAP1 SLOAD SWAP1 PUSH2 0x100 EXP SWAP1 DIV PUSH1 0xFF AND PUSH3 0x4282 JUMPI PUSH1 0x40 MLOAD PUSH32 0x8C379A000000000000000000000000000000000000000000000000000000000 DUP2 MSTORE PUSH1 0x4 ADD PUSH3 0x4279 SWAP1 PUSH3 0x5DFF JUMP JUMPDEST PUSH1 0x40 MLOAD DUP1 SWAP2 SUB SWAP1 REVERT JUMPDEST PUSH32 0xABC23894351ABC161BC30AA8A86C56ADDA49AD500DF467BDAF77DAD4DEBA78CC PUSH1 0x40 MLOAD PUSH1 0x40 MLOAD DUP1 SWAP2 SUB SWAP1 LOG1 PUSH3 0x42BA DUP3 DUP3 PUSH3 0x46A1 JUMP JUMPDEST PUSH3 0x42C4 PUSH3 0x4546 JUMP JUMPDEST POP POP JUMP JUMPDEST PUSH1 0x14 SLOAD DUP2 JUMP JUMPDEST PUSH1 0x12 PUSH1 0x20 MSTORE DUP1 PUSH1 0x0 MSTORE PUSH1 0x40 PUSH1 0x0 KECCAK256 PUSH1 0x0 SWAP2 POP SWAP1 POP SLOAD DUP2 JUMP JUMPDEST PUSH1 0xB PUSH1 0x0 SWAP1 SLOAD SWAP1 PUSH2 0x100 EXP SWAP1 DIV PUSH1 0xFF AND DUP2 JUMP JUMPDEST PUSH1 0x0 PUSH1 0x4 PUSH1 0x0 SWAP1 SLOAD SWAP1 PUSH2 0x100 EXP SWAP1 DIV PUSH20 0xFFFFFFFFFFFFFFFFFFFFFFFFFFFFFFFFFFFFFFFF AND PUSH20 0xFFFFFFFFFFFFFFFFFFFFFFFFFFFFFFFFFFFFFFFF AND DUP3 PUSH20 0xFFFFFFFFFFFFFFFFFFFFFFFFFFFFFFFFFFFFFFFF AND EQ DUP1 PUSH3 0x441F JUMPI POP PUSH1 0x6 PUSH1 0x0 SWAP1 SLOAD SWAP1 PUSH2 0x100 EXP SWAP1 DIV PUSH20 0xFFFFFFFFFFFFFFFFFFFFFFFFFFFFFFFFFFFFFFFF AND PUSH20 0xFFFFFFFFFFFFFFFFFFFFFFFFFFFFFFFFFFFFFFFF AND PUSH4 0xE26D38ED PUSH1 0x4 PUSH1 0x0 SWAP1 SLOAD SWAP1 PUSH2 0x100 EXP SWAP1 DIV PUSH20 0xFFFFFFFFFFFFFFFFFFFFFFFFFFFFFFFFFFFFFFFF AND DUP5 PUSH1 0x2 PUSH1 0x0 PUSH1 0x40 MLOAD DUP6 PUSH4 0xFFFFFFFF AND PUSH1 0xE0 SHL DUP2 MSTORE PUSH1 0x4 ADD PUSH3 0x43DA SWAP5 SWAP4 SWAP3 SWAP2 SWAP1 PUSH3 0x62BE JUMP JUMPDEST PUSH1 0x20 PUSH1 0x40 MLOAD DUP1 DUP4 SUB DUP2 DUP7 GAS STATICCALL ISZERO DUP1 ISZERO PUSH3 0x43F8 JUMPI RETURNDATASIZE PUSH1 0x0 DUP1 RETURNDATACOPY RETURNDATASIZE PUSH1 0x0 REVERT JUMPDEST POP POP POP POP PUSH1 0x40 MLOAD RETURNDATASIZE PUSH1 0x1F NOT PUSH1 0x1F DUP3 ADD AND DUP3 ADD DUP1 PUSH1 0x40 MSTORE POP DUP2 ADD SWAP1 PUSH3 0x441E SWAP2 SWAP1 PUSH3 0x5D7D JUMP JUMPDEST JUMPDEST SWAP1 POP SWAP2 SWAP1 POP JUMP JUMPDEST PUSH1 0x0 DUP1 PUSH1 0x9 DUP1 SLOAD SWAP1 POP SWAP1 POP PUSH1 0x0 JUMPDEST DUP2 DUP2 LT ISZERO PUSH3 0x44C9 JUMPI DUP4 PUSH20 0xFFFFFFFFFFFFFFFFFFFFFFFFFFFFFFFFFFFFFFFF AND PUSH1 0x9 DUP3 DUP2 SLOAD DUP2 LT PUSH3 0x446B JUMPI PUSH3 0x446A PUSH3 0x55A2 JUMP JUMPDEST JUMPDEST SWAP1 PUSH1 0x0 MSTORE PUSH1 0x20 PUSH1 0x0 KECCAK256 ADD PUSH1 0x0 SWAP1 SLOAD SWAP1 PUSH2 0x100 EXP SWAP1 DIV PUSH20 0xFFFFFFFFFFFFFFFFFFFFFFFFFFFFFFFFFFFFFFFF AND PUSH20 0xFFFFFFFFFFFFFFFFFFFFFFFFFFFFFFFFFFFFFFFF AND SUB PUSH3 0x44BD JUMPI DUP1 SWAP3 POP POP POP PUSH3 0x44EF JUMP JUMPDEST DUP1 PUSH1 0x1 ADD SWAP1 POP PUSH3 0x4434 JUMP JUMPDEST POP PUSH32 0xFFFFFFFFFFFFFFFFFFFFFFFFFFFFFFFFFFFFFFFFFFFFFFFFFFFFFFFFFFFFFFFF SWAP2 POP POP JUMPDEST SWAP2 SWAP1 POP JUMP JUMPDEST PUSH1 0x2 PUSH1 0x0 SLOAD SUB PUSH3 0x453C JUMPI PUSH1 0x40 MLOAD PUSH32 0x8C379A000000000000000000000000000000000000000000000000000000000 DUP2 MSTORE PUSH1 0x4 ADD PUSH3 0x4533 SWAP1 PUSH3 0x635B JUMP JUMPDEST PUSH1 0x40 MLOAD DUP1 SWAP2 SUB SWAP1 REVERT JUMPDEST PUSH1 0x2 PUSH1 0x0 DUP2 SWAP1 SSTORE POP JUMP JUMPDEST PUSH1 0x1 PUSH1 0x0 DUP2 SWAP1 SSTORE POP JUMP JUMPDEST PUSH1 0x0 PUSH1 0x64 PUSH1 0x9 DUP1 SLOAD SWAP1 POP LT PUSH3 0x459D JUMPI PUSH1 0x40 MLOAD PUSH32 0x8C379A000000000000000000000000000000000000000000000000000000000 DUP2 MSTORE PUSH1 0x4 ADD PUSH3 0x4594 SWAP1 PUSH3 0x63CD JUMP JUMPDEST PUSH1 0x40 MLOAD DUP1 SWAP2 SUB SWAP1 REVERT JUMPDEST PUSH1 0x0 PUSH1 0x1 PUSH1 0x0 SWAP1 SLOAD SWAP1 PUSH2 0x100 EXP SWAP1 DIV PUSH20 0xFFFFFFFFFFFFFFFFFFFFFFFFFFFFFFFFFFFFFFFF AND ADDRESS PUSH1 0x40 MLOAD PUSH3 0x45D1 SWAP1 PUSH3 0x4E68 JUMP JUMPDEST PUSH3 0x45DE SWAP3 SWAP2 SWAP1 PUSH3 0x63EF JUMP JUMPDEST PUSH1 0x40 MLOAD DUP1 SWAP2 SUB SWAP1 PUSH1 0x0 CREATE DUP1 ISZERO DUP1 ISZERO PUSH3 0x45FB JUMPI RETURNDATASIZE PUSH1 0x0 DUP1 RETURNDATACOPY RETURNDATASIZE PUSH1 0x0 REVERT JUMPDEST POP SWAP1 POP PUSH1 0x9 DUP2 SWAP1 DUP1 PUSH1 0x1 DUP2 SLOAD ADD DUP1 DUP3 SSTORE DUP1 SWAP2 POP POP PUSH1 0x1 SWAP1 SUB SWAP1 PUSH1 0x0 MSTORE PUSH1 0x20 PUSH1 0x0 KECCAK256 ADD PUSH1 0x0 SWAP1 SWAP2 SWAP1 SWAP2 SWAP1 SWAP2 PUSH2 0x100 EXP DUP2 SLOAD DUP2 PUSH20 0xFFFFFFFFFFFFFFFFFFFFFFFFFFFFFFFFFFFFFFFF MUL NOT AND SWAP1 DUP4 PUSH20 0xFFFFFFFFFFFFFFFFFFFFFFFFFFFFFFFFFFFFFFFF AND MUL OR SWAP1 SSTORE POP PUSH32 0xC922BE3E6C8C2EDA387EAF93BB6E2CC634C649A13AA14C9F218577308B763224 DUP2 PUSH1 0x40 MLOAD PUSH3 0x4692 SWAP2 SWAP1 PUSH3 0x5116 JUMP JUMPDEST PUSH1 0x40 MLOAD DUP1 SWAP2 SUB SWAP1 LOG1 DUP1 SWAP2 POP POP SWAP1 JUMP JUMPDEST PUSH1 0x9 DUP1 SLOAD SWAP1 POP DUP3 LT PUSH3 0x46EB JUMPI PUSH1 0x40 MLOAD PUSH32 0x8C379A000000000000000000000000000000000000000000000000000000000 DUP2 MSTORE PUSH1 0x4 ADD PUSH3 0x46E2 SWAP1 PUSH3 0x5580 JUMP JUMPDEST PUSH1 0x40 MLOAD DUP1 SWAP2 SUB SWAP1 REVERT JUMPDEST PUSH1 0x0 PUSH1 0x9 DUP4 DUP2 SLOAD DUP2 LT PUSH3 0x4704 JUMPI PUSH3 0x4703 PUSH3 0x55A2 JUMP JUMPDEST JUMPDEST SWAP1 PUSH1 0x0 MSTORE PUSH1 0x20 PUSH1 0x0 KECCAK256 ADD PUSH1 0x0 SWAP1 SLOAD SWAP1 PUSH2 0x100 EXP SWAP1 DIV PUSH20 0xFFFFFFFFFFFFFFFFFFFFFFFFFFFFFFFFFFFFFFFF AND SWAP1 POP DUP2 DUP2 PUSH20 0xFFFFFFFFFFFFFFFFFFFFFFFFFFFFFFFFFFFFFFFF AND BALANCE LT ISZERO PUSH3 0x478E JUMPI PUSH1 0x40 MLOAD PUSH32 0x8C379A000000000000000000000000000000000000000000000000000000000 DUP2 MSTORE PUSH1 0x4 ADD PUSH3 0x4785 SWAP1 PUSH3 0x646C JUMP JUMPDEST PUSH1 0x40 MLOAD DUP1 SWAP2 SUB SWAP1 REVERT JUMPDEST PUSH1 0x0 DUP2 SWAP1 POP PUSH32 0xEF0B94A4A9D812BC692C993A2A2A21D7FA4A95EBA5DAD7A4A4F61CF1D4D7A898 DUP3 DUP5 PUSH1 0x40 MLOAD PUSH3 0x47C6 SWAP3 SWAP2 SWAP1 PUSH3 0x598C JUMP JUMPDEST PUSH1 0x40 MLOAD DUP1 SWAP2 SUB SWAP1 LOG1 DUP1 PUSH20 0xFFFFFFFFFFFFFFFFFFFFFFFFFFFFFFFFFFFFFFFF AND PUSH4 0x2E1A7D4D DUP5 PUSH1 0x40 MLOAD DUP3 PUSH4 0xFFFFFFFF AND PUSH1 0xE0 SHL DUP2 MSTORE PUSH1 0x4 ADD PUSH3 0x4809 SWAP2 SWAP1 PUSH3 0x5144 JUMP JUMPDEST PUSH1 0x0 PUSH1 0x40 MLOAD DUP1 DUP4 SUB DUP2 PUSH1 0x0 DUP8 DUP1 EXTCODESIZE ISZERO DUP1 ISZERO PUSH3 0x4824 JUMPI PUSH1 0x0 DUP1 REVERT JUMPDEST POP GAS CALL ISZERO DUP1 ISZERO PUSH3 0x4839 JUMPI RETURNDATASIZE PUSH1 0x0 DUP1 RETURNDATACOPY RETURNDATASIZE PUSH1 0x0 REVERT JUMPDEST POP POP POP POP POP POP POP POP JUMP JUMPDEST PUSH1 0x0 DUP1 DUP3 SLT ISZERO PUSH3 0x4858 JUMPI PUSH1 0x0 SWAP1 POP PUSH3 0x485C JUMP JUMPDEST DUP2 SWAP1 POP JUMPDEST SWAP2 SWAP1 POP JUMP JUMPDEST PUSH1 0x9 DUP1 SLOAD SWAP1 POP DUP3 LT PUSH3 0x48AB JUMPI PUSH1 0x40 MLOAD PUSH32 0x8C379A000000000000000000000000000000000000000000000000000000000 DUP2 MSTORE PUSH1 0x4 ADD PUSH3 0x48A2 SWAP1 PUSH3 0x5580 JUMP JUMPDEST PUSH1 0x40 MLOAD DUP1 SWAP2 SUB SWAP1 REVERT JUMPDEST PUSH1 0x0 PUSH1 0x9 DUP4 DUP2 SLOAD DUP2 LT PUSH3 0x48C4 JUMPI PUSH3 0x48C3 PUSH3 0x55A2 JUMP JUMPDEST JUMPDEST SWAP1 PUSH1 0x0 MSTORE PUSH1 0x20 PUSH1 0x0 KECCAK256 ADD PUSH1 0x0 SWAP1 SLOAD SWAP1 PUSH2 0x100 EXP SWAP1 DIV PUSH20 0xFFFFFFFFFFFFFFFFFFFFFFFFFFFFFFFFFFFFFFFF AND SWAP1 POP PUSH1 0x0 PUSH1 0x5 PUSH1 0x0 SWAP1 SLOAD SWAP1 PUSH2 0x100 EXP SWAP1 DIV PUSH20 0xFFFFFFFFFFFFFFFFFFFFFFFFFFFFFFFFFFFFFFFF AND PUSH20 0xFFFFFFFFFFFFFFFFFFFFFFFFFFFFFFFFFFFFFFFF AND PUSH4 0xA73E51BC DUP4 DUP6 PUSH1 0x40 MLOAD DUP4 PUSH4 0xFFFFFFFF AND PUSH1 0xE0 SHL DUP2 MSTORE PUSH1 0x4 ADD PUSH3 0x4952 SWAP3 SWAP2 SWAP1 PUSH3 0x5A04 JUMP JUMPDEST PUSH1 0x20 PUSH1 0x40 MLOAD DUP1 DUP4 SUB DUP2 DUP7 GAS STATICCALL ISZERO DUP1 ISZERO PUSH3 0x4970 JUMPI RETURNDATASIZE PUSH1 0x0 DUP1 RETURNDATACOPY RETURNDATASIZE PUSH1 0x0 REVERT JUMPDEST POP POP POP POP PUSH1 0x40 MLOAD RETURNDATASIZE PUSH1 0x1F NOT PUSH1 0x1F DUP3 ADD AND DUP3 ADD DUP1 PUSH1 0x40 MSTORE POP DUP2 ADD SWAP1 PUSH3 0x4996 SWAP2 SWAP1 PUSH3 0x55E8 JUMP JUMPDEST SWAP1 POP DUP1 PUSH1 0xF PUSH1 0x0 DUP3 DUP3 SLOAD PUSH3 0x49AC SWAP2 SWAP1 PUSH3 0x5C30 JUMP JUMPDEST SWAP3 POP POP DUP2 SWAP1 SSTORE POP PUSH1 0x0 DUP3 SWAP1 POP DUP2 PUSH1 0x10 PUSH1 0x0 DUP6 PUSH20 0xFFFFFFFFFFFFFFFFFFFFFFFFFFFFFFFFFFFFFFFF AND PUSH20 0xFFFFFFFFFFFFFFFFFFFFFFFFFFFFFFFFFFFFFFFF AND DUP2 MSTORE PUSH1 0x20 ADD SWAP1 DUP2 MSTORE PUSH1 0x20 ADD PUSH1 0x0 KECCAK256 PUSH1 0x0 DUP7 PUSH20 0xFFFFFFFFFFFFFFFFFFFFFFFFFFFFFFFFFFFFFFFF AND PUSH20 0xFFFFFFFFFFFFFFFFFFFFFFFFFFFFFFFFFFFFFFFF AND DUP2 MSTORE PUSH1 0x20 ADD SWAP1 DUP2 MSTORE PUSH1 0x20 ADD PUSH1 0x0 KECCAK256 DUP2 SWAP1 SSTORE POP PUSH32 0x35347CB920DAA86C61EFC82C0004FC80124D9940BA2B24859C18A1A9F8E4CB39 DUP4 DUP6 PUSH1 0x40 MLOAD PUSH3 0x4A6C SWAP3 SWAP2 SWAP1 PUSH3 0x5A04 JUMP JUMPDEST PUSH1 0x40 MLOAD DUP1 SWAP2 SUB SWAP1 LOG1 DUP1 PUSH20 0xFFFFFFFFFFFFFFFFFFFFFFFFFFFFFFFFFFFFFFFF AND PUSH4 0x1A1C740C DUP6 PUSH1 0x40 MLOAD DUP3 PUSH4 0xFFFFFFFF AND PUSH1 0xE0 SHL DUP2 MSTORE PUSH1 0x4 ADD PUSH3 0x4AAF SWAP2 SWAP1 PUSH3 0x5116 JUMP JUMPDEST PUSH1 0x0 PUSH1 0x40 MLOAD DUP1 DUP4 SUB DUP2 PUSH1 0x0 DUP8 DUP1 EXTCODESIZE ISZERO DUP1 ISZERO PUSH3 0x4ACA JUMPI PUSH1 0x0 DUP1 REVERT JUMPDEST POP GAS CALL ISZERO DUP1 ISZERO PUSH3 0x4ADF JUMPI RETURNDATASIZE PUSH1 0x0 DUP1 RETURNDATACOPY RETURNDATASIZE PUSH1 0x0 REVERT JUMPDEST POP POP POP POP POP POP POP POP POP JUMP JUMPDEST PUSH1 0x5 PUSH1 0x0 SWAP1 SLOAD SWAP1 PUSH2 0x100 EXP SWAP1 DIV PUSH20 0xFFFFFFFFFFFFFFFFFFFFFFFFFFFFFFFFFFFFFFFF AND PUSH20 0xFFFFFFFFFFFFFFFFFFFFFFFFFFFFFFFFFFFFFFFF AND PUSH4 0x146CA531 PUSH1 0x40 MLOAD DUP2 PUSH4 0xFFFFFFFF AND PUSH1 0xE0 SHL DUP2 MSTORE PUSH1 0x4 ADD PUSH1 0x20 PUSH1 0x40 MLOAD DUP1 DUP4 SUB DUP2 DUP7 GAS STATICCALL ISZERO DUP1 ISZERO PUSH3 0x4B58 JUMPI RETURNDATASIZE PUSH1 0x0 DUP1 RETURNDATACOPY RETURNDATASIZE PUSH1 0x0 REVERT JUMPDEST POP POP POP POP PUSH1 0x40 MLOAD RETURNDATASIZE PUSH1 0x1F NOT PUSH1 0x1F DUP3 ADD AND DUP3 ADD DUP1 PUSH1 0x40 MSTORE POP DUP2 ADD SWAP1 PUSH3 0x4B7E SWAP2 SWAP1 PUSH3 0x55E8 JUMP JUMPDEST PUSH1 0xA DUP2 SWAP1 SSTORE POP PUSH1 0x0 PUSH3 0x4B90 PUSH3 0x4CFA JUMP JUMPDEST SWAP1 POP PUSH1 0x0 PUSH1 0x7 PUSH1 0x0 SWAP1 SLOAD SWAP1 PUSH2 0x100 EXP SWAP1 DIV PUSH20 0xFFFFFFFFFFFFFFFFFFFFFFFFFFFFFFFFFFFFFFFF AND PUSH20 0xFFFFFFFFFFFFFFFFFFFFFFFFFFFFFFFFFFFFFFFF AND PUSH4 0x18160DDD PUSH1 0x40 MLOAD DUP2 PUSH4 0xFFFFFFFF AND PUSH1 0xE0 SHL DUP2 MSTORE PUSH1 0x4 ADD PUSH1 0x20 PUSH1 0x40 MLOAD DUP1 DUP4 SUB DUP2 DUP7 GAS STATICCALL ISZERO DUP1 ISZERO PUSH3 0x4C02 JUMPI RETURNDATASIZE PUSH1 0x0 DUP1 RETURNDATACOPY RETURNDATASIZE PUSH1 0x0 REVERT JUMPDEST POP POP POP POP PUSH1 0x40 MLOAD RETURNDATASIZE PUSH1 0x1F NOT PUSH1 0x1F DUP3 ADD AND DUP3 ADD DUP1 PUSH1 0x40 MSTORE POP DUP2 ADD SWAP1 PUSH3 0x4C28 SWAP2 SWAP1 PUSH3 0x55E8 JUMP JUMPDEST SWAP1 POP PUSH1 0x0 DUP3 EQ DUP1 PUSH3 0x4C3A JUMPI POP PUSH1 0x0 DUP2 EQ JUMPDEST ISZERO PUSH3 0x4C64 JUMPI PUSH8 0xDE0B6B3A7640000 PUSH1 0xC DUP2 SWAP1 SSTORE POP PUSH8 0xDE0B6B3A7640000 PUSH1 0xD DUP2 SWAP1 SSTORE POP PUSH3 0x4CB7 JUMP JUMPDEST DUP1 PUSH8 0xDE0B6B3A7640000 DUP4 PUSH3 0x4C7B SWAP2 SWAP1 PUSH3 0x5E93 JUMP JUMPDEST PUSH3 0x4C87 SWAP2 SWAP1 PUSH3 0x5F0D JUMP JUMPDEST PUSH1 0xC DUP2 SWAP1 SSTORE POP DUP2 PUSH8 0xDE0B6B3A7640000 DUP3 PUSH3 0x4CA4 SWAP2 SWAP1 PUSH3 0x5E93 JUMP JUMPDEST PUSH3 0x4CB0 SWAP2 SWAP1 PUSH3 0x5F0D JUMP JUMPDEST PUSH1 0xD DUP2 SWAP1 SSTORE POP JUMPDEST PUSH32 0x11C6BF55864FF83827DF712625D7A80E5583EEF0264921025E7CD22003A21511 PUSH1 0xC SLOAD PUSH1 0xD SLOAD PUSH1 0x40 MLOAD PUSH3 0x4CEE SWAP3 SWAP2 SWAP1 PUSH3 0x648E JUMP JUMPDEST PUSH1 0x40 MLOAD DUP1 SWAP2 SUB SWAP1 LOG1 POP POP JUMP JUMPDEST PUSH1 0x0 DUP1 PUSH1 0x0 PUSH1 0x9 DUP1 SLOAD SWAP1 POP SWAP1 POP PUSH1 0x0 JUMPDEST DUP2 DUP2 LT ISZERO PUSH3 0x4E3D JUMPI PUSH1 0x0 PUSH1 0x9 DUP3 DUP2 SLOAD DUP2 LT PUSH3 0x4D2C JUMPI PUSH3 0x4D2B PUSH3 0x55A2 JUMP JUMPDEST JUMPDEST SWAP1 PUSH1 0x0 MSTORE PUSH1 0x20 PUSH1 0x0 KECCAK256 ADD PUSH1 0x0 SWAP1 SLOAD SWAP1 PUSH2 0x100 EXP SWAP1 DIV PUSH20 0xFFFFFFFFFFFFFFFFFFFFFFFFFFFFFFFFFFFFFFFF AND SWAP1 POP DUP1 PUSH20 0xFFFFFFFFFFFFFFFFFFFFFFFFFFFFFFFFFFFFFFFF AND BALANCE DUP5 PUSH3 0x4D7E SWAP2 SWAP1 PUSH3 0x5B83 JUMP JUMPDEST SWAP4 POP PUSH1 0x5 PUSH1 0x0 SWAP1 SLOAD SWAP1 PUSH2 0x100 EXP SWAP1 DIV PUSH20 0xFFFFFFFFFFFFFFFFFFFFFFFFFFFFFFFFFFFFFFFF AND PUSH20 0xFFFFFFFFFFFFFFFFFFFFFFFFFFFFFFFFFFFFFFFF AND PUSH4 0xE6861713 DUP3 PUSH1 0x40 MLOAD DUP3 PUSH4 0xFFFFFFFF AND PUSH1 0xE0 SHL DUP2 MSTORE PUSH1 0x4 ADD PUSH3 0x4DDD SWAP2 SWAP1 PUSH3 0x5116 JUMP JUMPDEST PUSH1 0x20 PUSH1 0x40 MLOAD DUP1 DUP4 SUB DUP2 DUP7 GAS STATICCALL ISZERO DUP1 ISZERO PUSH3 0x4DFB JUMPI RETURNDATASIZE PUSH1 0x0 DUP1 RETURNDATACOPY RETURNDATASIZE PUSH1 0x0 REVERT JUMPDEST POP POP POP POP PUSH1 0x40 MLOAD RETURNDATASIZE PUSH1 0x1F NOT PUSH1 0x1F DUP3 ADD AND DUP3 ADD DUP1 PUSH1 0x40 MSTORE POP DUP2 ADD SWAP1 PUSH3 0x4E21 SWAP2 SWAP1 PUSH3 0x55E8 JUMP JUMPDEST DUP5 PUSH3 0x4E2E SWAP2 SWAP1 PUSH3 0x5B83 JUMP JUMPDEST SWAP4 POP DUP2 PUSH1 0x1 ADD SWAP2 POP POP PUSH3 0x4D0A JUMP JUMPDEST POP PUSH1 0x0 PUSH1 0x11 SLOAD DUP4 SELFBALANCE PUSH3 0x4E51 SWAP2 SWAP1 PUSH3 0x5B83 JUMP JUMPDEST PUSH3 0x4E5D SWAP2 SWAP1 PUSH3 0x572D JUMP JUMPDEST SWAP1 POP DUP1 SWAP4 POP POP POP POP SWAP1 JUMP JUMPDEST PUSH2 0x1A7F DUP1 PUSH3 0x64BC DUP4 CODECOPY ADD SWAP1 JUMP JUMPDEST PUSH1 0x0 PUSH1 0x40 MLOAD SWAP1 POP SWAP1 JUMP JUMPDEST PUSH1 0x0 DUP1 REVERT JUMPDEST PUSH1 0x0 DUP2 SWAP1 POP SWAP2 SWAP1 POP JUMP JUMPDEST PUSH3 0x4E9A DUP2 PUSH3 0x4E85 JUMP JUMPDEST DUP2 EQ PUSH3 0x4EA6 JUMPI PUSH1 0x0 DUP1 REVERT JUMPDEST POP JUMP JUMPDEST PUSH1 0x0 DUP2 CALLDATALOAD SWAP1 POP PUSH3 0x4EBA DUP2 PUSH3 0x4E8F JUMP JUMPDEST SWAP3 SWAP2 POP POP JUMP JUMPDEST PUSH1 0x0 PUSH1 0x20 DUP3 DUP5 SUB SLT ISZERO PUSH3 0x4ED9 JUMPI PUSH3 0x4ED8 PUSH3 0x4E80 JUMP JUMPDEST JUMPDEST PUSH1 0x0 PUSH3 0x4EE9 DUP5 DUP3 DUP6 ADD PUSH3 0x4EA9 JUMP JUMPDEST SWAP2 POP POP SWAP3 SWAP2 POP POP JUMP JUMPDEST PUSH1 0x0 PUSH20 0xFFFFFFFFFFFFFFFFFFFFFFFFFFFFFFFFFFFFFFFF DUP3 AND SWAP1 POP SWAP2 SWAP1 POP JUMP JUMPDEST PUSH1 0x0 PUSH3 0x4F1F DUP3 PUSH3 0x4EF2 JUMP JUMPDEST SWAP1 POP SWAP2 SWAP1 POP JUMP JUMPDEST PUSH3 0x4F31 DUP2 PUSH3 0x4F12 JUMP JUMPDEST DUP2 EQ PUSH3 0x4F3D JUMPI PUSH1 0x0 DUP1 REVERT JUMPDEST POP JUMP JUMPDEST PUSH1 0x0 DUP2 CALLDATALOAD SWAP1 POP PUSH3 0x4F51 DUP2 PUSH3 0x4F26 JUMP JUMPDEST SWAP3 SWAP2 POP POP JUMP JUMPDEST PUSH1 0x0 PUSH1 0xFF DUP3 AND SWAP1 POP SWAP2 SWAP1 POP JUMP JUMPDEST PUSH3 0x4F6F DUP2 PUSH3 0x4F57 JUMP JUMPDEST DUP2 EQ PUSH3 0x4F7B JUMPI PUSH1 0x0 DUP1 REVERT JUMPDEST POP JUMP JUMPDEST PUSH1 0x0 DUP2 CALLDATALOAD SWAP1 POP PUSH3 0x4F8F DUP2 PUSH3 0x4F64 JUMP JUMPDEST SWAP3 SWAP2 POP POP JUMP JUMPDEST PUSH1 0x0 DUP1 PUSH1 0x0 PUSH1 0x60 DUP5 DUP7 SUB SLT ISZERO PUSH3 0x4FB1 JUMPI PUSH3 0x4FB0 PUSH3 0x4E80 JUMP JUMPDEST JUMPDEST PUSH1 0x0 PUSH3 0x4FC1 DUP7 DUP3 DUP8 ADD PUSH3 0x4EA9 JUMP JUMPDEST SWAP4 POP POP PUSH1 0x20 PUSH3 0x4FD4 DUP7 DUP3 DUP8 ADD PUSH3 0x4F40 JUMP JUMPDEST SWAP3 POP POP PUSH1 0x40 PUSH3 0x4FE7 DUP7 DUP3 DUP8 ADD PUSH3 0x4F7E JUMP JUMPDEST SWAP2 POP POP SWAP3 POP SWAP3 POP SWAP3 JUMP JUMPDEST PUSH1 0x0 PUSH3 0x4FFE DUP3 PUSH3 0x4EF2 JUMP JUMPDEST SWAP1 POP SWAP2 SWAP1 POP JUMP JUMPDEST PUSH3 0x5010 DUP2 PUSH3 0x4FF1 JUMP JUMPDEST DUP2 EQ PUSH3 0x501C JUMPI PUSH1 0x0 DUP1 REVERT JUMPDEST POP JUMP JUMPDEST PUSH1 0x0 DUP2 CALLDATALOAD SWAP1 POP PUSH3 0x5030 DUP2 PUSH3 0x5005 JUMP JUMPDEST SWAP3 SWAP2 POP POP JUMP JUMPDEST PUSH1 0x0 DUP1 PUSH1 0x0 DUP1 PUSH1 0x0 PUSH1 0xA0 DUP7 DUP9 SUB SLT ISZERO PUSH3 0x5055 JUMPI PUSH3 0x5054 PUSH3 0x4E80 JUMP JUMPDEST JUMPDEST PUSH1 0x0 PUSH3 0x5065 DUP9 DUP3 DUP10 ADD PUSH3 0x4F40 JUMP JUMPDEST SWAP6 POP POP PUSH1 0x20 PUSH3 0x5078 DUP9 DUP3 DUP10 ADD PUSH3 0x4F40 JUMP JUMPDEST SWAP5 POP POP PUSH1 0x40 PUSH3 0x508B DUP9 DUP3 DUP10 ADD PUSH3 0x4F40 JUMP JUMPDEST SWAP4 POP POP PUSH1 0x60 PUSH3 0x509E DUP9 DUP3 DUP10 ADD PUSH3 0x4F40 JUMP JUMPDEST SWAP3 POP POP PUSH1 0x80 PUSH3 0x50B1 DUP9 DUP3 DUP10 ADD PUSH3 0x501F JUMP JUMPDEST SWAP2 POP POP SWAP3 SWAP6 POP SWAP3 SWAP6 SWAP1 SWAP4 POP JUMP JUMPDEST PUSH1 0x0 DUP1 PUSH1 0x40 DUP4 DUP6 SUB SLT ISZERO PUSH3 0x50D8 JUMPI PUSH3 0x50D7 PUSH3 0x4E80 JUMP JUMPDEST JUMPDEST PUSH1 0x0 PUSH3 0x50E8 DUP6 DUP3 DUP7 ADD PUSH3 0x4EA9 JUMP JUMPDEST SWAP3 POP POP PUSH1 0x20 PUSH3 0x50FB DUP6 DUP3 DUP7 ADD PUSH3 0x4EA9 JUMP JUMPDEST SWAP2 POP POP SWAP3 POP SWAP3 SWAP1 POP JUMP JUMPDEST PUSH3 0x5110 DUP2 PUSH3 0x4F12 JUMP JUMPDEST DUP3 MSTORE POP POP JUMP JUMPDEST PUSH1 0x0 PUSH1 0x20 DUP3 ADD SWAP1 POP PUSH3 0x512D PUSH1 0x0 DUP4 ADD DUP5 PUSH3 0x5105 JUMP JUMPDEST SWAP3 SWAP2 POP POP JUMP JUMPDEST PUSH3 0x513E DUP2 PUSH3 0x4E85 JUMP JUMPDEST DUP3 MSTORE POP POP JUMP JUMPDEST PUSH1 0x0 PUSH1 0x20 DUP3 ADD SWAP1 POP PUSH3 0x515B PUSH1 0x0 DUP4 ADD DUP5 PUSH3 0x5133 JUMP JUMPDEST SWAP3 SWAP2 POP POP JUMP JUMPDEST PUSH1 0x0 DUP1 PUSH1 0x40 DUP4 DUP6 SUB SLT ISZERO PUSH3 0x517B JUMPI PUSH3 0x517A PUSH3 0x4E80 JUMP JUMPDEST JUMPDEST PUSH1 0x0 PUSH3 0x518B DUP6 DUP3 DUP7 ADD PUSH3 0x4EA9 JUMP JUMPDEST SWAP3 POP POP PUSH1 0x20 PUSH3 0x519E DUP6 DUP3 DUP7 ADD PUSH3 0x4F40 JUMP JUMPDEST SWAP2 POP POP SWAP3 POP SWAP3 SWAP1 POP JUMP JUMPDEST PUSH1 0x0 DUP2 SWAP1 POP SWAP2 SWAP1 POP JUMP JUMPDEST PUSH3 0x51BD DUP2 PUSH3 0x51A8 JUMP JUMPDEST DUP3 MSTORE POP POP JUMP JUMPDEST PUSH1 0x0 PUSH1 0x20 DUP3 ADD SWAP1 POP PUSH3 0x51DA PUSH1 0x0 DUP4 ADD DUP5 PUSH3 0x51B2 JUMP JUMPDEST SWAP3 SWAP2 POP POP JUMP JUMPDEST PUSH1 0x0 DUP1 PUSH1 0x0 PUSH1 0x60 DUP5 DUP7 SUB SLT ISZERO PUSH3 0x51FC JUMPI PUSH3 0x51FB PUSH3 0x4E80 JUMP JUMPDEST JUMPDEST PUSH1 0x0 PUSH3 0x520C DUP7 DUP3 DUP8 ADD PUSH3 0x4EA9 JUMP JUMPDEST SWAP4 POP POP PUSH1 0x20 PUSH3 0x521F DUP7 DUP3 DUP8 ADD PUSH3 0x4F40 JUMP JUMPDEST SWAP3 POP POP PUSH1 0x40 PUSH3 0x5232 DUP7 DUP3 DUP8 ADD PUSH3 0x4EA9 JUMP JUMPDEST SWAP2 POP POP SWAP3 POP SWAP3 POP SWAP3 JUMP JUMPDEST PUSH1 0x0 DUP1 PUSH1 0x0 DUP1 PUSH1 0x80 DUP6 DUP8 SUB SLT ISZERO PUSH3 0x5259 JUMPI PUSH3 0x5258 PUSH3 0x4E80 JUMP JUMPDEST JUMPDEST PUSH1 0x0 PUSH3 0x5269 DUP8 DUP3 DUP9 ADD PUSH3 0x4EA9 JUMP JUMPDEST SWAP5 POP POP PUSH1 0x20 PUSH3 0x527C DUP8 DUP3 DUP9 ADD PUSH3 0x4F40 JUMP JUMPDEST SWAP4 POP POP PUSH1 0x40 PUSH3 0x528F DUP8 DUP3 DUP9 ADD PUSH3 0x4EA9 JUMP JUMPDEST SWAP3 POP POP PUSH1 0x60 PUSH3 0x52A2 DUP8 DUP3 DUP9 ADD PUSH3 0x4F7E JUMP JUMPDEST SWAP2 POP POP SWAP3 SWAP6 SWAP2 SWAP5 POP SWAP3 POP JUMP JUMPDEST PUSH1 0x0 DUP2 ISZERO ISZERO SWAP1 POP SWAP2 SWAP1 POP JUMP JUMPDEST PUSH3 0x52C5 DUP2 PUSH3 0x52AE JUMP JUMPDEST DUP2 EQ PUSH3 0x52D1 JUMPI PUSH1 0x0 DUP1 REVERT JUMPDEST POP JUMP JUMPDEST PUSH1 0x0 DUP2 CALLDATALOAD SWAP1 POP PUSH3 0x52E5 DUP2 PUSH3 0x52BA JUMP JUMPDEST SWAP3 SWAP2 POP POP JUMP JUMPDEST PUSH1 0x0 PUSH1 0x20 DUP3 DUP5 SUB SLT ISZERO PUSH3 0x5304 JUMPI PUSH3 0x5303 PUSH3 0x4E80 JUMP JUMPDEST JUMPDEST PUSH1 0x0 PUSH3 0x5314 DUP5 DUP3 DUP6 ADD PUSH3 0x52D4 JUMP JUMPDEST SWAP2 POP POP SWAP3 SWAP2 POP POP JUMP JUMPDEST PUSH3 0x5328 DUP2 PUSH3 0x51A8 JUMP JUMPDEST DUP2 EQ PUSH3 0x5334 JUMPI PUSH1 0x0 DUP1 REVERT JUMPDEST POP JUMP JUMPDEST PUSH1 0x0 DUP2 CALLDATALOAD SWAP1 POP PUSH3 0x5348 DUP2 PUSH3 0x531D JUMP JUMPDEST SWAP3 SWAP2 POP POP JUMP JUMPDEST PUSH1 0x0 PUSH1 0x20 DUP3 DUP5 SUB SLT ISZERO PUSH3 0x5367 JUMPI PUSH3 0x5366 PUSH3 0x4E80 JUMP JUMPDEST JUMPDEST PUSH1 0x0 PUSH3 0x5377 DUP5 DUP3 DUP6 ADD PUSH3 0x5337 JUMP JUMPDEST SWAP2 POP POP SWAP3 SWAP2 POP POP JUMP JUMPDEST PUSH1 0x0 PUSH1 0x40 DUP3 ADD SWAP1 POP PUSH3 0x5397 PUSH1 0x0 DUP4 ADD DUP6 PUSH3 0x51B2 JUMP JUMPDEST PUSH3 0x53A6 PUSH1 0x20 DUP4 ADD DUP5 PUSH3 0x51B2 JUMP JUMPDEST SWAP4 SWAP3 POP POP POP JUMP JUMPDEST PUSH3 0x53B8 DUP2 PUSH3 0x52AE JUMP JUMPDEST DUP3 MSTORE POP POP JUMP JUMPDEST PUSH1 0x0 PUSH1 0x20 DUP3 ADD SWAP1 POP PUSH3 0x53D5 PUSH1 0x0 DUP4 ADD DUP5 PUSH3 0x53AD JUMP JUMPDEST SWAP3 SWAP2 POP POP JUMP JUMPDEST PUSH3 0x53E6 DUP2 PUSH3 0x4FF1 JUMP JUMPDEST DUP3 MSTORE POP POP JUMP JUMPDEST PUSH1 0x0 PUSH1 0x20 DUP3 ADD SWAP1 POP PUSH3 0x5403 PUSH1 0x0 DUP4 ADD DUP5 PUSH3 0x53DB JUMP JUMPDEST SWAP3 SWAP2 POP POP JUMP JUMPDEST PUSH1 0x0 PUSH1 0x20 DUP3 DUP5 SUB SLT ISZERO PUSH3 0x5422 JUMPI PUSH3 0x5421 PUSH3 0x4E80 JUMP JUMPDEST JUMPDEST PUSH1 0x0 PUSH3 0x5432 DUP5 DUP3 DUP6 ADD PUSH3 0x4F40 JUMP JUMPDEST SWAP2 POP POP SWAP3 SWAP2 POP POP JUMP JUMPDEST PUSH1 0x0 DUP3 DUP3 MSTORE PUSH1 0x20 DUP3 ADD SWAP1 POP SWAP3 SWAP2 POP POP JUMP JUMPDEST PUSH32 0x4E4F545F50524F58590000000000000000000000000000000000000000000000 PUSH1 0x0 DUP3 ADD MSTORE POP JUMP JUMPDEST PUSH1 0x0 PUSH3 0x5484 PUSH1 0x9 DUP4 PUSH3 0x543B JUMP JUMPDEST SWAP2 POP PUSH3 0x5491 DUP3 PUSH3 0x544C JUMP JUMPDEST PUSH1 0x20 DUP3 ADD SWAP1 POP SWAP2 SWAP1 POP JUMP JUMPDEST PUSH1 0x0 PUSH1 0x20 DUP3 ADD SWAP1 POP DUP2 DUP2 SUB PUSH1 0x0 DUP4 ADD MSTORE PUSH3 0x54B7 DUP2 PUSH3 0x5475 JUMP JUMPDEST SWAP1 POP SWAP2 SWAP1 POP JUMP JUMPDEST PUSH32 0x4D494E5F315F4C45444745520000000000000000000000000000000000000000 PUSH1 0x0 DUP3 ADD MSTORE POP JUMP JUMPDEST PUSH1 0x0 PUSH3 0x54F6 PUSH1 0xC DUP4 PUSH3 0x543B JUMP JUMPDEST SWAP2 POP PUSH3 0x5503 DUP3 PUSH3 0x54BE JUMP JUMPDEST PUSH1 0x20 DUP3 ADD SWAP1 POP SWAP2 SWAP1 POP JUMP JUMPDEST PUSH1 0x0 PUSH1 0x20 DUP3 ADD SWAP1 POP DUP2 DUP2 SUB PUSH1 0x0 DUP4 ADD MSTORE PUSH3 0x5529 DUP2 PUSH3 0x54E7 JUMP JUMPDEST SWAP1 POP SWAP2 SWAP1 POP JUMP JUMPDEST PUSH32 0x494E565F494E4445580000000000000000000000000000000000000000000000 PUSH1 0x0 DUP3 ADD MSTORE POP JUMP JUMPDEST PUSH1 0x0 PUSH3 0x5568 PUSH1 0x9 DUP4 PUSH3 0x543B JUMP JUMPDEST SWAP2 POP PUSH3 0x5575 DUP3 PUSH3 0x5530 JUMP JUMPDEST PUSH1 0x20 DUP3 ADD SWAP1 POP SWAP2 SWAP1 POP JUMP JUMPDEST PUSH1 0x0 PUSH1 0x20 DUP3 ADD SWAP1 POP DUP2 DUP2 SUB PUSH1 0x0 DUP4 ADD MSTORE PUSH3 0x559B DUP2 PUSH3 0x5559 JUMP JUMPDEST SWAP1 POP SWAP2 SWAP1 POP JUMP JUMPDEST PUSH32 0x4E487B7100000000000000000000000000000000000000000000000000000000 PUSH1 0x0 MSTORE PUSH1 0x32 PUSH1 0x4 MSTORE PUSH1 0x24 PUSH1 0x0 REVERT JUMPDEST PUSH1 0x0 DUP2 MLOAD SWAP1 POP PUSH3 0x55E2 DUP2 PUSH3 0x4E8F JUMP JUMPDEST SWAP3 SWAP2 POP POP JUMP JUMPDEST PUSH1 0x0 PUSH1 0x20 DUP3 DUP5 SUB SLT ISZERO PUSH3 0x5601 JUMPI PUSH3 0x5600 PUSH3 0x4E80 JUMP JUMPDEST JUMPDEST PUSH1 0x0 PUSH3 0x5611 DUP5 DUP3 DUP6 ADD PUSH3 0x55D1 JUMP JUMPDEST SWAP2 POP POP SWAP3 SWAP2 POP POP JUMP JUMPDEST PUSH32 0x44454C45474154494F4E5F4E4F545F5A45524F00000000000000000000000000 PUSH1 0x0 DUP3 ADD MSTORE POP JUMP JUMPDEST PUSH1 0x0 PUSH3 0x5652 PUSH1 0x13 DUP4 PUSH3 0x543B JUMP JUMPDEST SWAP2 POP PUSH3 0x565F DUP3 PUSH3 0x561A JUMP JUMPDEST PUSH1 0x20 DUP3 ADD SWAP1 POP SWAP2 SWAP1 POP JUMP JUMPDEST PUSH1 0x0 PUSH1 0x20 DUP3 ADD SWAP1 POP DUP2 DUP2 SUB PUSH1 0x0 DUP4 ADD MSTORE PUSH3 0x5685 DUP2 PUSH3 0x5643 JUMP JUMPDEST SWAP1 POP SWAP2 SWAP1 POP JUMP JUMPDEST PUSH32 0x42414C414E43455F4E4F545F5A45524F00000000000000000000000000000000 PUSH1 0x0 DUP3 ADD MSTORE POP JUMP JUMPDEST PUSH1 0x0 PUSH3 0x56C4 PUSH1 0x10 DUP4 PUSH3 0x543B JUMP JUMPDEST SWAP2 POP PUSH3 0x56D1 DUP3 PUSH3 0x568C JUMP JUMPDEST PUSH1 0x20 DUP3 ADD SWAP1 POP SWAP2 SWAP1 POP JUMP JUMPDEST PUSH1 0x0 PUSH1 0x20 DUP3 ADD SWAP1 POP DUP2 DUP2 SUB PUSH1 0x0 DUP4 ADD MSTORE PUSH3 0x56F7 DUP2 PUSH3 0x56B5 JUMP JUMPDEST SWAP1 POP SWAP2 SWAP1 POP JUMP JUMPDEST PUSH32 0x4E487B7100000000000000000000000000000000000000000000000000000000 PUSH1 0x0 MSTORE PUSH1 0x11 PUSH1 0x4 MSTORE PUSH1 0x24 PUSH1 0x0 REVERT JUMPDEST PUSH1 0x0 PUSH3 0x573A DUP3 PUSH3 0x4E85 JUMP JUMPDEST SWAP2 POP PUSH3 0x5747 DUP4 PUSH3 0x4E85 JUMP JUMPDEST SWAP3 POP DUP3 DUP3 SUB SWAP1 POP DUP2 DUP2 GT ISZERO PUSH3 0x5762 JUMPI PUSH3 0x5761 PUSH3 0x56FE JUMP JUMPDEST JUMPDEST SWAP3 SWAP2 POP POP JUMP JUMPDEST PUSH32 0x4E487B7100000000000000000000000000000000000000000000000000000000 PUSH1 0x0 MSTORE PUSH1 0x31 PUSH1 0x4 MSTORE PUSH1 0x24 PUSH1 0x0 REVERT JUMPDEST PUSH32 0x4E4F545F4C454447455200000000000000000000000000000000000000000000 PUSH1 0x0 DUP3 ADD MSTORE POP JUMP JUMPDEST PUSH1 0x0 PUSH3 0x57CF PUSH1 0xA DUP4 PUSH3 0x543B JUMP JUMPDEST SWAP2 POP PUSH3 0x57DC DUP3 PUSH3 0x5797 JUMP JUMPDEST PUSH1 0x20 DUP3 ADD SWAP1 POP SWAP2 SWAP1 POP JUMP JUMPDEST PUSH1 0x0 PUSH1 0x20 DUP3 ADD SWAP1 POP DUP2 DUP2 SUB PUSH1 0x0 DUP4 ADD MSTORE PUSH3 0x5802 DUP2 PUSH3 0x57C0 JUMP JUMPDEST SWAP1 POP SWAP2 SWAP1 POP JUMP JUMPDEST PUSH3 0x5814 DUP2 PUSH3 0x4F57 JUMP JUMPDEST DUP3 MSTORE POP POP JUMP JUMPDEST PUSH1 0x0 PUSH1 0x60 DUP3 ADD SWAP1 POP PUSH3 0x5831 PUSH1 0x0 DUP4 ADD DUP7 PUSH3 0x5105 JUMP JUMPDEST PUSH3 0x5840 PUSH1 0x20 DUP4 ADD DUP6 PUSH3 0x5105 JUMP JUMPDEST PUSH3 0x584F PUSH1 0x40 DUP4 ADD DUP5 PUSH3 0x5809 JUMP JUMPDEST SWAP5 SWAP4 POP POP POP POP JUMP JUMPDEST PUSH1 0x0 PUSH1 0x40 DUP3 ADD SWAP1 POP PUSH3 0x586E PUSH1 0x0 DUP4 ADD DUP6 PUSH3 0x5105 JUMP JUMPDEST PUSH3 0x587D PUSH1 0x20 DUP4 ADD DUP5 PUSH3 0x5809 JUMP JUMPDEST SWAP4 SWAP3 POP POP POP JUMP JUMPDEST PUSH32 0x414C52454144595F494E49540000000000000000000000000000000000000000 PUSH1 0x0 DUP3 ADD MSTORE POP JUMP JUMPDEST PUSH1 0x0 PUSH3 0x58BC PUSH1 0xC DUP4 PUSH3 0x543B JUMP JUMPDEST SWAP2 POP PUSH3 0x58C9 DUP3 PUSH3 0x5884 JUMP JUMPDEST PUSH1 0x20 DUP3 ADD SWAP1 POP SWAP2 SWAP1 POP JUMP JUMPDEST PUSH1 0x0 PUSH1 0x20 DUP3 ADD SWAP1 POP DUP2 DUP2 SUB PUSH1 0x0 DUP4 ADD MSTORE PUSH3 0x58EF DUP2 PUSH3 0x58AD JUMP JUMPDEST SWAP1 POP SWAP2 SWAP1 POP JUMP JUMPDEST PUSH32 0x494E565F494E49545F4341504954414C00000000000000000000000000000000 PUSH1 0x0 DUP3 ADD MSTORE POP JUMP JUMPDEST PUSH1 0x0 PUSH3 0x592E PUSH1 0x10 DUP4 PUSH3 0x543B JUMP JUMPDEST SWAP2 POP PUSH3 0x593B DUP3 PUSH3 0x58F6 JUMP JUMPDEST PUSH1 0x20 DUP3 ADD SWAP1 POP SWAP2 SWAP1 POP JUMP JUMPDEST PUSH1 0x0 PUSH1 0x20 DUP3 ADD SWAP1 POP DUP2 DUP2 SUB PUSH1 0x0 DUP4 ADD MSTORE PUSH3 0x5961 DUP2 PUSH3 0x591F JUMP JUMPDEST SWAP1 POP SWAP2 SWAP1 POP JUMP JUMPDEST DUP1 DUP3 MSTORE POP POP JUMP JUMPDEST PUSH1 0x0 PUSH1 0x20 DUP3 ADD SWAP1 POP PUSH3 0x5986 PUSH1 0x0 DUP4 ADD DUP5 PUSH3 0x5968 JUMP JUMPDEST SWAP3 SWAP2 POP POP JUMP JUMPDEST PUSH1 0x0 PUSH1 0x40 DUP3 ADD SWAP1 POP PUSH3 0x59A3 PUSH1 0x0 DUP4 ADD DUP6 PUSH3 0x5105 JUMP JUMPDEST PUSH3 0x59B2 PUSH1 0x20 DUP4 ADD DUP5 PUSH3 0x5133 JUMP JUMPDEST SWAP4 SWAP3 POP POP POP JUMP JUMPDEST PUSH1 0x0 PUSH3 0x59C6 DUP3 PUSH3 0x51A8 JUMP JUMPDEST SWAP2 POP PUSH3 0x59D3 DUP4 PUSH3 0x51A8 JUMP JUMPDEST SWAP3 POP DUP3 DUP3 ADD SWAP1 POP DUP3 DUP2 SLT ISZERO PUSH1 0x0 DUP4 SLT AND DUP4 DUP3 SLT PUSH1 0x0 DUP5 SLT ISZERO AND OR ISZERO PUSH3 0x59FE JUMPI PUSH3 0x59FD PUSH3 0x56FE JUMP JUMPDEST JUMPDEST SWAP3 SWAP2 POP POP JUMP JUMPDEST PUSH1 0x0 PUSH1 0x40 DUP3 ADD SWAP1 POP PUSH3 0x5A1B PUSH1 0x0 DUP4 ADD DUP6 PUSH3 0x5105 JUMP JUMPDEST PUSH3 0x5A2A PUSH1 0x20 DUP4 ADD DUP5 PUSH3 0x5105 JUMP JUMPDEST SWAP4 SWAP3 POP POP POP JUMP JUMPDEST PUSH1 0x0 DUP1 REVERT JUMPDEST PUSH1 0x0 PUSH1 0x1F NOT PUSH1 0x1F DUP4 ADD AND SWAP1 POP SWAP2 SWAP1 POP JUMP JUMPDEST PUSH32 0x4E487B7100000000000000000000000000000000000000000000000000000000 PUSH1 0x0 MSTORE PUSH1 0x41 PUSH1 0x4 MSTORE PUSH1 0x24 PUSH1 0x0 REVERT JUMPDEST PUSH3 0x5A81 DUP3 PUSH3 0x5A36 JUMP JUMPDEST DUP2 ADD DUP2 DUP2 LT PUSH8 0xFFFFFFFFFFFFFFFF DUP3 GT OR ISZERO PUSH3 0x5AA3 JUMPI PUSH3 0x5AA2 PUSH3 0x5A47 JUMP JUMPDEST JUMPDEST DUP1 PUSH1 0x40 MSTORE POP POP POP JUMP JUMPDEST PUSH1 0x0 PUSH3 0x5AB8 PUSH3 0x4E76 JUMP JUMPDEST SWAP1 POP PUSH3 0x5AC6 DUP3 DUP3 PUSH3 0x5A76 JUMP JUMPDEST SWAP2 SWAP1 POP JUMP JUMPDEST PUSH1 0x0 DUP2 MLOAD SWAP1 POP PUSH3 0x5ADC DUP2 PUSH3 0x4F26 JUMP JUMPDEST SWAP3 SWAP2 POP POP JUMP JUMPDEST PUSH1 0x0 PUSH1 0x60 DUP3 DUP5 SUB SLT ISZERO PUSH3 0x5AFB JUMPI PUSH3 0x5AFA PUSH3 0x5A31 JUMP JUMPDEST JUMPDEST PUSH3 0x5B07 PUSH1 0x60 PUSH3 0x5AAC JUMP JUMPDEST SWAP1 POP PUSH1 0x0 PUSH3 0x5B19 DUP5 DUP3 DUP6 ADD PUSH3 0x5ACB JUMP JUMPDEST PUSH1 0x0 DUP4 ADD MSTORE POP PUSH1 0x20 PUSH3 0x5B2F DUP5 DUP3 DUP6 ADD PUSH3 0x55D1 JUMP JUMPDEST PUSH1 0x20 DUP4 ADD MSTORE POP PUSH1 0x40 PUSH3 0x5B45 DUP5 DUP3 DUP6 ADD PUSH3 0x55D1 JUMP JUMPDEST PUSH1 0x40 DUP4 ADD MSTORE POP SWAP3 SWAP2 POP POP JUMP JUMPDEST PUSH1 0x0 PUSH1 0x60 DUP3 DUP5 SUB SLT ISZERO PUSH3 0x5B6A JUMPI PUSH3 0x5B69 PUSH3 0x4E80 JUMP JUMPDEST JUMPDEST PUSH1 0x0 PUSH3 0x5B7A DUP5 DUP3 DUP6 ADD PUSH3 0x5AE2 JUMP JUMPDEST SWAP2 POP POP SWAP3 SWAP2 POP POP JUMP JUMPDEST PUSH1 0x0 PUSH3 0x5B90 DUP3 PUSH3 0x4E85 JUMP JUMPDEST SWAP2 POP PUSH3 0x5B9D DUP4 PUSH3 0x4E85 JUMP JUMPDEST SWAP3 POP DUP3 DUP3 ADD SWAP1 POP DUP1 DUP3 GT ISZERO PUSH3 0x5BB8 JUMPI PUSH3 0x5BB7 PUSH3 0x56FE JUMP JUMPDEST JUMPDEST SWAP3 SWAP2 POP POP JUMP JUMPDEST PUSH32 0x434F4E445F4E4F545F4D45540000000000000000000000000000000000000000 PUSH1 0x0 DUP3 ADD MSTORE POP JUMP JUMPDEST PUSH1 0x0 PUSH3 0x5BF6 PUSH1 0xC DUP4 PUSH3 0x543B JUMP JUMPDEST SWAP2 POP PUSH3 0x5C03 DUP3 PUSH3 0x5BBE JUMP JUMPDEST PUSH1 0x20 DUP3 ADD SWAP1 POP SWAP2 SWAP1 POP JUMP JUMPDEST PUSH1 0x0 PUSH1 0x20 DUP3 ADD SWAP1 POP DUP2 DUP2 SUB PUSH1 0x0 DUP4 ADD MSTORE PUSH3 0x5C29 DUP2 PUSH3 0x5BE7 JUMP JUMPDEST SWAP1 POP SWAP2 SWAP1 POP JUMP JUMPDEST PUSH1 0x0 PUSH3 0x5C3D DUP3 PUSH3 0x51A8 JUMP JUMPDEST SWAP2 POP PUSH3 0x5C4A DUP4 PUSH3 0x51A8 JUMP JUMPDEST SWAP3 POP DUP3 DUP3 SUB SWAP1 POP DUP2 DUP2 SLT PUSH1 0x0 DUP5 SLT AND DUP3 DUP3 SGT PUSH1 0x0 DUP6 SLT ISZERO AND OR ISZERO PUSH3 0x5C74 JUMPI PUSH3 0x5C73 PUSH3 0x56FE JUMP JUMPDEST JUMPDEST SWAP3 SWAP2 POP POP JUMP JUMPDEST PUSH1 0x0 PUSH1 0x60 DUP3 ADD SWAP1 POP PUSH3 0x5C91 PUSH1 0x0 DUP4 ADD DUP7 PUSH3 0x5105 JUMP JUMPDEST PUSH3 0x5CA0 PUSH1 0x20 DUP4 ADD DUP6 PUSH3 0x5105 JUMP JUMPDEST PUSH3 0x5CAF PUSH1 0x40 DUP4 ADD DUP5 PUSH3 0x5133 JUMP JUMPDEST SWAP5 SWAP4 POP POP POP POP JUMP JUMPDEST PUSH1 0x0 PUSH1 0x60 DUP3 ADD SWAP1 POP PUSH3 0x5CCE PUSH1 0x0 DUP4 ADD DUP7 PUSH3 0x5105 JUMP JUMPDEST PUSH3 0x5CDD PUSH1 0x20 DUP4 ADD DUP6 PUSH3 0x5133 JUMP JUMPDEST PUSH3 0x5CEC PUSH1 0x40 DUP4 ADD DUP5 PUSH3 0x5809 JUMP JUMPDEST SWAP5 SWAP4 POP POP POP POP JUMP JUMPDEST PUSH32 0x42454C4F575F535550504C590000000000000000000000000000000000000000 PUSH1 0x0 DUP3 ADD MSTORE POP JUMP JUMPDEST PUSH1 0x0 PUSH3 0x5D2C PUSH1 0xC DUP4 PUSH3 0x543B JUMP JUMPDEST SWAP2 POP PUSH3 0x5D39 DUP3 PUSH3 0x5CF4 JUMP JUMPDEST PUSH1 0x20 DUP3 ADD SWAP1 POP SWAP2 SWAP1 POP JUMP JUMPDEST PUSH1 0x0 PUSH1 0x20 DUP3 ADD SWAP1 POP DUP2 DUP2 SUB PUSH1 0x0 DUP4 ADD MSTORE PUSH3 0x5D5F DUP2 PUSH3 0x5D1D JUMP JUMPDEST SWAP1 POP SWAP2 SWAP1 POP JUMP JUMPDEST PUSH1 0x0 DUP2 MLOAD SWAP1 POP PUSH3 0x5D77 DUP2 PUSH3 0x52BA JUMP JUMPDEST SWAP3 SWAP2 POP POP JUMP JUMPDEST PUSH1 0x0 PUSH1 0x20 DUP3 DUP5 SUB SLT ISZERO PUSH3 0x5D96 JUMPI PUSH3 0x5D95 PUSH3 0x4E80 JUMP JUMPDEST JUMPDEST PUSH1 0x0 PUSH3 0x5DA6 DUP5 DUP3 DUP6 ADD PUSH3 0x5D66 JUMP JUMPDEST SWAP2 POP POP SWAP3 SWAP2 POP POP JUMP JUMPDEST PUSH32 0x4E4F5F4C49510000000000000000000000000000000000000000000000000000 PUSH1 0x0 DUP3 ADD MSTORE POP JUMP JUMPDEST PUSH1 0x0 PUSH3 0x5DE7 PUSH1 0x6 DUP4 PUSH3 0x543B JUMP JUMPDEST SWAP2 POP PUSH3 0x5DF4 DUP3 PUSH3 0x5DAF JUMP JUMPDEST PUSH1 0x20 DUP3 ADD SWAP1 POP SWAP2 SWAP1 POP JUMP JUMPDEST PUSH1 0x0 PUSH1 0x20 DUP3 ADD SWAP1 POP DUP2 DUP2 SUB PUSH1 0x0 DUP4 ADD MSTORE PUSH3 0x5E1A DUP2 PUSH3 0x5DD8 JUMP JUMPDEST SWAP1 POP SWAP2 SWAP1 POP JUMP JUMPDEST PUSH32 0x5A45524F5F5041594D454E540000000000000000000000000000000000000000 PUSH1 0x0 DUP3 ADD MSTORE POP JUMP JUMPDEST PUSH1 0x0 PUSH3 0x5E59 PUSH1 0xC DUP4 PUSH3 0x543B JUMP JUMPDEST SWAP2 POP PUSH3 0x5E66 DUP3 PUSH3 0x5E21 JUMP JUMPDEST PUSH1 0x20 DUP3 ADD SWAP1 POP SWAP2 SWAP1 POP JUMP JUMPDEST PUSH1 0x0 PUSH1 0x20 DUP3 ADD SWAP1 POP DUP2 DUP2 SUB PUSH1 0x0 DUP4 ADD MSTORE PUSH3 0x5E8C DUP2 PUSH3 0x5E4A JUMP JUMPDEST SWAP1 POP SWAP2 SWAP1 POP JUMP JUMPDEST PUSH1 0x0 PUSH3 0x5EA0 DUP3 PUSH3 0x4E85 JUMP JUMPDEST SWAP2 POP PUSH3 0x5EAD DUP4 PUSH3 0x4E85 JUMP JUMPDEST SWAP3 POP DUP3 DUP3 MUL PUSH3 0x5EBD DUP2 PUSH3 0x4E85 JUMP JUMPDEST SWAP2 POP DUP3 DUP3 DIV DUP5 EQ DUP4 ISZERO OR PUSH3 0x5ED7 JUMPI PUSH3 0x5ED6 PUSH3 0x56FE JUMP JUMPDEST JUMPDEST POP SWAP3 SWAP2 POP POP JUMP JUMPDEST PUSH32 0x4E487B7100000000000000000000000000000000000000000000000000000000 PUSH1 0x0 MSTORE PUSH1 0x12 PUSH1 0x4 MSTORE PUSH1 0x24 PUSH1 0x0 REVERT JUMPDEST PUSH1 0x0 PUSH3 0x5F1A DUP3 PUSH3 0x4E85 JUMP JUMPDEST SWAP2 POP PUSH3 0x5F27 DUP4 PUSH3 0x4E85 JUMP JUMPDEST SWAP3 POP DUP3 PUSH3 0x5F3A JUMPI PUSH3 0x5F39 PUSH3 0x5EDE JUMP JUMPDEST JUMPDEST DUP3 DUP3 DIV SWAP1 POP SWAP3 SWAP2 POP POP JUMP JUMPDEST PUSH32 0x4D41585F535550504C5900000000000000000000000000000000000000000000 PUSH1 0x0 DUP3 ADD MSTORE POP JUMP JUMPDEST PUSH1 0x0 PUSH3 0x5F7D PUSH1 0xA DUP4 PUSH3 0x543B JUMP JUMPDEST SWAP2 POP PUSH3 0x5F8A DUP3 PUSH3 0x5F45 JUMP JUMPDEST PUSH1 0x20 DUP3 ADD SWAP1 POP SWAP2 SWAP1 POP JUMP JUMPDEST PUSH1 0x0 PUSH1 0x20 DUP3 ADD SWAP1 POP DUP2 DUP2 SUB PUSH1 0x0 DUP4 ADD MSTORE PUSH3 0x5FB0 DUP2 PUSH3 0x5F6E JUMP JUMPDEST SWAP1 POP SWAP2 SWAP1 POP JUMP JUMPDEST PUSH32 0x4D41585F44454C45470000000000000000000000000000000000000000000000 PUSH1 0x0 DUP3 ADD MSTORE POP JUMP JUMPDEST PUSH1 0x0 PUSH3 0x5FEF PUSH1 0x9 DUP4 PUSH3 0x543B JUMP JUMPDEST SWAP2 POP PUSH3 0x5FFC DUP3 PUSH3 0x5FB7 JUMP JUMPDEST PUSH1 0x20 DUP3 ADD SWAP1 POP SWAP2 SWAP1 POP JUMP JUMPDEST PUSH1 0x0 PUSH1 0x20 DUP3 ADD SWAP1 POP DUP2 DUP2 SUB PUSH1 0x0 DUP4 ADD MSTORE PUSH3 0x6022 DUP2 PUSH3 0x5FE0 JUMP JUMPDEST SWAP1 POP SWAP2 SWAP1 POP JUMP JUMPDEST PUSH1 0x0 PUSH1 0x60 DUP3 ADD SWAP1 POP PUSH3 0x6040 PUSH1 0x0 DUP4 ADD DUP7 PUSH3 0x5105 JUMP JUMPDEST PUSH3 0x604F PUSH1 0x20 DUP4 ADD DUP6 PUSH3 0x5133 JUMP JUMPDEST PUSH3 0x605E PUSH1 0x40 DUP4 ADD DUP5 PUSH3 0x5133 JUMP JUMPDEST SWAP5 SWAP4 POP POP POP POP JUMP JUMPDEST PUSH32 0x5A45524F5F414D4F554E54000000000000000000000000000000000000000000 PUSH1 0x0 DUP3 ADD MSTORE POP JUMP JUMPDEST PUSH1 0x0 PUSH3 0x609E PUSH1 0xB DUP4 PUSH3 0x543B JUMP JUMPDEST SWAP2 POP PUSH3 0x60AB DUP3 PUSH3 0x6066 JUMP JUMPDEST PUSH1 0x20 DUP3 ADD SWAP1 POP SWAP2 SWAP1 POP JUMP JUMPDEST PUSH1 0x0 PUSH1 0x20 DUP3 ADD SWAP1 POP DUP2 DUP2 SUB PUSH1 0x0 DUP4 ADD MSTORE PUSH3 0x60D1 DUP2 PUSH3 0x608F JUMP JUMPDEST SWAP1 POP SWAP2 SWAP1 POP JUMP JUMPDEST PUSH32 0x494E535F42414C414E4345000000000000000000000000000000000000000000 PUSH1 0x0 DUP3 ADD MSTORE POP JUMP JUMPDEST PUSH1 0x0 PUSH3 0x6110 PUSH1 0xB DUP4 PUSH3 0x543B JUMP JUMPDEST SWAP2 POP PUSH3 0x611D DUP3 PUSH3 0x60D8 JUMP JUMPDEST PUSH1 0x20 DUP3 ADD SWAP1 POP SWAP2 SWAP1 POP JUMP JUMPDEST PUSH1 0x0 PUSH1 0x20 DUP3 ADD SWAP1 POP DUP2 DUP2 SUB PUSH1 0x0 DUP4 ADD MSTORE PUSH3 0x6143 DUP2 PUSH3 0x6101 JUMP JUMPDEST SWAP1 POP SWAP2 SWAP1 POP JUMP JUMPDEST PUSH3 0x6155 DUP2 PUSH3 0x4F12 JUMP JUMPDEST DUP3 MSTORE POP POP JUMP JUMPDEST PUSH3 0x6166 DUP2 PUSH3 0x4E85 JUMP JUMPDEST DUP3 MSTORE POP POP JUMP JUMPDEST PUSH1 0x60 DUP3 ADD PUSH1 0x0 DUP3 ADD MLOAD PUSH3 0x6184 PUSH1 0x0 DUP6 ADD DUP3 PUSH3 0x614A JUMP JUMPDEST POP PUSH1 0x20 DUP3 ADD MLOAD PUSH3 0x6199 PUSH1 0x20 DUP6 ADD DUP3 PUSH3 0x615B JUMP JUMPDEST POP PUSH1 0x40 DUP3 ADD MLOAD PUSH3 0x61AE PUSH1 0x40 DUP6 ADD DUP3 PUSH3 0x615B JUMP JUMPDEST POP POP POP POP JUMP JUMPDEST PUSH1 0x0 PUSH1 0x80 DUP3 ADD SWAP1 POP PUSH3 0x61CB PUSH1 0x0 DUP4 ADD DUP6 PUSH3 0x5968 JUMP JUMPDEST PUSH3 0x61DA PUSH1 0x20 DUP4 ADD DUP5 PUSH3 0x616C JUMP JUMPDEST SWAP4 SWAP3 POP POP POP JUMP JUMPDEST PUSH32 0x4E487B7100000000000000000000000000000000000000000000000000000000 PUSH1 0x0 MSTORE PUSH1 0x21 PUSH1 0x4 MSTORE PUSH1 0x24 PUSH1 0x0 REVERT JUMPDEST PUSH1 0x8 DUP2 LT PUSH3 0x6224 JUMPI PUSH3 0x6223 PUSH3 0x61E1 JUMP JUMPDEST JUMPDEST POP JUMP JUMPDEST PUSH1 0x0 DUP2 SWAP1 POP PUSH3 0x6237 DUP3 PUSH3 0x6210 JUMP JUMPDEST SWAP2 SWAP1 POP JUMP JUMPDEST PUSH1 0x0 PUSH3 0x6249 DUP3 PUSH3 0x6227 JUMP JUMPDEST SWAP1 POP SWAP2 SWAP1 POP JUMP JUMPDEST PUSH3 0x625B DUP2 PUSH3 0x623C JUMP JUMPDEST DUP3 MSTORE POP POP JUMP JUMPDEST PUSH1 0x0 DUP2 SWAP1 POP SWAP2 SWAP1 POP JUMP JUMPDEST PUSH1 0x0 PUSH4 0xFFFFFFFF DUP3 AND SWAP1 POP SWAP2 SWAP1 POP JUMP JUMPDEST PUSH1 0x0 DUP2 SWAP1 POP SWAP2 SWAP1 POP JUMP JUMPDEST PUSH1 0x0 PUSH3 0x62A6 PUSH3 0x62A0 PUSH3 0x629A DUP5 PUSH3 0x6261 JUMP JUMPDEST PUSH3 0x627B JUMP JUMPDEST PUSH3 0x626B JUMP JUMPDEST SWAP1 POP SWAP2 SWAP1 POP JUMP JUMPDEST PUSH3 0x62B8 DUP2 PUSH3 0x6285 JUMP JUMPDEST DUP3 MSTORE POP POP JUMP JUMPDEST PUSH1 0x0 PUSH1 0x80 DUP3 ADD SWAP1 POP PUSH3 0x62D5 PUSH1 0x0 DUP4 ADD DUP8 PUSH3 0x5105 JUMP JUMPDEST PUSH3 0x62E4 PUSH1 0x20 DUP4 ADD DUP7 PUSH3 0x5105 JUMP JUMPDEST PUSH3 0x62F3 PUSH1 0x40 DUP4 ADD DUP6 PUSH3 0x6250 JUMP JUMPDEST PUSH3 0x6302 PUSH1 0x60 DUP4 ADD DUP5 PUSH3 0x62AD JUMP JUMPDEST SWAP6 SWAP5 POP POP POP POP POP JUMP JUMPDEST PUSH32 0x5265656E7472616E637947756172643A207265656E7472616E742063616C6C00 PUSH1 0x0 DUP3 ADD MSTORE POP JUMP JUMPDEST PUSH1 0x0 PUSH3 0x6343 PUSH1 0x1F DUP4 PUSH3 0x543B JUMP JUMPDEST SWAP2 POP PUSH3 0x6350 DUP3 PUSH3 0x630B JUMP JUMPDEST PUSH1 0x20 DUP3 ADD SWAP1 POP SWAP2 SWAP1 POP JUMP JUMPDEST PUSH1 0x0 PUSH1 0x20 DUP3 ADD SWAP1 POP DUP2 DUP2 SUB PUSH1 0x0 DUP4 ADD MSTORE PUSH3 0x6376 DUP2 PUSH3 0x6334 JUMP JUMPDEST SWAP1 POP SWAP2 SWAP1 POP JUMP JUMPDEST PUSH32 0x4D41585F4C454447455253000000000000000000000000000000000000000000 PUSH1 0x0 DUP3 ADD MSTORE POP JUMP JUMPDEST PUSH1 0x0 PUSH3 0x63B5 PUSH1 0xB DUP4 PUSH3 0x543B JUMP JUMPDEST SWAP2 POP PUSH3 0x63C2 DUP3 PUSH3 0x637D JUMP JUMPDEST PUSH1 0x20 DUP3 ADD SWAP1 POP SWAP2 SWAP1 POP JUMP JUMPDEST PUSH1 0x0 PUSH1 0x20 DUP3 ADD SWAP1 POP DUP2 DUP2 SUB PUSH1 0x0 DUP4 ADD MSTORE PUSH3 0x63E8 DUP2 PUSH3 0x63A6 JUMP JUMPDEST SWAP1 POP SWAP2 SWAP1 POP JUMP JUMPDEST PUSH1 0x0 PUSH1 0x40 DUP3 ADD SWAP1 POP PUSH3 0x6406 PUSH1 0x0 DUP4 ADD DUP6 PUSH3 0x5105 JUMP JUMPDEST PUSH3 0x6415 PUSH1 0x20 DUP4 ADD DUP5 PUSH3 0x53DB JUMP JUMPDEST SWAP4 SWAP3 POP POP POP JUMP JUMPDEST PUSH32 0x494E565F414D4F554E5400000000000000000000000000000000000000000000 PUSH1 0x0 DUP3 ADD MSTORE POP JUMP JUMPDEST PUSH1 0x0 PUSH3 0x6454 PUSH1 0xA DUP4 PUSH3 0x543B JUMP JUMPDEST SWAP2 POP PUSH3 0x6461 DUP3 PUSH3 0x641C JUMP JUMPDEST PUSH1 0x20 DUP3 ADD SWAP1 POP SWAP2 SWAP1 POP JUMP JUMPDEST PUSH1 0x0 PUSH1 0x20 DUP3 ADD SWAP1 POP DUP2 DUP2 SUB PUSH1 0x0 DUP4 ADD MSTORE PUSH3 0x6487 DUP2 PUSH3 0x6445 JUMP JUMPDEST SWAP1 POP SWAP2 SWAP1 POP JUMP JUMPDEST PUSH1 0x0 PUSH1 0x40 DUP3 ADD SWAP1 POP PUSH3 0x64A5 PUSH1 0x0 DUP4 ADD DUP6 PUSH3 0x5133 JUMP JUMPDEST PUSH3 0x64B4 PUSH1 0x20 DUP4 ADD DUP5 PUSH3 0x5133 JUMP JUMPDEST SWAP4 SWAP3 POP POP POP JUMP INVALID PUSH1 0x80 PUSH1 0x40 MSTORE CALLVALUE DUP1 ISZERO PUSH3 0x11 JUMPI PUSH1 0x0 DUP1 REVERT JUMPDEST POP PUSH1 0x40 MLOAD PUSH3 0x1A7F CODESIZE SUB DUP1 PUSH3 0x1A7F DUP4 CODECOPY DUP2 DUP2 ADD PUSH1 0x40 MSTORE DUP2 ADD SWAP1 PUSH3 0x37 SWAP2 SWAP1 PUSH3 0x1D0 JUMP JUMPDEST DUP1 PUSH1 0x0 DUP1 PUSH2 0x100 EXP DUP2 SLOAD DUP2 PUSH20 0xFFFFFFFFFFFFFFFFFFFFFFFFFFFFFFFFFFFFFFFF MUL NOT AND SWAP1 DUP4 PUSH20 0xFFFFFFFFFFFFFFFFFFFFFFFFFFFFFFFFFFFFFFFF AND MUL OR SWAP1 SSTORE POP DUP2 PUSH1 0x1 PUSH1 0x0 PUSH2 0x100 EXP DUP2 SLOAD DUP2 PUSH20 0xFFFFFFFFFFFFFFFFFFFFFFFFFFFFFFFFFFFFFFFF MUL NOT AND SWAP1 DUP4 PUSH20 0xFFFFFFFFFFFFFFFFFFFFFFFFFFFFFFFFFFFFFFFF AND MUL OR SWAP1 SSTORE POP PUSH1 0x0 DUP1 SLOAD SWAP1 PUSH2 0x100 EXP SWAP1 DIV PUSH20 0xFFFFFFFFFFFFFFFFFFFFFFFFFFFFFFFFFFFFFFFF AND PUSH1 0x2 PUSH1 0x0 PUSH2 0x100 EXP DUP2 SLOAD DUP2 PUSH20 0xFFFFFFFFFFFFFFFFFFFFFFFFFFFFFFFFFFFFFFFF MUL NOT AND SWAP1 DUP4 PUSH20 0xFFFFFFFFFFFFFFFFFFFFFFFFFFFFFFFFFFFFFFFF AND MUL OR SWAP1 SSTORE POP POP POP PUSH3 0x217 JUMP JUMPDEST PUSH1 0x0 DUP1 REVERT JUMPDEST PUSH1 0x0 PUSH20 0xFFFFFFFFFFFFFFFFFFFFFFFFFFFFFFFFFFFFFFFF DUP3 AND SWAP1 POP SWAP2 SWAP1 POP JUMP JUMPDEST PUSH1 0x0 PUSH3 0x153 DUP3 PUSH3 0x126 JUMP JUMPDEST SWAP1 POP SWAP2 SWAP1 POP JUMP JUMPDEST PUSH3 0x165 DUP2 PUSH3 0x146 JUMP JUMPDEST DUP2 EQ PUSH3 0x171 JUMPI PUSH1 0x0 DUP1 REVERT JUMPDEST POP JUMP JUMPDEST PUSH1 0x0 DUP2 MLOAD SWAP1 POP PUSH3 0x185 DUP2 PUSH3 0x15A JUMP JUMPDEST SWAP3 SWAP2 POP POP JUMP JUMPDEST PUSH1 0x0 PUSH3 0x198 DUP3 PUSH3 0x126 JUMP JUMPDEST SWAP1 POP SWAP2 SWAP1 POP JUMP JUMPDEST PUSH3 0x1AA DUP2 PUSH3 0x18B JUMP JUMPDEST DUP2 EQ PUSH3 0x1B6 JUMPI PUSH1 0x0 DUP1 REVERT JUMPDEST POP JUMP JUMPDEST PUSH1 0x0 DUP2 MLOAD SWAP1 POP PUSH3 0x1CA DUP2 PUSH3 0x19F JUMP JUMPDEST SWAP3 SWAP2 POP POP JUMP JUMPDEST PUSH1 0x0 DUP1 PUSH1 0x40 DUP4 DUP6 SUB SLT ISZERO PUSH3 0x1EA JUMPI PUSH3 0x1E9 PUSH3 0x121 JUMP JUMPDEST JUMPDEST PUSH1 0x0 PUSH3 0x1FA DUP6 DUP3 DUP7 ADD PUSH3 0x174 JUMP JUMPDEST SWAP3 POP POP PUSH1 0x20 PUSH3 0x20D DUP6 DUP3 DUP7 ADD PUSH3 0x1B9 JUMP JUMPDEST SWAP2 POP POP SWAP3 POP SWAP3 SWAP1 POP JUMP JUMPDEST PUSH2 0x1858 DUP1 PUSH3 0x227 PUSH1 0x0 CODECOPY PUSH1 0x0 RETURN INVALID PUSH1 0x80 PUSH1 0x40 MSTORE PUSH1 0x4 CALLDATASIZE LT PUSH2 0xC2 JUMPI PUSH1 0x0 CALLDATALOAD PUSH1 0xE0 SHR DUP1 PUSH4 0x2E1A7D4D GT PUSH2 0x7F JUMPI DUP1 PUSH4 0xC172FD2B GT PUSH2 0x59 JUMPI DUP1 PUSH4 0xC172FD2B EQ PUSH2 0x250 JUMPI DUP1 PUSH4 0xC90EEE83 EQ PUSH2 0x279 JUMPI DUP1 PUSH4 0xD0E30DB0 EQ PUSH2 0x2A2 JUMPI DUP1 PUSH4 0xFB79716F EQ PUSH2 0x2AC JUMPI PUSH2 0xC2 JUMP JUMPDEST DUP1 PUSH4 0x2E1A7D4D EQ PUSH2 0x1D3 JUMPI DUP1 PUSH4 0x7258B5EF EQ PUSH2 0x1FC JUMPI DUP1 PUSH4 0x82543887 EQ PUSH2 0x225 JUMPI PUSH2 0xC2 JUMP JUMPDEST DUP1 PUSH4 0x26E402B EQ PUSH2 0xC7 JUMPI DUP1 PUSH4 0x465135B EQ PUSH2 0xF0 JUMPI DUP1 PUSH4 0x12065FE0 EQ PUSH2 0x119 JUMPI DUP1 PUSH4 0x13A5F393 EQ PUSH2 0x144 JUMPI DUP1 PUSH4 0x15C4642E EQ PUSH2 0x16D JUMPI DUP1 PUSH4 0x1A1C740C EQ PUSH2 0x1AA JUMPI JUMPDEST PUSH1 0x0 DUP1 REVERT JUMPDEST CALLVALUE DUP1 ISZERO PUSH2 0xD3 JUMPI PUSH1 0x0 DUP1 REVERT JUMPDEST POP PUSH2 0xEE PUSH1 0x4 DUP1 CALLDATASIZE SUB DUP2 ADD SWAP1 PUSH2 0xE9 SWAP2 SWAP1 PUSH2 0x13B9 JUMP JUMPDEST PUSH2 0x2D5 JUMP JUMPDEST STOP JUMPDEST CALLVALUE DUP1 ISZERO PUSH2 0xFC JUMPI PUSH1 0x0 DUP1 REVERT JUMPDEST POP PUSH2 0x117 PUSH1 0x4 DUP1 CALLDATASIZE SUB DUP2 ADD SWAP1 PUSH2 0x112 SWAP2 SWAP1 PUSH2 0x13B9 JUMP JUMPDEST PUSH2 0x530 JUMP JUMPDEST STOP JUMPDEST CALLVALUE DUP1 ISZERO PUSH2 0x125 JUMPI PUSH1 0x0 DUP1 REVERT JUMPDEST POP PUSH2 0x12E PUSH2 0x651 JUMP JUMPDEST PUSH1 0x40 MLOAD PUSH2 0x13B SWAP2 SWAP1 PUSH2 0x1408 JUMP JUMPDEST PUSH1 0x40 MLOAD DUP1 SWAP2 SUB SWAP1 RETURN JUMPDEST CALLVALUE DUP1 ISZERO PUSH2 0x150 JUMPI PUSH1 0x0 DUP1 REVERT JUMPDEST POP PUSH2 0x16B PUSH1 0x4 DUP1 CALLDATASIZE SUB DUP2 ADD SWAP1 PUSH2 0x166 SWAP2 SWAP1 PUSH2 0x1423 JUMP JUMPDEST PUSH2 0x659 JUMP JUMPDEST STOP JUMPDEST CALLVALUE DUP1 ISZERO PUSH2 0x179 JUMPI PUSH1 0x0 DUP1 REVERT JUMPDEST POP PUSH2 0x194 PUSH1 0x4 DUP1 CALLDATASIZE SUB DUP2 ADD SWAP1 PUSH2 0x18F SWAP2 SWAP1 PUSH2 0x1423 JUMP JUMPDEST PUSH2 0x779 JUMP JUMPDEST PUSH1 0x40 MLOAD PUSH2 0x1A1 SWAP2 SWAP1 PUSH2 0x1408 JUMP JUMPDEST PUSH1 0x40 MLOAD DUP1 SWAP2 SUB SWAP1 RETURN JUMPDEST CALLVALUE DUP1 ISZERO PUSH2 0x1B6 JUMPI PUSH1 0x0 DUP1 REVERT JUMPDEST POP PUSH2 0x1D1 PUSH1 0x4 DUP1 CALLDATASIZE SUB DUP2 ADD SWAP1 PUSH2 0x1CC SWAP2 SWAP1 PUSH2 0x1423 JUMP JUMPDEST PUSH2 0x820 JUMP JUMPDEST STOP JUMPDEST CALLVALUE DUP1 ISZERO PUSH2 0x1DF JUMPI PUSH1 0x0 DUP1 REVERT JUMPDEST POP PUSH2 0x1FA PUSH1 0x4 DUP1 CALLDATASIZE SUB DUP2 ADD SWAP1 PUSH2 0x1F5 SWAP2 SWAP1 PUSH2 0x1450 JUMP JUMPDEST PUSH2 0x93E JUMP JUMPDEST STOP JUMPDEST CALLVALUE DUP1 ISZERO PUSH2 0x208 JUMPI PUSH1 0x0 DUP1 REVERT JUMPDEST POP PUSH2 0x223 PUSH1 0x4 DUP1 CALLDATASIZE SUB DUP2 ADD SWAP1 PUSH2 0x21E SWAP2 SWAP1 PUSH2 0x14B6 JUMP JUMPDEST PUSH2 0xA52 JUMP JUMPDEST STOP JUMPDEST CALLVALUE DUP1 ISZERO PUSH2 0x231 JUMPI PUSH1 0x0 DUP1 REVERT JUMPDEST POP PUSH2 0x23A PUSH2 0xCB3 JUMP JUMPDEST PUSH1 0x40 MLOAD PUSH2 0x247 SWAP2 SWAP1 PUSH2 0x1408 JUMP JUMPDEST PUSH1 0x40 MLOAD DUP1 SWAP2 SUB SWAP1 RETURN JUMPDEST CALLVALUE DUP1 ISZERO PUSH2 0x25C JUMPI PUSH1 0x0 DUP1 REVERT JUMPDEST POP PUSH2 0x277 PUSH1 0x4 DUP1 CALLDATASIZE SUB DUP2 ADD SWAP1 PUSH2 0x272 SWAP2 SWAP1 PUSH2 0x13B9 JUMP JUMPDEST PUSH2 0xD56 JUMP JUMPDEST STOP JUMPDEST CALLVALUE DUP1 ISZERO PUSH2 0x285 JUMPI PUSH1 0x0 DUP1 REVERT JUMPDEST POP PUSH2 0x2A0 PUSH1 0x4 DUP1 CALLDATASIZE SUB DUP2 ADD SWAP1 PUSH2 0x29B SWAP2 SWAP1 PUSH2 0x1423 JUMP JUMPDEST PUSH2 0xE77 JUMP JUMPDEST STOP JUMPDEST PUSH2 0x2AA PUSH2 0xF95 JUMP JUMPDEST STOP JUMPDEST CALLVALUE DUP1 ISZERO PUSH2 0x2B8 JUMPI PUSH1 0x0 DUP1 REVERT JUMPDEST POP PUSH2 0x2D3 PUSH1 0x4 DUP1 CALLDATASIZE SUB DUP2 ADD SWAP1 PUSH2 0x2CE SWAP2 SWAP1 PUSH2 0x14F6 JUMP JUMPDEST PUSH2 0x1025 JUMP JUMPDEST STOP JUMPDEST PUSH1 0x0 DUP1 SLOAD SWAP1 PUSH2 0x100 EXP SWAP1 DIV PUSH20 0xFFFFFFFFFFFFFFFFFFFFFFFFFFFFFFFFFFFFFFFF AND PUSH20 0xFFFFFFFFFFFFFFFFFFFFFFFFFFFFFFFFFFFFFFFF AND CALLER PUSH20 0xFFFFFFFFFFFFFFFFFFFFFFFFFFFFFFFFFFFFFFFF AND EQ PUSH2 0x363 JUMPI PUSH1 0x40 MLOAD PUSH32 0x8C379A000000000000000000000000000000000000000000000000000000000 DUP2 MSTORE PUSH1 0x4 ADD PUSH2 0x35A SWAP1 PUSH2 0x15A6 JUMP JUMPDEST PUSH1 0x40 MLOAD DUP1 SWAP2 SUB SWAP1 REVERT JUMPDEST PUSH1 0x1 PUSH1 0x0 SWAP1 SLOAD SWAP1 PUSH2 0x100 EXP SWAP1 DIV PUSH20 0xFFFFFFFFFFFFFFFFFFFFFFFFFFFFFFFFFFFFFFFF AND PUSH20 0xFFFFFFFFFFFFFFFFFFFFFFFFFFFFFFFFFFFFFFFF AND PUSH4 0x829F5EE3 DUP4 DUP4 PUSH1 0x1 PUSH1 0x0 SWAP1 SLOAD SWAP1 PUSH2 0x100 EXP SWAP1 DIV PUSH20 0xFFFFFFFFFFFFFFFFFFFFFFFFFFFFFFFFFFFFFFFF AND PUSH20 0xFFFFFFFFFFFFFFFFFFFFFFFFFFFFFFFFFFFFFFFF AND PUSH4 0x2EC087EB DUP8 PUSH1 0x40 MLOAD DUP3 PUSH4 0xFFFFFFFF AND PUSH1 0xE0 SHL DUP2 MSTORE PUSH1 0x4 ADD PUSH2 0x3FE SWAP2 SWAP1 PUSH2 0x15D5 JUMP JUMPDEST PUSH1 0x20 PUSH1 0x40 MLOAD DUP1 DUP4 SUB DUP2 DUP7 GAS STATICCALL ISZERO DUP1 ISZERO PUSH2 0x41B JUMPI RETURNDATASIZE PUSH1 0x0 DUP1 RETURNDATACOPY RETURNDATASIZE PUSH1 0x0 REVERT JUMPDEST POP POP POP POP PUSH1 0x40 MLOAD RETURNDATASIZE PUSH1 0x1F NOT PUSH1 0x1F DUP3 ADD AND DUP3 ADD DUP1 PUSH1 0x40 MSTORE POP DUP2 ADD SWAP1 PUSH2 0x43F SWAP2 SWAP1 PUSH2 0x162C JUMP JUMPDEST PUSH1 0x1 PUSH1 0x0 SWAP1 SLOAD SWAP1 PUSH2 0x100 EXP SWAP1 DIV PUSH20 0xFFFFFFFFFFFFFFFFFFFFFFFFFFFFFFFFFFFFFFFF AND PUSH20 0xFFFFFFFFFFFFFFFFFFFFFFFFFFFFFFFFFFFFFFFF AND PUSH4 0x67EC822 ADDRESS PUSH1 0x40 MLOAD DUP3 PUSH4 0xFFFFFFFF AND PUSH1 0xE0 SHL DUP2 MSTORE PUSH1 0x4 ADD PUSH2 0x49A SWAP2 SWAP1 PUSH2 0x15D5 JUMP JUMPDEST PUSH1 0x20 PUSH1 0x40 MLOAD DUP1 DUP4 SUB DUP2 DUP7 GAS STATICCALL ISZERO DUP1 ISZERO PUSH2 0x4B7 JUMPI RETURNDATASIZE PUSH1 0x0 DUP1 RETURNDATACOPY RETURNDATASIZE PUSH1 0x0 REVERT JUMPDEST POP POP POP POP PUSH1 0x40 MLOAD RETURNDATASIZE PUSH1 0x1F NOT PUSH1 0x1F DUP3 ADD AND DUP3 ADD DUP1 PUSH1 0x40 MSTORE POP DUP2 ADD SWAP1 PUSH2 0x4DB SWAP2 SWAP1 PUSH2 0x166E JUMP JUMPDEST PUSH1 0x40 MLOAD DUP6 PUSH4 0xFFFFFFFF AND PUSH1 0xE0 SHL DUP2 MSTORE PUSH1 0x4 ADD PUSH2 0x4FA SWAP5 SWAP4 SWAP3 SWAP2 SWAP1 PUSH2 0x16D6 JUMP JUMPDEST PUSH1 0x0 PUSH1 0x40 MLOAD DUP1 DUP4 SUB DUP2 PUSH1 0x0 DUP8 DUP1 EXTCODESIZE ISZERO DUP1 ISZERO PUSH2 0x514 JUMPI PUSH1 0x0 DUP1 REVERT JUMPDEST POP GAS CALL ISZERO DUP1 ISZERO PUSH2 0x528 JUMPI RETURNDATASIZE PUSH1 0x0 DUP1 RETURNDATACOPY RETURNDATASIZE PUSH1 0x0 REVERT JUMPDEST POP POP POP POP POP POP JUMP JUMPDEST PUSH1 0x0 DUP1 SLOAD SWAP1 PUSH2 0x100 EXP SWAP1 DIV PUSH20 0xFFFFFFFFFFFFFFFFFFFFFFFFFFFFFFFFFFFFFFFF AND PUSH20 0xFFFFFFFFFFFFFFFFFFFFFFFFFFFFFFFFFFFFFFFF AND CALLER PUSH20 0xFFFFFFFFFFFFFFFFFFFFFFFFFFFFFFFFFFFFFFFF AND EQ PUSH2 0x5BE JUMPI PUSH1 0x40 MLOAD PUSH32 0x8C379A000000000000000000000000000000000000000000000000000000000 DUP2 MSTORE PUSH1 0x4 ADD PUSH2 0x5B5 SWAP1 PUSH2 0x15A6 JUMP JUMPDEST PUSH1 0x40 MLOAD DUP1 SWAP2 SUB SWAP1 REVERT JUMPDEST PUSH1 0x1 PUSH1 0x0 SWAP1 SLOAD SWAP1 PUSH2 0x100 EXP SWAP1 DIV PUSH20 0xFFFFFFFFFFFFFFFFFFFFFFFFFFFFFFFFFFFFFFFF AND PUSH20 0xFFFFFFFFFFFFFFFFFFFFFFFFFFFFFFFFFFFFFFFF AND PUSH4 0x465135B DUP4 DUP4 PUSH1 0x40 MLOAD DUP4 PUSH4 0xFFFFFFFF AND PUSH1 0xE0 SHL DUP2 MSTORE PUSH1 0x4 ADD PUSH2 0x61B SWAP3 SWAP2 SWAP1 PUSH2 0x171B JUMP JUMPDEST PUSH1 0x0 PUSH1 0x40 MLOAD DUP1 DUP4 SUB DUP2 PUSH1 0x0 DUP8 DUP1 EXTCODESIZE ISZERO DUP1 ISZERO PUSH2 0x635 JUMPI PUSH1 0x0 DUP1 REVERT JUMPDEST POP GAS CALL ISZERO DUP1 ISZERO PUSH2 0x649 JUMPI RETURNDATASIZE PUSH1 0x0 DUP1 RETURNDATACOPY RETURNDATASIZE PUSH1 0x0 REVERT JUMPDEST POP POP POP POP POP POP JUMP JUMPDEST PUSH1 0x0 SELFBALANCE SWAP1 POP SWAP1 JUMP JUMPDEST PUSH1 0x0 DUP1 SLOAD SWAP1 PUSH2 0x100 EXP SWAP1 DIV PUSH20 0xFFFFFFFFFFFFFFFFFFFFFFFFFFFFFFFFFFFFFFFF AND PUSH20 0xFFFFFFFFFFFFFFFFFFFFFFFFFFFFFFFFFFFFFFFF AND CALLER PUSH20 0xFFFFFFFFFFFFFFFFFFFFFFFFFFFFFFFFFFFFFFFF AND EQ PUSH2 0x6E7 JUMPI PUSH1 0x40 MLOAD PUSH32 0x8C379A000000000000000000000000000000000000000000000000000000000 DUP2 MSTORE PUSH1 0x4 ADD PUSH2 0x6DE SWAP1 PUSH2 0x15A6 JUMP JUMPDEST PUSH1 0x40 MLOAD DUP1 SWAP2 SUB SWAP1 REVERT JUMPDEST PUSH1 0x1 PUSH1 0x0 SWAP1 SLOAD SWAP1 PUSH2 0x100 EXP SWAP1 DIV PUSH20 0xFFFFFFFFFFFFFFFFFFFFFFFFFFFFFFFFFFFFFFFF AND PUSH20 0xFFFFFFFFFFFFFFFFFFFFFFFFFFFFFFFFFFFFFFFF AND PUSH4 0xE98C8ABE ADDRESS DUP4 PUSH1 0x40 MLOAD DUP4 PUSH4 0xFFFFFFFF AND PUSH1 0xE0 SHL DUP2 MSTORE PUSH1 0x4 ADD PUSH2 0x744 SWAP3 SWAP2 SWAP1 PUSH2 0x1744 JUMP JUMPDEST PUSH1 0x0 PUSH1 0x40 MLOAD DUP1 DUP4 SUB DUP2 PUSH1 0x0 DUP8 DUP1 EXTCODESIZE ISZERO DUP1 ISZERO PUSH2 0x75E JUMPI PUSH1 0x0 DUP1 REVERT JUMPDEST POP GAS CALL ISZERO DUP1 ISZERO PUSH2 0x772 JUMPI RETURNDATASIZE PUSH1 0x0 DUP1 RETURNDATACOPY RETURNDATASIZE PUSH1 0x0 REVERT JUMPDEST POP POP POP POP POP JUMP JUMPDEST PUSH1 0x0 PUSH1 0x1 PUSH1 0x0 SWAP1 SLOAD SWAP1 PUSH2 0x100 EXP SWAP1 DIV PUSH20 0xFFFFFFFFFFFFFFFFFFFFFFFFFFFFFFFFFFFFFFFF AND PUSH20 0xFFFFFFFFFFFFFFFFFFFFFFFFFFFFFFFFFFFFFFFF AND PUSH4 0xA73E51BC ADDRESS DUP5 PUSH1 0x40 MLOAD DUP4 PUSH4 0xFFFFFFFF AND PUSH1 0xE0 SHL DUP2 MSTORE PUSH1 0x4 ADD PUSH2 0x7D8 SWAP3 SWAP2 SWAP1 PUSH2 0x1744 JUMP JUMPDEST PUSH1 0x20 PUSH1 0x40 MLOAD DUP1 DUP4 SUB DUP2 DUP7 GAS STATICCALL ISZERO DUP1 ISZERO PUSH2 0x7F5 JUMPI RETURNDATASIZE PUSH1 0x0 DUP1 RETURNDATACOPY RETURNDATASIZE PUSH1 0x0 REVERT JUMPDEST POP POP POP POP PUSH1 0x40 MLOAD RETURNDATASIZE PUSH1 0x1F NOT PUSH1 0x1F DUP3 ADD AND DUP3 ADD DUP1 PUSH1 0x40 MSTORE POP DUP2 ADD SWAP1 PUSH2 0x819 SWAP2 SWAP1 PUSH2 0x166E JUMP JUMPDEST SWAP1 POP SWAP2 SWAP1 POP JUMP JUMPDEST PUSH1 0x0 DUP1 SLOAD SWAP1 PUSH2 0x100 EXP SWAP1 DIV PUSH20 0xFFFFFFFFFFFFFFFFFFFFFFFFFFFFFFFFFFFFFFFF AND PUSH20 0xFFFFFFFFFFFFFFFFFFFFFFFFFFFFFFFFFFFFFFFF AND CALLER PUSH20 0xFFFFFFFFFFFFFFFFFFFFFFFFFFFFFFFFFFFFFFFF AND EQ PUSH2 0x8AE JUMPI PUSH1 0x40 MLOAD PUSH32 0x8C379A000000000000000000000000000000000000000000000000000000000 DUP2 MSTORE PUSH1 0x4 ADD PUSH2 0x8A5 SWAP1 PUSH2 0x15A6 JUMP JUMPDEST PUSH1 0x40 MLOAD DUP1 SWAP2 SUB SWAP1 REVERT JUMPDEST PUSH1 0x1 PUSH1 0x0 SWAP1 SLOAD SWAP1 PUSH2 0x100 EXP SWAP1 DIV PUSH20 0xFFFFFFFFFFFFFFFFFFFFFFFFFFFFFFFFFFFFFFFF AND PUSH20 0xFFFFFFFFFFFFFFFFFFFFFFFFFFFFFFFFFFFFFFFF AND PUSH4 0x1A1C740C DUP3 PUSH1 0x40 MLOAD DUP3 PUSH4 0xFFFFFFFF AND PUSH1 0xE0 SHL DUP2 MSTORE PUSH1 0x4 ADD PUSH2 0x909 SWAP2 SWAP1 PUSH2 0x15D5 JUMP JUMPDEST PUSH1 0x0 PUSH1 0x40 MLOAD DUP1 DUP4 SUB DUP2 PUSH1 0x0 DUP8 DUP1 EXTCODESIZE ISZERO DUP1 ISZERO PUSH2 0x923 JUMPI PUSH1 0x0 DUP1 REVERT JUMPDEST POP GAS CALL ISZERO DUP1 ISZERO PUSH2 0x937 JUMPI RETURNDATASIZE PUSH1 0x0 DUP1 RETURNDATACOPY RETURNDATASIZE PUSH1 0x0 REVERT JUMPDEST POP POP POP POP POP JUMP JUMPDEST PUSH1 0x0 DUP1 SLOAD SWAP1 PUSH2 0x100 EXP SWAP1 DIV PUSH20 0xFFFFFFFFFFFFFFFFFFFFFFFFFFFFFFFFFFFFFFFF AND PUSH20 0xFFFFFFFFFFFFFFFFFFFFFFFFFFFFFFFFFFFFFFFF AND CALLER PUSH20 0xFFFFFFFFFFFFFFFFFFFFFFFFFFFFFFFFFFFFFFFF AND EQ PUSH2 0x9CC JUMPI PUSH1 0x40 MLOAD PUSH32 0x8C379A000000000000000000000000000000000000000000000000000000000 DUP2 MSTORE PUSH1 0x4 ADD PUSH2 0x9C3 SWAP1 PUSH2 0x15A6 JUMP JUMPDEST PUSH1 0x40 MLOAD DUP1 SWAP2 SUB SWAP1 REVERT JUMPDEST PUSH1 0x2 PUSH1 0x0 SWAP1 SLOAD SWAP1 PUSH2 0x100 EXP SWAP1 DIV PUSH20 0xFFFFFFFFFFFFFFFFFFFFFFFFFFFFFFFFFFFFFFFF AND PUSH20 0xFFFFFFFFFFFFFFFFFFFFFFFFFFFFFFFFFFFFFFFF AND PUSH4 0xF09D6E9 DUP3 PUSH1 0x40 MLOAD DUP3 PUSH4 0xFFFFFFFF AND PUSH1 0xE0 SHL DUP2 MSTORE PUSH1 0x4 ADD PUSH1 0x0 PUSH1 0x40 MLOAD DUP1 DUP4 SUB DUP2 DUP6 DUP9 DUP1 EXTCODESIZE ISZERO DUP1 ISZERO PUSH2 0xA36 JUMPI PUSH1 0x0 DUP1 REVERT JUMPDEST POP GAS CALL ISZERO DUP1 ISZERO PUSH2 0xA4A JUMPI RETURNDATASIZE PUSH1 0x0 DUP1 RETURNDATACOPY RETURNDATASIZE PUSH1 0x0 REVERT JUMPDEST POP POP POP POP POP POP JUMP JUMPDEST PUSH1 0x0 DUP1 SLOAD SWAP1 PUSH2 0x100 EXP SWAP1 DIV PUSH20 0xFFFFFFFFFFFFFFFFFFFFFFFFFFFFFFFFFFFFFFFF AND PUSH20 0xFFFFFFFFFFFFFFFFFFFFFFFFFFFFFFFFFFFFFFFF AND CALLER PUSH20 0xFFFFFFFFFFFFFFFFFFFFFFFFFFFFFFFFFFFFFFFF AND EQ PUSH2 0xAE0 JUMPI PUSH1 0x40 MLOAD PUSH32 0x8C379A000000000000000000000000000000000000000000000000000000000 DUP2 MSTORE PUSH1 0x4 ADD PUSH2 0xAD7 SWAP1 PUSH2 0x15A6 JUMP JUMPDEST PUSH1 0x40 MLOAD DUP1 SWAP2 SUB SWAP1 REVERT JUMPDEST PUSH1 0x0 PUSH1 0x1 PUSH1 0x0 SWAP1 SLOAD SWAP1 PUSH2 0x100 EXP SWAP1 DIV PUSH20 0xFFFFFFFFFFFFFFFFFFFFFFFFFFFFFFFFFFFFFFFF AND PUSH20 0xFFFFFFFFFFFFFFFFFFFFFFFFFFFFFFFFFFFFFFFF AND PUSH4 0x905F0806 DUP5 PUSH1 0x40 MLOAD DUP3 PUSH4 0xFFFFFFFF AND PUSH1 0xE0 SHL DUP2 MSTORE PUSH1 0x4 ADD PUSH2 0xB3D SWAP2 SWAP1 PUSH2 0x15D5 JUMP JUMPDEST PUSH1 0x20 PUSH1 0x40 MLOAD DUP1 DUP4 SUB DUP2 DUP7 GAS STATICCALL ISZERO DUP1 ISZERO PUSH2 0xB5A JUMPI RETURNDATASIZE PUSH1 0x0 DUP1 RETURNDATACOPY RETURNDATASIZE PUSH1 0x0 REVERT JUMPDEST POP POP POP POP PUSH1 0x40 MLOAD RETURNDATASIZE PUSH1 0x1F NOT PUSH1 0x1F DUP3 ADD AND DUP3 ADD DUP1 PUSH1 0x40 MSTORE POP DUP2 ADD SWAP1 PUSH2 0xB7E SWAP2 SWAP1 PUSH2 0x162C JUMP JUMPDEST SWAP1 POP PUSH1 0x1 PUSH1 0x0 SWAP1 SLOAD SWAP1 PUSH2 0x100 EXP SWAP1 DIV PUSH20 0xFFFFFFFFFFFFFFFFFFFFFFFFFFFFFFFFFFFFFFFF AND PUSH20 0xFFFFFFFFFFFFFFFFFFFFFFFFFFFFFFFFFFFFFFFF AND PUSH4 0xFAA1786F DUP5 DUP5 DUP5 PUSH1 0x1 PUSH1 0x0 SWAP1 SLOAD SWAP1 PUSH2 0x100 EXP SWAP1 DIV PUSH20 0xFFFFFFFFFFFFFFFFFFFFFFFFFFFFFFFFFFFFFFFF AND PUSH20 0xFFFFFFFFFFFFFFFFFFFFFFFFFFFFFFFFFFFFFFFF AND PUSH4 0x67EC822 ADDRESS PUSH1 0x40 MLOAD DUP3 PUSH4 0xFFFFFFFF AND PUSH1 0xE0 SHL DUP2 MSTORE PUSH1 0x4 ADD PUSH2 0xC1C SWAP2 SWAP1 PUSH2 0x15D5 JUMP JUMPDEST PUSH1 0x20 PUSH1 0x40 MLOAD DUP1 DUP4 SUB DUP2 DUP7 GAS STATICCALL ISZERO DUP1 ISZERO PUSH2 0xC39 JUMPI RETURNDATASIZE PUSH1 0x0 DUP1 RETURNDATACOPY RETURNDATASIZE PUSH1 0x0 REVERT JUMPDEST POP POP POP POP PUSH1 0x40 MLOAD RETURNDATASIZE PUSH1 0x1F NOT PUSH1 0x1F DUP3 ADD AND DUP3 ADD DUP1 PUSH1 0x40 MSTORE POP DUP2 ADD SWAP1 PUSH2 0xC5D SWAP2 SWAP1 PUSH2 0x166E JUMP JUMPDEST PUSH1 0x40 MLOAD DUP6 PUSH4 0xFFFFFFFF AND PUSH1 0xE0 SHL DUP2 MSTORE PUSH1 0x4 ADD PUSH2 0xC7C SWAP5 SWAP4 SWAP3 SWAP2 SWAP1 PUSH2 0x177C JUMP JUMPDEST PUSH1 0x0 PUSH1 0x40 MLOAD DUP1 DUP4 SUB DUP2 PUSH1 0x0 DUP8 DUP1 EXTCODESIZE ISZERO DUP1 ISZERO PUSH2 0xC96 JUMPI PUSH1 0x0 DUP1 REVERT JUMPDEST POP GAS CALL ISZERO DUP1 ISZERO PUSH2 0xCAA JUMPI RETURNDATASIZE PUSH1 0x0 DUP1 RETURNDATACOPY RETURNDATASIZE PUSH1 0x0 REVERT JUMPDEST POP POP POP POP POP POP POP JUMP JUMPDEST PUSH1 0x0 PUSH1 0x1 PUSH1 0x0 SWAP1 SLOAD SWAP1 PUSH2 0x100 EXP SWAP1 DIV PUSH20 0xFFFFFFFFFFFFFFFFFFFFFFFFFFFFFFFFFFFFFFFF AND PUSH20 0xFFFFFFFFFFFFFFFFFFFFFFFFFFFFFFFFFFFFFFFF AND PUSH4 0xE6861713 ADDRESS PUSH1 0x40 MLOAD DUP3 PUSH4 0xFFFFFFFF AND PUSH1 0xE0 SHL DUP2 MSTORE PUSH1 0x4 ADD PUSH2 0xD10 SWAP2 SWAP1 PUSH2 0x15D5 JUMP JUMPDEST PUSH1 0x20 PUSH1 0x40 MLOAD DUP1 DUP4 SUB DUP2 DUP7 GAS STATICCALL ISZERO DUP1 ISZERO PUSH2 0xD2D JUMPI RETURNDATASIZE PUSH1 0x0 DUP1 RETURNDATACOPY RETURNDATASIZE PUSH1 0x0 REVERT JUMPDEST POP POP POP POP PUSH1 0x40 MLOAD RETURNDATASIZE PUSH1 0x1F NOT PUSH1 0x1F DUP3 ADD AND DUP3 ADD DUP1 PUSH1 0x40 MSTORE POP DUP2 ADD SWAP1 PUSH2 0xD51 SWAP2 SWAP1 PUSH2 0x166E JUMP JUMPDEST SWAP1 POP SWAP1 JUMP JUMPDEST PUSH1 0x0 DUP1 SLOAD SWAP1 PUSH2 0x100 EXP SWAP1 DIV PUSH20 0xFFFFFFFFFFFFFFFFFFFFFFFFFFFFFFFFFFFFFFFF AND PUSH20 0xFFFFFFFFFFFFFFFFFFFFFFFFFFFFFFFFFFFFFFFF AND CALLER PUSH20 0xFFFFFFFFFFFFFFFFFFFFFFFFFFFFFFFFFFFFFFFF AND EQ PUSH2 0xDE4 JUMPI PUSH1 0x40 MLOAD PUSH32 0x8C379A000000000000000000000000000000000000000000000000000000000 DUP2 MSTORE PUSH1 0x4 ADD PUSH2 0xDDB SWAP1 PUSH2 0x15A6 JUMP JUMPDEST PUSH1 0x40 MLOAD DUP1 SWAP2 SUB SWAP1 REVERT JUMPDEST PUSH1 0x1 PUSH1 0x0 SWAP1 SLOAD SWAP1 PUSH2 0x100 EXP SWAP1 DIV PUSH20 0xFFFFFFFFFFFFFFFFFFFFFFFFFFFFFFFFFFFFFFFF AND PUSH20 0xFFFFFFFFFFFFFFFFFFFFFFFFFFFFFFFFFFFFFFFF AND PUSH4 0xC172FD2B DUP4 DUP4 PUSH1 0x40 MLOAD DUP4 PUSH4 0xFFFFFFFF AND PUSH1 0xE0 SHL DUP2 MSTORE PUSH1 0x4 ADD PUSH2 0xE41 SWAP3 SWAP2 SWAP1 PUSH2 0x171B JUMP JUMPDEST PUSH1 0x0 PUSH1 0x40 MLOAD DUP1 DUP4 SUB DUP2 PUSH1 0x0 DUP8 DUP1 EXTCODESIZE ISZERO DUP1 ISZERO PUSH2 0xE5B JUMPI PUSH1 0x0 DUP1 REVERT JUMPDEST POP GAS CALL ISZERO DUP1 ISZERO PUSH2 0xE6F JUMPI RETURNDATASIZE PUSH1 0x0 DUP1 RETURNDATACOPY RETURNDATASIZE PUSH1 0x0 REVERT JUMPDEST POP POP POP POP POP POP JUMP JUMPDEST PUSH1 0x0 DUP1 SLOAD SWAP1 PUSH2 0x100 EXP SWAP1 DIV PUSH20 0xFFFFFFFFFFFFFFFFFFFFFFFFFFFFFFFFFFFFFFFF AND PUSH20 0xFFFFFFFFFFFFFFFFFFFFFFFFFFFFFFFFFFFFFFFF AND CALLER PUSH20 0xFFFFFFFFFFFFFFFFFFFFFFFFFFFFFFFFFFFFFFFF AND EQ PUSH2 0xF05 JUMPI PUSH1 0x40 MLOAD PUSH32 0x8C379A000000000000000000000000000000000000000000000000000000000 DUP2 MSTORE PUSH1 0x4 ADD PUSH2 0xEFC SWAP1 PUSH2 0x15A6 JUMP JUMPDEST PUSH1 0x40 MLOAD DUP1 SWAP2 SUB SWAP1 REVERT JUMPDEST PUSH1 0x1 PUSH1 0x0 SWAP1 SLOAD SWAP1 PUSH2 0x100 EXP SWAP1 DIV PUSH20 0xFFFFFFFFFFFFFFFFFFFFFFFFFFFFFFFFFFFFFFFF AND PUSH20 0xFFFFFFFFFFFFFFFFFFFFFFFFFFFFFFFFFFFFFFFF AND PUSH4 0xC90EEE83 DUP3 PUSH1 0x40 MLOAD DUP3 PUSH4 0xFFFFFFFF AND PUSH1 0xE0 SHL DUP2 MSTORE PUSH1 0x4 ADD PUSH2 0xF60 SWAP2 SWAP1 PUSH2 0x15D5 JUMP JUMPDEST PUSH1 0x0 PUSH1 0x40 MLOAD DUP1 DUP4 SUB DUP2 PUSH1 0x0 DUP8 DUP1 EXTCODESIZE ISZERO DUP1 ISZERO PUSH2 0xF7A JUMPI PUSH1 0x0 DUP1 REVERT JUMPDEST POP GAS CALL ISZERO DUP1 ISZERO PUSH2 0xF8E JUMPI RETURNDATASIZE PUSH1 0x0 DUP1 RETURNDATACOPY RETURNDATASIZE PUSH1 0x0 REVERT JUMPDEST POP POP POP POP POP JUMP JUMPDEST PUSH1 0x0 DUP1 SLOAD SWAP1 PUSH2 0x100 EXP SWAP1 DIV PUSH20 0xFFFFFFFFFFFFFFFFFFFFFFFFFFFFFFFFFFFFFFFF AND PUSH20 0xFFFFFFFFFFFFFFFFFFFFFFFFFFFFFFFFFFFFFFFF AND CALLER PUSH20 0xFFFFFFFFFFFFFFFFFFFFFFFFFFFFFFFFFFFFFFFF AND EQ PUSH2 0x1023 JUMPI PUSH1 0x40 MLOAD PUSH32 0x8C379A000000000000000000000000000000000000000000000000000000000 DUP2 MSTORE PUSH1 0x4 ADD PUSH2 0x101A SWAP1 PUSH2 0x15A6 JUMP JUMPDEST PUSH1 0x40 MLOAD DUP1 SWAP2 SUB SWAP1 REVERT JUMPDEST JUMP JUMPDEST PUSH1 0x0 DUP1 SLOAD SWAP1 PUSH2 0x100 EXP SWAP1 DIV PUSH20 0xFFFFFFFFFFFFFFFFFFFFFFFFFFFFFFFFFFFFFFFF AND PUSH20 0xFFFFFFFFFFFFFFFFFFFFFFFFFFFFFFFFFFFFFFFF AND CALLER PUSH20 0xFFFFFFFFFFFFFFFFFFFFFFFFFFFFFFFFFFFFFFFF AND EQ PUSH2 0x10B3 JUMPI PUSH1 0x40 MLOAD PUSH32 0x8C379A000000000000000000000000000000000000000000000000000000000 DUP2 MSTORE PUSH1 0x4 ADD PUSH2 0x10AA SWAP1 PUSH2 0x15A6 JUMP JUMPDEST PUSH1 0x40 MLOAD DUP1 SWAP2 SUB SWAP1 REVERT JUMPDEST PUSH1 0x1 PUSH1 0x0 SWAP1 SLOAD SWAP1 PUSH2 0x100 EXP SWAP1 DIV PUSH20 0xFFFFFFFFFFFFFFFFFFFFFFFFFFFFFFFFFFFFFFFF AND PUSH20 0xFFFFFFFFFFFFFFFFFFFFFFFFFFFFFFFFFFFFFFFF AND PUSH4 0x4B8BC9BF DUP5 DUP5 DUP5 PUSH1 0x1 PUSH1 0x0 SWAP1 SLOAD SWAP1 PUSH2 0x100 EXP SWAP1 DIV PUSH20 0xFFFFFFFFFFFFFFFFFFFFFFFFFFFFFFFFFFFFFFFF AND PUSH20 0xFFFFFFFFFFFFFFFFFFFFFFFFFFFFFFFFFFFFFFFF AND PUSH4 0x2EC087EB DUP10 PUSH1 0x40 MLOAD DUP3 PUSH4 0xFFFFFFFF AND PUSH1 0xE0 SHL DUP2 MSTORE PUSH1 0x4 ADD PUSH2 0x114F SWAP2 SWAP1 PUSH2 0x15D5 JUMP JUMPDEST PUSH1 0x20 PUSH1 0x40 MLOAD DUP1 DUP4 SUB DUP2 DUP7 GAS STATICCALL ISZERO DUP1 ISZERO PUSH2 0x116C JUMPI RETURNDATASIZE PUSH1 0x0 DUP1 RETURNDATACOPY RETURNDATASIZE PUSH1 0x0 REVERT JUMPDEST POP POP POP POP PUSH1 0x40 MLOAD RETURNDATASIZE PUSH1 0x1F NOT PUSH1 0x1F DUP3 ADD AND DUP3 ADD DUP1 PUSH1 0x40 MSTORE POP DUP2 ADD SWAP1 PUSH2 0x1190 SWAP2 SWAP1 PUSH2 0x162C JUMP JUMPDEST PUSH1 0x1 PUSH1 0x0 SWAP1 SLOAD SWAP1 PUSH2 0x100 EXP SWAP1 DIV PUSH20 0xFFFFFFFFFFFFFFFFFFFFFFFFFFFFFFFFFFFFFFFF AND PUSH20 0xFFFFFFFFFFFFFFFFFFFFFFFFFFFFFFFFFFFFFFFF AND PUSH4 0x905F0806 DUP11 PUSH1 0x40 MLOAD DUP3 PUSH4 0xFFFFFFFF AND PUSH1 0xE0 SHL DUP2 MSTORE PUSH1 0x4 ADD PUSH2 0x11EB SWAP2 SWAP1 PUSH2 0x15D5 JUMP JUMPDEST PUSH1 0x20 PUSH1 0x40 MLOAD DUP1 DUP4 SUB DUP2 DUP7 GAS STATICCALL ISZERO DUP1 ISZERO PUSH2 0x1208 JUMPI RETURNDATASIZE PUSH1 0x0 DUP1 RETURNDATACOPY RETURNDATASIZE PUSH1 0x0 REVERT JUMPDEST POP POP POP POP PUSH1 0x40 MLOAD RETURNDATASIZE PUSH1 0x1F NOT PUSH1 0x1F DUP3 ADD AND DUP3 ADD DUP1 PUSH1 0x40 MSTORE POP DUP2 ADD SWAP1 PUSH2 0x122C SWAP2 SWAP1 PUSH2 0x162C JUMP JUMPDEST PUSH1 0x1 PUSH1 0x0 SWAP1 SLOAD SWAP1 PUSH2 0x100 EXP SWAP1 DIV PUSH20 0xFFFFFFFFFFFFFFFFFFFFFFFFFFFFFFFFFFFFFFFF AND PUSH20 0xFFFFFFFFFFFFFFFFFFFFFFFFFFFFFFFFFFFFFFFF AND PUSH4 0x67EC822 ADDRESS PUSH1 0x40 MLOAD DUP3 PUSH4 0xFFFFFFFF AND PUSH1 0xE0 SHL DUP2 MSTORE PUSH1 0x4 ADD PUSH2 0x1287 SWAP2 SWAP1 PUSH2 0x15D5 JUMP JUMPDEST PUSH1 0x20 PUSH1 0x40 MLOAD DUP1 DUP4 SUB DUP2 DUP7 GAS STATICCALL ISZERO DUP1 ISZERO PUSH2 0x12A4 JUMPI RETURNDATASIZE PUSH1 0x0 DUP1 RETURNDATACOPY RETURNDATASIZE PUSH1 0x0 REVERT JUMPDEST POP POP POP POP PUSH1 0x40 MLOAD RETURNDATASIZE PUSH1 0x1F NOT PUSH1 0x1F DUP3 ADD AND DUP3 ADD DUP1 PUSH1 0x40 MSTORE POP DUP2 ADD SWAP1 PUSH2 0x12C8 SWAP2 SWAP1 PUSH2 0x166E JUMP JUMPDEST PUSH1 0x40 MLOAD DUP8 PUSH4 0xFFFFFFFF AND PUSH1 0xE0 SHL DUP2 MSTORE PUSH1 0x4 ADD PUSH2 0x12E9 SWAP7 SWAP6 SWAP5 SWAP4 SWAP3 SWAP2 SWAP1 PUSH2 0x17C1 JUMP JUMPDEST PUSH1 0x0 PUSH1 0x40 MLOAD DUP1 DUP4 SUB DUP2 PUSH1 0x0 DUP8 DUP1 EXTCODESIZE ISZERO DUP1 ISZERO PUSH2 0x1303 JUMPI PUSH1 0x0 DUP1 REVERT JUMPDEST POP GAS CALL ISZERO DUP1 ISZERO PUSH2 0x1317 JUMPI RETURNDATASIZE PUSH1 0x0 DUP1 RETURNDATACOPY RETURNDATASIZE PUSH1 0x0 REVERT JUMPDEST POP POP POP POP POP POP POP JUMP JUMPDEST PUSH1 0x0 DUP1 REVERT JUMPDEST PUSH1 0x0 PUSH20 0xFFFFFFFFFFFFFFFFFFFFFFFFFFFFFFFFFFFFFFFF DUP3 AND SWAP1 POP SWAP2 SWAP1 POP JUMP JUMPDEST PUSH1 0x0 PUSH2 0x1350 DUP3 PUSH2 0x1325 JUMP JUMPDEST SWAP1 POP SWAP2 SWAP1 POP JUMP JUMPDEST PUSH2 0x1360 DUP2 PUSH2 0x1345 JUMP JUMPDEST DUP2 EQ PUSH2 0x136B JUMPI PUSH1 0x0 DUP1 REVERT JUMPDEST POP JUMP JUMPDEST PUSH1 0x0 DUP2 CALLDATALOAD SWAP1 POP PUSH2 0x137D DUP2 PUSH2 0x1357 JUMP JUMPDEST SWAP3 SWAP2 POP POP JUMP JUMPDEST PUSH1 0x0 DUP2 SWAP1 POP SWAP2 SWAP1 POP JUMP JUMPDEST PUSH2 0x1396 DUP2 PUSH2 0x1383 JUMP JUMPDEST DUP2 EQ PUSH2 0x13A1 JUMPI PUSH1 0x0 DUP1 REVERT JUMPDEST POP JUMP JUMPDEST PUSH1 0x0 DUP2 CALLDATALOAD SWAP1 POP PUSH2 0x13B3 DUP2 PUSH2 0x138D JUMP JUMPDEST SWAP3 SWAP2 POP POP JUMP JUMPDEST PUSH1 0x0 DUP1 PUSH1 0x40 DUP4 DUP6 SUB SLT ISZERO PUSH2 0x13D0 JUMPI PUSH2 0x13CF PUSH2 0x1320 JUMP JUMPDEST JUMPDEST PUSH1 0x0 PUSH2 0x13DE DUP6 DUP3 DUP7 ADD PUSH2 0x136E JUMP JUMPDEST SWAP3 POP POP PUSH1 0x20 PUSH2 0x13EF DUP6 DUP3 DUP7 ADD PUSH2 0x13A4 JUMP JUMPDEST SWAP2 POP POP SWAP3 POP SWAP3 SWAP1 POP JUMP JUMPDEST PUSH2 0x1402 DUP2 PUSH2 0x1383 JUMP JUMPDEST DUP3 MSTORE POP POP JUMP JUMPDEST PUSH1 0x0 PUSH1 0x20 DUP3 ADD SWAP1 POP PUSH2 0x141D PUSH1 0x0 DUP4 ADD DUP5 PUSH2 0x13F9 JUMP JUMPDEST SWAP3 SWAP2 POP POP JUMP JUMPDEST PUSH1 0x0 PUSH1 0x20 DUP3 DUP5 SUB SLT ISZERO PUSH2 0x1439 JUMPI PUSH2 0x1438 PUSH2 0x1320 JUMP JUMPDEST JUMPDEST PUSH1 0x0 PUSH2 0x1447 DUP5 DUP3 DUP6 ADD PUSH2 0x136E JUMP JUMPDEST SWAP2 POP POP SWAP3 SWAP2 POP POP JUMP JUMPDEST PUSH1 0x0 PUSH1 0x20 DUP3 DUP5 SUB SLT ISZERO PUSH2 0x1466 JUMPI PUSH2 0x1465 PUSH2 0x1320 JUMP JUMPDEST JUMPDEST PUSH1 0x0 PUSH2 0x1474 DUP5 DUP3 DUP6 ADD PUSH2 0x13A4 JUMP JUMPDEST SWAP2 POP POP SWAP3 SWAP2 POP POP JUMP JUMPDEST PUSH1 0x0 PUSH1 0xFF DUP3 AND SWAP1 POP SWAP2 SWAP1 POP JUMP JUMPDEST PUSH2 0x1493 DUP2 PUSH2 0x147D JUMP JUMPDEST DUP2 EQ PUSH2 0x149E JUMPI PUSH1 0x0 DUP1 REVERT JUMPDEST POP JUMP JUMPDEST PUSH1 0x0 DUP2 CALLDATALOAD SWAP1 POP PUSH2 0x14B0 DUP2 PUSH2 0x148A JUMP JUMPDEST SWAP3 SWAP2 POP POP JUMP JUMPDEST PUSH1 0x0 DUP1 PUSH1 0x40 DUP4 DUP6 SUB SLT ISZERO PUSH2 0x14CD JUMPI PUSH2 0x14CC PUSH2 0x1320 JUMP JUMPDEST JUMPDEST PUSH1 0x0 PUSH2 0x14DB DUP6 DUP3 DUP7 ADD PUSH2 0x136E JUMP JUMPDEST SWAP3 POP POP PUSH1 0x20 PUSH2 0x14EC DUP6 DUP3 DUP7 ADD PUSH2 0x14A1 JUMP JUMPDEST SWAP2 POP POP SWAP3 POP SWAP3 SWAP1 POP JUMP JUMPDEST PUSH1 0x0 DUP1 PUSH1 0x0 PUSH1 0x60 DUP5 DUP7 SUB SLT ISZERO PUSH2 0x150F JUMPI PUSH2 0x150E PUSH2 0x1320 JUMP JUMPDEST JUMPDEST PUSH1 0x0 PUSH2 0x151D DUP7 DUP3 DUP8 ADD PUSH2 0x136E JUMP JUMPDEST SWAP4 POP POP PUSH1 0x20 PUSH2 0x152E DUP7 DUP3 DUP8 ADD PUSH2 0x13A4 JUMP JUMPDEST SWAP3 POP POP PUSH1 0x40 PUSH2 0x153F DUP7 DUP3 DUP8 ADD PUSH2 0x14A1 JUMP JUMPDEST SWAP2 POP POP SWAP3 POP SWAP3 POP SWAP3 JUMP JUMPDEST PUSH1 0x0 DUP3 DUP3 MSTORE PUSH1 0x20 DUP3 ADD SWAP1 POP SWAP3 SWAP2 POP POP JUMP JUMPDEST PUSH32 0x4E4F545F504F4F4C000000000000000000000000000000000000000000000000 PUSH1 0x0 DUP3 ADD MSTORE POP JUMP JUMPDEST PUSH1 0x0 PUSH2 0x1590 PUSH1 0x8 DUP4 PUSH2 0x1549 JUMP JUMPDEST SWAP2 POP PUSH2 0x159B DUP3 PUSH2 0x155A JUMP JUMPDEST PUSH1 0x20 DUP3 ADD SWAP1 POP SWAP2 SWAP1 POP JUMP JUMPDEST PUSH1 0x0 PUSH1 0x20 DUP3 ADD SWAP1 POP DUP2 DUP2 SUB PUSH1 0x0 DUP4 ADD MSTORE PUSH2 0x15BF DUP2 PUSH2 0x1583 JUMP JUMPDEST SWAP1 POP SWAP2 SWAP1 POP JUMP JUMPDEST PUSH2 0x15CF DUP2 PUSH2 0x1345 JUMP JUMPDEST DUP3 MSTORE POP POP JUMP JUMPDEST PUSH1 0x0 PUSH1 0x20 DUP3 ADD SWAP1 POP PUSH2 0x15EA PUSH1 0x0 DUP4 ADD DUP5 PUSH2 0x15C6 JUMP JUMPDEST SWAP3 SWAP2 POP POP JUMP JUMPDEST PUSH1 0x0 PUSH4 0xFFFFFFFF DUP3 AND SWAP1 POP SWAP2 SWAP1 POP JUMP JUMPDEST PUSH2 0x1609 DUP2 PUSH2 0x15F0 JUMP JUMPDEST DUP2 EQ PUSH2 0x1614 JUMPI PUSH1 0x0 DUP1 REVERT JUMPDEST POP JUMP JUMPDEST PUSH1 0x0 DUP2 MLOAD SWAP1 POP PUSH2 0x1626 DUP2 PUSH2 0x1600 JUMP JUMPDEST SWAP3 SWAP2 POP POP JUMP JUMPDEST PUSH1 0x0 PUSH1 0x20 DUP3 DUP5 SUB SLT ISZERO PUSH2 0x1642 JUMPI PUSH2 0x1641 PUSH2 0x1320 JUMP JUMPDEST JUMPDEST PUSH1 0x0 PUSH2 0x1650 DUP5 DUP3 DUP6 ADD PUSH2 0x1617 JUMP JUMPDEST SWAP2 POP POP SWAP3 SWAP2 POP POP JUMP JUMPDEST PUSH1 0x0 DUP2 MLOAD SWAP1 POP PUSH2 0x1668 DUP2 PUSH2 0x138D JUMP JUMPDEST SWAP3 SWAP2 POP POP JUMP JUMPDEST PUSH1 0x0 PUSH1 0x20 DUP3 DUP5 SUB SLT ISZERO PUSH2 0x1684 JUMPI PUSH2 0x1683 PUSH2 0x1320 JUMP JUMPDEST JUMPDEST PUSH1 0x0 PUSH2 0x1692 DUP5 DUP3 DUP6 ADD PUSH2 0x1659 JUMP JUMPDEST SWAP2 POP POP SWAP3 SWAP2 POP POP JUMP JUMPDEST PUSH1 0x0 DUP2 SWAP1 POP SWAP2 SWAP1 POP JUMP JUMPDEST PUSH1 0x0 PUSH2 0x16C0 PUSH2 0x16BB PUSH2 0x16B6 DUP5 PUSH2 0x15F0 JUMP JUMPDEST PUSH2 0x169B JUMP JUMPDEST PUSH2 0x1383 JUMP JUMPDEST SWAP1 POP SWAP2 SWAP1 POP JUMP JUMPDEST PUSH2 0x16D0 DUP2 PUSH2 0x16A5 JUMP JUMPDEST DUP3 MSTORE POP POP JUMP JUMPDEST PUSH1 0x0 PUSH1 0x80 DUP3 ADD SWAP1 POP PUSH2 0x16EB PUSH1 0x0 DUP4 ADD DUP8 PUSH2 0x15C6 JUMP JUMPDEST PUSH2 0x16F8 PUSH1 0x20 DUP4 ADD DUP7 PUSH2 0x13F9 JUMP JUMPDEST PUSH2 0x1705 PUSH1 0x40 DUP4 ADD DUP6 PUSH2 0x16C7 JUMP JUMPDEST PUSH2 0x1712 PUSH1 0x60 DUP4 ADD DUP5 PUSH2 0x13F9 JUMP JUMPDEST SWAP6 SWAP5 POP POP POP POP POP JUMP JUMPDEST PUSH1 0x0 PUSH1 0x40 DUP3 ADD SWAP1 POP PUSH2 0x1730 PUSH1 0x0 DUP4 ADD DUP6 PUSH2 0x15C6 JUMP JUMPDEST PUSH2 0x173D PUSH1 0x20 DUP4 ADD DUP5 PUSH2 0x13F9 JUMP JUMPDEST SWAP4 SWAP3 POP POP POP JUMP JUMPDEST PUSH1 0x0 PUSH1 0x40 DUP3 ADD SWAP1 POP PUSH2 0x1759 PUSH1 0x0 DUP4 ADD DUP6 PUSH2 0x15C6 JUMP JUMPDEST PUSH2 0x1766 PUSH1 0x20 DUP4 ADD DUP5 PUSH2 0x15C6 JUMP JUMPDEST SWAP4 SWAP3 POP POP POP JUMP JUMPDEST PUSH2 0x1776 DUP2 PUSH2 0x147D JUMP JUMPDEST DUP3 MSTORE POP POP JUMP JUMPDEST PUSH1 0x0 PUSH1 0x80 DUP3 ADD SWAP1 POP PUSH2 0x1791 PUSH1 0x0 DUP4 ADD DUP8 PUSH2 0x15C6 JUMP JUMPDEST PUSH2 0x179E PUSH1 0x20 DUP4 ADD DUP7 PUSH2 0x176D JUMP JUMPDEST PUSH2 0x17AB PUSH1 0x40 DUP4 ADD DUP6 PUSH2 0x16C7 JUMP JUMPDEST PUSH2 0x17B8 PUSH1 0x60 DUP4 ADD DUP5 PUSH2 0x13F9 JUMP JUMPDEST SWAP6 SWAP5 POP POP POP POP POP JUMP JUMPDEST PUSH1 0x0 PUSH1 0xC0 DUP3 ADD SWAP1 POP PUSH2 0x17D6 PUSH1 0x0 DUP4 ADD DUP10 PUSH2 0x15C6 JUMP JUMPDEST PUSH2 0x17E3 PUSH1 0x20 DUP4 ADD DUP9 PUSH2 0x13F9 JUMP JUMPDEST PUSH2 0x17F0 PUSH1 0x40 DUP4 ADD DUP8 PUSH2 0x176D JUMP JUMPDEST PUSH2 0x17FD PUSH1 0x60 DUP4 ADD DUP7 PUSH2 0x16C7 JUMP JUMPDEST PUSH2 0x180A PUSH1 0x80 DUP4 ADD DUP6 PUSH2 0x16C7 JUMP JUMPDEST PUSH2 0x1817 PUSH1 0xA0 DUP4 ADD DUP5 PUSH2 0x13F9 JUMP JUMPDEST SWAP8 SWAP7 POP POP POP POP POP POP POP JUMP INVALID LOG2 PUSH5 0x6970667358 0x22 SLT KECCAK256 0xB6 SWAP4 0xE6 0x4D DUP14 SHL DUP5 PUSH23 0x1652113027863C50A0F75221294D78B18CE9855162C1DD 0xBF PUSH5 0x736F6C6343 STOP ADDMOD GT STOP CALLER LOG2 PUSH5 0x6970667358 0x22 SLT KECCAK256 PUSH24 0xAF6531ED0F3A4639B5800E84134FCDE00943C48617A50122 0xBD SWAP7 PUSH17 0x5F912CAD64736F6C634300081100330000 "
		},
		"gasEstimates": {
			"creation": {
				"codeDepositCost": "6524800",
				"executionCost": "118741",
				"totalCost": "6643541"
			},
			"external": {
				"CLAIMABLE()": "2604",
				"LIQUIDATION_ROUND_THRESHOLD()": "397",
				"MANAGER()": "2605",
				"MAX_DELEGATION_LST()": "2517",
				"MAX_LEDGER_COUNT()": "462",
				"MAX_LST_SUPPLY()": "2540",
				"PARACHAIN_STAKING()": "2603",
				"TOKEN_LIQUID_STAKING()": "2671",
				"activateInLiquidation()": "infinite",
				"addLedger()": "infinite",
				"cancelDelegationRequest(uint256,address)": "infinite",
				"deactivateInLiquidation()": "infinite",
				"delegate(uint256,address,uint256)": "infinite",
				"delegateWithAutoCompound(uint256,address,uint256,uint8)": "infinite",
				"delegatorBondMore(uint256,address,uint256)": "infinite",
				"delegatorScheduleUnstakeAndBurnLSTokens(uint256)": "infinite",
				"delegatorStakeAndReceiveLSTokens()": "infinite",
				"delegatorToClaims(address)": "2924",
				"depositAndBondMore(uint256,address,uint256)": "infinite",
				"depositAndDelegate(uint256,address,uint256)": "infinite",
				"depositAndDelegateWithAutoCompound(uint256,address,uint256,uint8)": "infinite",
				"depositAsBonus()": "infinite",
				"depositFromLedger()": "infinite",
				"depositToLedger(uint256,uint256)": "infinite",
				"executeDelegationRequest(uint256,address)": "infinite",
				"executeUndelegations(uint256)": "infinite",
				"getLedgersLength()": "2556",
				"inLiquidation()": "2611",
				"initialize(address,address,address,address,address)": "infinite",
				"lastRoundRebased()": "2496",
				"ledgers(uint256)": "5067",
				"lstokenPerUnderlying()": "2498",
				"makeClaimable(uint256)": "infinite",
				"netOutPending()": "infinite",
				"netOutPendingAmount(int256)": "infinite",
				"pendingDelegation()": "2475",
				"pendingSchedulingUndelegation()": "2585",
				"rebase()": "infinite",
				"removeLedger(uint256)": "infinite",
				"scheduleDelegatorBondLess(uint256,address,uint256)": "infinite",
				"scheduleRevokeDelegation(uint256,address)": "infinite",
				"scheduleRevokeDelegationInLiquidation(uint256,address)": "infinite",
				"setAutoCompound(uint256,address,uint8)": "infinite",
				"setMaxDelegationLst(uint256)": "infinite",
				"setMaxLstSupply(uint256)": "infinite",
				"setSkipRebase(bool)": "infinite",
				"skipRebase()": "2603",
				"toClaim()": "2518",
				"undelegationQueue()": "infinite",
				"underlyingPerLSToken()": "2496",
				"withdrawFromLedger(uint256,uint256)": "infinite",
				"withdrawFromLedgerInLiquidation(uint256,uint256)": "infinite"
			},
			"internal": {
				"_addLedger()": "infinite",
				"_getLedgerIndex(address)": "infinite",
				"_getUnderlying()": "infinite",
				"_isProxy(address)": "infinite",
				"_rebase()": "infinite",
				"_scheduleRevokeDelegation(uint256,address)": "infinite",
				"_toUint256OrZero(int256)": "65",
				"_withdrawFromLedger(uint256,uint256)": "infinite"
			}
		},
		"methodIdentifiers": {
			"CLAIMABLE()": "9b8799c8",
			"LIQUIDATION_ROUND_THRESHOLD()": "90891f39",
			"MANAGER()": "1b2df850",
			"MAX_DELEGATION_LST()": "f64e6265",
			"MAX_LEDGER_COUNT()": "804a933d",
			"MAX_LST_SUPPLY()": "b74fdf9e",
			"PARACHAIN_STAKING()": "71c27067",
			"TOKEN_LIQUID_STAKING()": "19502be7",
			"activateInLiquidation()": "584fc5a5",
			"addLedger()": "8709affc",
			"cancelDelegationRequest(uint256,address)": "1dfef2a4",
			"deactivateInLiquidation()": "2d4d89a3",
			"delegate(uint256,address,uint256)": "b2065edb",
			"delegateWithAutoCompound(uint256,address,uint256,uint8)": "46d96ed4",
			"delegatorBondMore(uint256,address,uint256)": "68727f1d",
			"delegatorScheduleUnstakeAndBurnLSTokens(uint256)": "e8155592",
			"delegatorStakeAndReceiveLSTokens()": "c045add7",
			"delegatorToClaims(address)": "fa8d0751",
			"depositAndBondMore(uint256,address,uint256)": "4738d6ee",
			"depositAndDelegate(uint256,address,uint256)": "422d98e6",
			"depositAndDelegateWithAutoCompound(uint256,address,uint256,uint8)": "e425f917",
			"depositAsBonus()": "db3b157e",
			"depositFromLedger()": "0f09d6e9",
			"depositToLedger(uint256,uint256)": "19439654",
			"executeDelegationRequest(uint256,address)": "c1dd0476",
			"executeUndelegations(uint256)": "88bb26ee",
			"getLedgersLength()": "d4a0f555",
			"inLiquidation()": "88b5b67d",
			"initialize(address,address,address,address,address)": "1459457a",
			"lastRoundRebased()": "c63f0ad7",
			"ledgers(uint256)": "e9789190",
			"lstokenPerUnderlying()": "19acb031",
			"makeClaimable(uint256)": "d62e551d",
			"netOutPending()": "2f2462df",
			"netOutPendingAmount(int256)": "6040ec70",
			"pendingDelegation()": "824be2f5",
			"pendingSchedulingUndelegation()": "5f56850c",
			"rebase()": "af14052c",
			"removeLedger(uint256)": "097a5c16",
			"scheduleDelegatorBondLess(uint256,address,uint256)": "52c7dbd4",
			"scheduleRevokeDelegation(uint256,address)": "8cac6072",
			"scheduleRevokeDelegationInLiquidation(uint256,address)": "a7367744",
			"setAutoCompound(uint256,address,uint8)": "10936d2a",
			"setMaxDelegationLst(uint256)": "90252f84",
			"setMaxLstSupply(uint256)": "471cd4ec",
			"setSkipRebase(bool)": "54cfbfe5",
			"skipRebase()": "fb995a8f",
			"toClaim()": "c788c255",
			"undelegationQueue()": "7e82fd6f",
			"underlyingPerLSToken()": "6dcbb8fc",
			"withdrawFromLedger(uint256,uint256)": "633b4bfb",
			"withdrawFromLedgerInLiquidation(uint256,uint256)": "ea98ecac"
		}
	},
	"abi": [
		{
			"anonymous": false,
			"inputs": [
				{
					"indexed": false,
					"internalType": "address",
					"name": "ledger",
					"type": "address"
				}
			],
			"name": "AddedLedger",
			"type": "event"
		},
		{
			"anonymous": false,
			"inputs": [
				{
					"indexed": false,
					"internalType": "address",
					"name": "delegator",
					"type": "address"
				},
				{
					"indexed": false,
					"internalType": "uint256",
					"name": "amount",
					"type": "uint256"
				},
				{
					"indexed": false,
					"internalType": "uint256",
					"name": "lstAmount",
					"type": "uint256"
				}
			],
			"name": "DelegatedToPool",
			"type": "event"
		},
		{
			"anonymous": false,
			"inputs": [
				{
					"indexed": false,
					"internalType": "uint256",
					"name": "amount",
					"type": "uint256"
				}
			],
			"name": "DepositedBonus",
			"type": "event"
		},
		{
			"anonymous": false,
			"inputs": [
				{
					"indexed": false,
					"internalType": "address",
					"name": "ledger",
					"type": "address"
				},
				{
					"indexed": false,
					"internalType": "uint256",
					"name": "amount",
					"type": "uint256"
				}
			],
			"name": "DepositedToLedger",
			"type": "event"
		},
		{
			"anonymous": false,
			"inputs": [],
			"name": "InLiquidationActivated",
			"type": "event"
		},
		{
			"anonymous": false,
			"inputs": [],
			"name": "InLiquidationDeactivated",
			"type": "event"
		},
		{
			"anonymous": false,
			"inputs": [],
			"name": "InLiquidationRevoke",
			"type": "event"
		},
		{
			"anonymous": false,
			"inputs": [],
			"name": "InLiquidationWithdrawal",
			"type": "event"
		},
		{
			"anonymous": false,
			"inputs": [
				{
					"indexed": false,
					"internalType": "address",
					"name": "ledger",
					"type": "address"
				},
				{
					"indexed": false,
					"internalType": "address",
					"name": "candidate",
					"type": "address"
				},
				{
					"indexed": false,
					"internalType": "uint8",
					"name": "value",
					"type": "uint8"
				}
			],
			"name": "LedgerAutoCompoundSet",
			"type": "event"
		},
		{
			"anonymous": false,
			"inputs": [
				{
					"indexed": false,
					"internalType": "address",
					"name": "ledger",
					"type": "address"
				},
				{
					"indexed": false,
					"internalType": "address",
					"name": "candidate",
					"type": "address"
				},
				{
					"indexed": false,
					"internalType": "uint256",
					"name": "amount",
					"type": "uint256"
				}
			],
			"name": "LedgerBondLess",
			"type": "event"
		},
		{
			"anonymous": false,
			"inputs": [
				{
					"indexed": false,
					"internalType": "address",
					"name": "ledger",
					"type": "address"
				},
				{
					"indexed": false,
					"internalType": "address",
					"name": "candidate",
					"type": "address"
				},
				{
					"indexed": false,
					"internalType": "uint256",
					"name": "amount",
					"type": "uint256"
				}
			],
			"name": "LedgerBondMore",
			"type": "event"
		},
		{
			"anonymous": false,
			"inputs": [
				{
					"indexed": false,
					"internalType": "address",
					"name": "ledger",
					"type": "address"
				},
				{
					"indexed": false,
					"internalType": "address",
					"name": "_candidate",
					"type": "address"
				}
			],
			"name": "LedgerCancelDelegationRequest",
			"type": "event"
		},
		{
			"anonymous": false,
			"inputs": [
				{
					"indexed": false,
					"internalType": "address",
					"name": "ledger",
					"type": "address"
				},
				{
					"indexed": false,
					"internalType": "address",
					"name": "candidate",
					"type": "address"
				},
				{
					"indexed": false,
					"internalType": "uint256",
					"name": "amount",
					"type": "uint256"
				}
			],
			"name": "LedgerDelegate",
			"type": "event"
		},
		{
			"anonymous": false,
			"inputs": [
				{
					"indexed": false,
					"internalType": "address",
					"name": "ledger",
					"type": "address"
				},
				{
					"indexed": false,
					"internalType": "address",
					"name": "candidate",
					"type": "address"
				},
				{
					"indexed": false,
					"internalType": "uint256",
					"name": "amount",
					"type": "uint256"
				}
			],
			"name": "LedgerDelegateWithAutoCompound",
			"type": "event"
		},
		{
			"anonymous": false,
			"inputs": [
				{
					"indexed": false,
					"internalType": "address",
					"name": "ledger",
					"type": "address"
				},
				{
					"indexed": false,
					"internalType": "address",
					"name": "_candidate",
					"type": "address"
				}
			],
			"name": "LedgerScheduledRevoke",
			"type": "event"
		},
		{
			"anonymous": false,
			"inputs": [
				{
					"indexed": false,
					"internalType": "uint256",
					"name": "amount",
					"type": "uint256"
				}
			],
			"name": "MadeClaimable",
			"type": "event"
		},
		{
			"anonymous": false,
			"inputs": [
				{
					"indexed": false,
					"internalType": "uint256",
					"name": "maxDelegation",
					"type": "uint256"
				}
			],
			"name": "MaxDelegationLstSet",
			"type": "event"
		},
		{
			"anonymous": false,
			"inputs": [
				{
					"indexed": false,
					"internalType": "uint256",
					"name": "supply",
					"type": "uint256"
				}
			],
			"name": "MaxLstSupplySet",
			"type": "event"
		},
		{
			"anonymous": false,
			"inputs": [
				{
					"indexed": false,
					"internalType": "int256",
					"name": "amount",
					"type": "int256"
				}
			],
			"name": "NetOutPending",
			"type": "event"
		},
		{
			"anonymous": false,
			"inputs": [
				{
					"indexed": false,
					"internalType": "uint256",
					"name": "underlyingPerLSToken",
					"type": "uint256"
				},
				{
					"indexed": false,
					"internalType": "uint256",
					"name": "lstokenPerUnderlying",
					"type": "uint256"
				}
			],
			"name": "Rebase",
			"type": "event"
		},
		{
			"anonymous": false,
			"inputs": [
				{
					"indexed": false,
					"internalType": "address",
					"name": "ledger",
					"type": "address"
				}
			],
			"name": "RemovedLedger",
			"type": "event"
		},
		{
			"anonymous": false,
			"inputs": [
				{
					"indexed": false,
					"internalType": "address",
					"name": "delegator",
					"type": "address"
				},
				{
					"indexed": false,
					"internalType": "uint256",
					"name": "amount",
					"type": "uint256"
				},
				{
					"indexed": false,
					"internalType": "uint256",
					"name": "lstAmount",
					"type": "uint256"
				}
			],
			"name": "ScheduledUndelegateFromPool",
			"type": "event"
		},
		{
			"anonymous": false,
			"inputs": [
				{
					"indexed": false,
					"internalType": "bool",
					"name": "skipRebase",
					"type": "bool"
				}
			],
			"name": "SkipRebaseSet",
			"type": "event"
		},
		{
			"anonymous": false,
			"inputs": [
				{
					"indexed": false,
					"internalType": "address",
					"name": "delegator",
					"type": "address"
				},
				{
					"indexed": false,
					"internalType": "uint256",
					"name": "amount",
					"type": "uint256"
				}
			],
			"name": "UndelegationExecuted",
			"type": "event"
		},
		{
			"anonymous": false,
			"inputs": [
				{
					"indexed": false,
					"internalType": "address",
					"name": "ledger",
					"type": "address"
				},
				{
					"indexed": false,
					"internalType": "uint256",
					"name": "amount",
					"type": "uint256"
				}
			],
			"name": "WithdrawnFromLedger",
			"type": "event"
		},
		{
			"inputs": [],
			"name": "CLAIMABLE",
			"outputs": [
				{
					"internalType": "address payable",
					"name": "",
					"type": "address"
				}
			],
			"stateMutability": "view",
			"type": "function"
		},
		{
			"inputs": [],
			"name": "LIQUIDATION_ROUND_THRESHOLD",
			"outputs": [
				{
					"internalType": "uint256",
					"name": "",
					"type": "uint256"
				}
			],
			"stateMutability": "view",
			"type": "function"
		},
		{
			"inputs": [],
			"name": "MANAGER",
			"outputs": [
				{
					"internalType": "address",
					"name": "",
					"type": "address"
				}
			],
			"stateMutability": "view",
			"type": "function"
		},
		{
			"inputs": [],
			"name": "MAX_DELEGATION_LST",
			"outputs": [
				{
					"internalType": "uint256",
					"name": "",
					"type": "uint256"
				}
			],
			"stateMutability": "view",
			"type": "function"
		},
		{
			"inputs": [],
			"name": "MAX_LEDGER_COUNT",
			"outputs": [
				{
					"internalType": "uint256",
					"name": "",
					"type": "uint256"
				}
			],
			"stateMutability": "view",
			"type": "function"
		},
		{
			"inputs": [],
			"name": "MAX_LST_SUPPLY",
			"outputs": [
				{
					"internalType": "uint256",
					"name": "",
					"type": "uint256"
				}
			],
			"stateMutability": "view",
			"type": "function"
		},
		{
			"inputs": [],
			"name": "PARACHAIN_STAKING",
			"outputs": [
				{
					"internalType": "address",
					"name": "",
					"type": "address"
				}
			],
			"stateMutability": "view",
			"type": "function"
		},
		{
			"inputs": [],
			"name": "TOKEN_LIQUID_STAKING",
			"outputs": [
				{
					"internalType": "address",
					"name": "",
					"type": "address"
				}
			],
			"stateMutability": "view",
			"type": "function"
		},
		{
			"inputs": [],
			"name": "activateInLiquidation",
			"outputs": [],
			"stateMutability": "nonpayable",
			"type": "function"
		},
		{
			"inputs": [],
			"name": "addLedger",
			"outputs": [
				{
					"internalType": "address",
					"name": "",
					"type": "address"
				}
			],
			"stateMutability": "nonpayable",
			"type": "function"
		},
		{
			"inputs": [
				{
					"internalType": "uint256",
					"name": "_ledgerIndex",
					"type": "uint256"
				},
				{
					"internalType": "address",
					"name": "_candidate",
					"type": "address"
				}
			],
			"name": "cancelDelegationRequest",
			"outputs": [],
			"stateMutability": "nonpayable",
			"type": "function"
		},
		{
			"inputs": [],
			"name": "deactivateInLiquidation",
			"outputs": [],
			"stateMutability": "nonpayable",
			"type": "function"
		},
		{
			"inputs": [
				{
					"internalType": "uint256",
					"name": "_ledgerIndex",
					"type": "uint256"
				},
				{
					"internalType": "address",
					"name": "_candidate",
					"type": "address"
				},
				{
					"internalType": "uint256",
					"name": "_amount",
					"type": "uint256"
				}
			],
			"name": "delegate",
			"outputs": [],
			"stateMutability": "nonpayable",
			"type": "function"
		},
		{
			"inputs": [
				{
					"internalType": "uint256",
					"name": "_ledgerIndex",
					"type": "uint256"
				},
				{
					"internalType": "address",
					"name": "_candidate",
					"type": "address"
				},
				{
					"internalType": "uint256",
					"name": "_amount",
					"type": "uint256"
				},
				{
					"internalType": "uint8",
					"name": "_autoCompound",
					"type": "uint8"
				}
			],
			"name": "delegateWithAutoCompound",
			"outputs": [],
			"stateMutability": "nonpayable",
			"type": "function"
		},
		{
			"inputs": [
				{
					"internalType": "uint256",
					"name": "_ledgerIndex",
					"type": "uint256"
				},
				{
					"internalType": "address",
					"name": "_candidate",
					"type": "address"
				},
				{
					"internalType": "uint256",
					"name": "_amount",
					"type": "uint256"
				}
			],
			"name": "delegatorBondMore",
			"outputs": [],
			"stateMutability": "nonpayable",
			"type": "function"
		},
		{
			"inputs": [
				{
					"internalType": "uint256",
					"name": "_amountLST",
					"type": "uint256"
				}
			],
			"name": "delegatorScheduleUnstakeAndBurnLSTokens",
			"outputs": [],
			"stateMutability": "nonpayable",
			"type": "function"
		},
		{
			"inputs": [],
			"name": "delegatorStakeAndReceiveLSTokens",
			"outputs": [],
			"stateMutability": "payable",
			"type": "function"
		},
		{
			"inputs": [
				{
					"internalType": "address",
					"name": "",
					"type": "address"
				}
			],
			"name": "delegatorToClaims",
			"outputs": [
				{
					"internalType": "uint256",
					"name": "",
					"type": "uint256"
				}
			],
			"stateMutability": "view",
			"type": "function"
		},
		{
			"inputs": [
				{
					"internalType": "uint256",
					"name": "_ledgerIndex",
					"type": "uint256"
				},
				{
					"internalType": "address",
					"name": "_candidate",
					"type": "address"
				},
				{
					"internalType": "uint256",
					"name": "_amount",
					"type": "uint256"
				}
			],
			"name": "depositAndBondMore",
			"outputs": [],
			"stateMutability": "nonpayable",
			"type": "function"
		},
		{
			"inputs": [
				{
					"internalType": "uint256",
					"name": "_ledgerIndex",
					"type": "uint256"
				},
				{
					"internalType": "address",
					"name": "_candidate",
					"type": "address"
				},
				{
					"internalType": "uint256",
					"name": "_amount",
					"type": "uint256"
				}
			],
			"name": "depositAndDelegate",
			"outputs": [],
			"stateMutability": "nonpayable",
			"type": "function"
		},
		{
			"inputs": [
				{
					"internalType": "uint256",
					"name": "_ledgerIndex",
					"type": "uint256"
				},
				{
					"internalType": "address",
					"name": "_candidate",
					"type": "address"
				},
				{
					"internalType": "uint256",
					"name": "_amount",
					"type": "uint256"
				},
				{
					"internalType": "uint8",
					"name": "_autoCompound",
					"type": "uint8"
				}
			],
			"name": "depositAndDelegateWithAutoCompound",
			"outputs": [],
			"stateMutability": "nonpayable",
			"type": "function"
		},
		{
			"inputs": [],
			"name": "depositAsBonus",
			"outputs": [],
			"stateMutability": "payable",
			"type": "function"
		},
		{
			"inputs": [],
			"name": "depositFromLedger",
			"outputs": [],
			"stateMutability": "payable",
			"type": "function"
		},
		{
			"inputs": [
				{
					"internalType": "uint256",
					"name": "_ledgerIndex",
					"type": "uint256"
				},
				{
					"internalType": "uint256",
					"name": "_amount",
					"type": "uint256"
				}
			],
			"name": "depositToLedger",
			"outputs": [],
			"stateMutability": "nonpayable",
			"type": "function"
		},
		{
			"inputs": [
				{
					"internalType": "uint256",
					"name": "_ledgerIndex",
					"type": "uint256"
				},
				{
					"internalType": "address",
					"name": "_candidate",
					"type": "address"
				}
			],
			"name": "executeDelegationRequest",
			"outputs": [],
			"stateMutability": "nonpayable",
			"type": "function"
		},
		{
			"inputs": [
				{
					"internalType": "uint256",
					"name": "_maxCount",
					"type": "uint256"
				}
			],
			"name": "executeUndelegations",
			"outputs": [],
			"stateMutability": "nonpayable",
			"type": "function"
		},
		{
			"inputs": [],
			"name": "getLedgersLength",
			"outputs": [
				{
					"internalType": "uint256",
					"name": "",
					"type": "uint256"
				}
			],
			"stateMutability": "view",
			"type": "function"
		},
		{
			"inputs": [],
			"name": "inLiquidation",
			"outputs": [
				{
					"internalType": "bool",
					"name": "",
					"type": "bool"
				}
			],
			"stateMutability": "view",
			"type": "function"
		},
		{
			"inputs": [
				{
					"internalType": "address",
					"name": "_manager",
					"type": "address"
				},
				{
					"internalType": "address",
					"name": "_parachainStaking",
					"type": "address"
				},
				{
					"internalType": "address",
					"name": "_proxy",
					"type": "address"
				},
				{
					"internalType": "address",
					"name": "_tokenLiquidStaking",
					"type": "address"
				},
				{
					"internalType": "address payable",
					"name": "_claimable",
					"type": "address"
				}
			],
			"name": "initialize",
			"outputs": [],
			"stateMutability": "payable",
			"type": "function"
		},
		{
			"inputs": [],
			"name": "lastRoundRebased",
			"outputs": [
				{
					"internalType": "uint256",
					"name": "",
					"type": "uint256"
				}
			],
			"stateMutability": "view",
			"type": "function"
		},
		{
			"inputs": [
				{
					"internalType": "uint256",
					"name": "",
					"type": "uint256"
				}
			],
			"name": "ledgers",
			"outputs": [
				{
					"internalType": "address payable",
					"name": "",
					"type": "address"
				}
			],
			"stateMutability": "view",
			"type": "function"
		},
		{
			"inputs": [],
			"name": "lstokenPerUnderlying",
			"outputs": [
				{
					"internalType": "uint256",
					"name": "",
					"type": "uint256"
				}
			],
			"stateMutability": "view",
			"type": "function"
		},
		{
			"inputs": [
				{
					"internalType": "uint256",
					"name": "_amount",
					"type": "uint256"
				}
			],
			"name": "makeClaimable",
			"outputs": [],
			"stateMutability": "nonpayable",
			"type": "function"
		},
		{
			"inputs": [],
			"name": "netOutPending",
			"outputs": [
				{
					"internalType": "int256",
					"name": "",
					"type": "int256"
				}
			],
			"stateMutability": "nonpayable",
			"type": "function"
		},
		{
			"inputs": [
				{
					"internalType": "int256",
					"name": "_amount",
					"type": "int256"
				}
			],
			"name": "netOutPendingAmount",
			"outputs": [],
			"stateMutability": "nonpayable",
			"type": "function"
		},
		{
			"inputs": [],
			"name": "pendingDelegation",
			"outputs": [
				{
					"internalType": "int256",
					"name": "",
					"type": "int256"
				}
			],
			"stateMutability": "view",
			"type": "function"
		},
		{
			"inputs": [],
			"name": "pendingSchedulingUndelegation",
			"outputs": [
				{
					"internalType": "int256",
					"name": "",
					"type": "int256"
				}
			],
			"stateMutability": "view",
			"type": "function"
		},
		{
			"inputs": [],
			"name": "rebase",
			"outputs": [],
			"stateMutability": "nonpayable",
			"type": "function"
		},
		{
			"inputs": [
				{
					"internalType": "uint256",
					"name": "_ledgerIndex",
					"type": "uint256"
				}
			],
			"name": "removeLedger",
			"outputs": [],
			"stateMutability": "nonpayable",
			"type": "function"
		},
		{
			"inputs": [
				{
					"internalType": "uint256",
					"name": "_ledgerIndex",
					"type": "uint256"
				},
				{
					"internalType": "address",
					"name": "_candidate",
					"type": "address"
				},
				{
					"internalType": "uint256",
					"name": "_amount",
					"type": "uint256"
				}
			],
			"name": "scheduleDelegatorBondLess",
			"outputs": [],
			"stateMutability": "nonpayable",
			"type": "function"
		},
		{
			"inputs": [
				{
					"internalType": "uint256",
					"name": "_ledgerIndex",
					"type": "uint256"
				},
				{
					"internalType": "address",
					"name": "_candidate",
					"type": "address"
				}
			],
			"name": "scheduleRevokeDelegation",
			"outputs": [],
			"stateMutability": "nonpayable",
			"type": "function"
		},
		{
			"inputs": [
				{
					"internalType": "uint256",
					"name": "_ledgerIndex",
					"type": "uint256"
				},
				{
					"internalType": "address",
					"name": "_candidate",
					"type": "address"
				}
			],
			"name": "scheduleRevokeDelegationInLiquidation",
			"outputs": [],
			"stateMutability": "nonpayable",
			"type": "function"
		},
		{
			"inputs": [
				{
					"internalType": "uint256",
					"name": "_ledgerIndex",
					"type": "uint256"
				},
				{
					"internalType": "address",
					"name": "_candidate",
					"type": "address"
				},
				{
					"internalType": "uint8",
					"name": "_value",
					"type": "uint8"
				}
			],
			"name": "setAutoCompound",
			"outputs": [],
			"stateMutability": "nonpayable",
			"type": "function"
		},
		{
			"inputs": [
				{
					"internalType": "uint256",
					"name": "_maxDelegation",
					"type": "uint256"
				}
			],
			"name": "setMaxDelegationLst",
			"outputs": [],
			"stateMutability": "nonpayable",
			"type": "function"
		},
		{
			"inputs": [
				{
					"internalType": "uint256",
					"name": "_maxLST",
					"type": "uint256"
				}
			],
			"name": "setMaxLstSupply",
			"outputs": [],
			"stateMutability": "nonpayable",
			"type": "function"
		},
		{
			"inputs": [
				{
					"internalType": "bool",
					"name": "_skipRebase",
					"type": "bool"
				}
			],
			"name": "setSkipRebase",
			"outputs": [],
			"stateMutability": "nonpayable",
			"type": "function"
		},
		{
			"inputs": [],
			"name": "skipRebase",
			"outputs": [
				{
					"internalType": "bool",
					"name": "",
					"type": "bool"
				}
			],
			"stateMutability": "view",
			"type": "function"
		},
		{
			"inputs": [],
			"name": "toClaim",
			"outputs": [
				{
					"internalType": "uint256",
					"name": "",
					"type": "uint256"
				}
			],
			"stateMutability": "view",
			"type": "function"
		},
		{
			"inputs": [],
			"name": "undelegationQueue",
			"outputs": [
				{
					"internalType": "int256",
					"name": "_first",
					"type": "int256"
				},
				{
					"internalType": "int256",
					"name": "_last",
					"type": "int256"
				}
			],
			"stateMutability": "view",
			"type": "function"
		},
		{
			"inputs": [],
			"name": "underlyingPerLSToken",
			"outputs": [
				{
					"internalType": "uint256",
					"name": "",
					"type": "uint256"
				}
			],
			"stateMutability": "view",
			"type": "function"
		},
		{
			"inputs": [
				{
					"internalType": "uint256",
					"name": "_ledgerIndex",
					"type": "uint256"
				},
				{
					"internalType": "uint256",
					"name": "_amount",
					"type": "uint256"
				}
			],
			"name": "withdrawFromLedger",
			"outputs": [],
			"stateMutability": "nonpayable",
			"type": "function"
		},
		{
			"inputs": [
				{
					"internalType": "uint256",
					"name": "_ledgerIndex",
					"type": "uint256"
				},
				{
					"internalType": "uint256",
					"name": "_amount",
					"type": "uint256"
				}
			],
			"name": "withdrawFromLedgerInLiquidation",
			"outputs": [],
			"stateMutability": "nonpayable",
			"type": "function"
		}
	]
}